:10000000B0C100000C944B230C9420230C94F522D7
:100010000C94CA220C949F220C9474220C944922B2
:100020000C941E22CFC10000CDC10000CBC1000046
:10003000C9C10000C7C10000C5C100000C94E81090
:10004000C1C10000BFC10000BDC10000BBC10000B4
:10005000B9C10000B7C10000B5C100000C94D421A3
:10006000B1C100000C94E8200C94BF20ABC100008B
:10007000A9C10000A7C10000A5C10000A3C10000E4
:10008000A1C100009FC100009DC100009BC10000F4
:100090000C9495200C946C2095C100000C94B70F23
:1000A00091C100008FC100008DC100008BC1000014
:1000B00089C1000087C1000085C1000083C1000024
:1000C00081C100007FC100007DC100000C9442206E
:1000D0000C94192077C100000C94EF1F0C94C61FDC
:1000E00071C100002D2130211F21232129216721E9
:1000F000342138213E21422146214C2150215421D6
:1001000067215A215E2162214E414E494E49545980
:10011000494E46CDCCCC3D0AD7233C17B7D13877D2
:10012000CC2B329595E6241FB14F0A0000204100E8
:1001300000C84200401C4620BCBE4CCA1B0E5AAE32
:10014000C59D7400407A10F35A00A0724E18090041
:1001500010A5D4E80000E87648170000E40B54022C
:100160000000CA9A3B000000E1F505000080969867
:1001700000000040420F000000A0860100000010B7
:100180002700000000E803000000006400000000F9
:10019000000A00000000000100000000002C76D8DA
:1001A00088DC674F0823DFC1DFAE59E1B1B796E5C0
:1001B000E3E453C63AE651997696E8E6C28426EB24
:1001C000898C9B62ED407C6FFCEFBC9C9F40F2BA37
:1001D000A56FA5F490055A2AF75C936B6CF9676DCF
:1001E000C11BFCE0E40D47FEF520E6B500D0ED9024
:1001F0002E0300943577050080841E080000204EF1
:100200000A000000C80C333333330F986E12831189
:1002100041EF8D2114893BE65516CFFEE6DB18D160
:10022000844B381BF77C1D901DA4BBE42420328432
:10023000725E228100C9F124ECA1E53D2700002176
:1002400000240027002A002D0030003300010100A7
:1002500000040107010A0100002200250028002BEC
:10026000002E003100340002010000050108010BDE
:100270000105050505070508080808020202020A2B
:100280000A08080404040401010101010101010339
:1002900003030303030303040707070C0C0C0C0CF4
:1002A0000C0C0C0202020206060606060606060BE7
:1002B0000B0B0B0B0B0B0B0102102020080810205E
:1002C00040102040800201020108040201010204E2
:1002D00008102040808040201008040201800402A1
:1002E00001804020100804020108040201010204F8
:1002F0000810204080010204081020408000000AFD
:100300000B02090C0D0E0807030401000000000099
:1003100000000000000000000000000000000000DD
:10032000000000000000000000121110000000009A
:1003300000000000000000000000000000000000BD
:10034000000000000020002300260029002C002FC0
:100350000032000001000003010601090100A83479
:100360008B3411241FBECFEFD1E2DEBFCDBF00E042
:100370000CBF15E0A0E0B2E0EEE0FEE700E00BBF4E
:1003800002C007900D92A038B107D9F72AE0A0E883
:10039000B5E001C01D92A336B207E1F711E0C0EB52
:1003A000D1E000E006C021970109802FFE010E94E4
:1003B000DD3DCF3AD10780E00807A9F70E94582712
:1003C0000C94F63E1DCE82E090E0089583E090E02C
:1003D000089581E090E0089580E090E00895089508
:1003E00082E090E09093BB058093BA05089582E087
:1003F00090E09093B9058093B805089582E090E06D
:100400009093B7058093B605089581E090E09093AE
:10041000BB058093BA05089581E090E09093B905FB
:100420008093B805089581E090E09093B70580939C
:10043000B60508954091A2055091A3056091A405C9
:100440007091A50580919205909193050E94AC183A
:1004500040919E0550919F056091A0057091A10566
:1004600080919005909191050E94AC1840919A0559
:1004700050919B0560919C0570919D0580918E0522
:1004800090918F050C94AC188091B6059091B705AA
:10049000019779F08091B8059091B905019761F0C5
:1004A0008091BA059091BB050197E1F482E090E05C
:1004B00005C080E090E002C081E090E022E030E002
:1004C0003093BD052093BC052AE1289FF001299FA8
:1004D000F00D1124E655F64F62E774E080819181BA
:1004E0000C944627089567E774E08FEA98E00C942F
:1004F000462789E792E00E9492239CCFE0919205E3
:10050000F091930580E090E0A0E8BFE3828B938BAD
:10051000A48BB58BE0919005F0919105828B938B24
:10052000A48BB58BE0918E05F0918F05828B938B18
:10053000A48BB58BE0918605F0918705828B938B18
:10054000A48BB58BE0918405F0918505828B938B0C
:10055000A48BB58BE0918205F0918305828B938B00
:10056000A48BB58B0C942826E0919205F09193050D
:1005700080E090E0A0E2B1E4828B938BA48BB58BFA
:10058000E0919005F0919105828B938BA48BB58BB4
:10059000E0918E05F0918F05828B938BA48BB58BA8
:1005A000E0918605F0918705828B938BA48BB58BA8
:1005B000E0918405F0918505828B938BA48BB58B9C
:1005C000E0918205F0918305828B938BA48BB58B90
:1005D0000C942826E0919205F091930580E090E03C
:1005E000A8E4B2E4828B938BA48BB58BE091900549
:1005F000F0919105828B938BA48BB58BE0918E0546
:10060000F0918F05828B938BA48BB58BE09186053F
:10061000F0918705828B938BA48BB58BE091840539
:10062000F0918505828B938BA48BB58BE09182052D
:10063000F0918305828B938BA48BB58B0C94282629
:100640008091BE05811105C01092C1051092C005B0
:1006500008958091BF050E9468212091C0053091C6
:10066000C105019719F42150310902C02F5F3F4F96
:100670003093C1052093C00508950F931F93CF9326
:100680008C018EE292E0D8018D939C93C0E0F8013A
:10069000248182819381C21790F4FC01EC0FF11D3B
:1006A000EC0FF11D80819181009739F0DC01ED9113
:1006B000FC910280F381E02D1995CF5FE8CF009780
:1006C00029F0CF911F910F910C94EE38CF911F918B
:1006D0000F910895CF93DF93EC01CFDFCE01DF912F
:1006E000CF910C94EE3826E232E0FC013183208376
:1006F000C4CFCF93DF93EC01F6DFCE01DF91CF9132
:100700000C94EE38CF92DF92EF92FF92CF93DF936B
:10071000EC016A017B01E889F98982E08083411557
:10072000514E61057105B1F060E079E08DE390E034
:10073000A70196010E94BB3DDA01C9010197A109F9
:10074000B109B695A795979587959C01211580E1EC
:100750003807A8F0E889F989108260E874E88EE12A
:1007600090E0A70196010E94BB3DDA01C901019703
:10077000A109B109B695A795979587959C01EC8538
:10078000FD853083EE85FF852083188EEC89FD89F9
:1007900086E08083EA89FB89808180618083EA89A1
:1007A000FB89808188608083EA89FB8980818068F9
:1007B0008083EA89FB8980818F7D8083DF91CF915F
:1007C000FF90EF90DF90CF900895CF93DF93EC01EF
:1007D0008EE592E099838883CE010C960E94FB26D9
:1007E000CE010696DF91CF910C94FB26CF93DF9339
:1007F000EC01EBDFCE01DF91CF910C94EE3824E5D4
:1008000032E0FC0131832083E0CFCF93DF93EC0112
:1008100086E392E0998388838A899B89009739F0DF
:10082000DC01ED91FC910280F381E02D1995CE0160
:10083000DF91CF91CACFCF93DF93EC01E6DFCE01FA
:10084000DF91CF910C94EE38CF93DF93CDB7DEB725
:1008500068970FB6F894DEBF0FBECDBFE09182055A
:10086000F091830545A156A167A170A5CE010D9613
:100870000E94292565E874E0CE0101960E940827B0
:10088000BE016F5F7F4FCE0107960E940027BE0119
:10089000635F7F4FCE0107960E94CB17BC01CE014C
:1008A00043960E940027CE0107960E94FB26CE01A8
:1008B00001960E94FB26CE010D960E94FB26809198
:1008C000B6059091B705029779F08091B80590919F
:1008D000B905029761F08091BA059091BB05029726
:1008E000E9F482E090E005C080E090E002C081E0A1
:1008F00090E022E030E03093BD052093BC052AE172
:10090000289FF001299FF00D1124E655F64FBE01F6
:100910006D5E7F4F808191810E94D314CE014396FA
:100920000E94FB2668960FB6F894DEBF0FBECDBFBF
:10093000DF91CF910895CF93DF93CDB7DEB768975E
:100940000FB6F894DEBF0FBECDBFE0918405F091E5
:10095000850545A156A167A170A5CE010D960E94FF
:1009600029256EE874E0CE0101960E940827BE0199
:100970006F5F7F4FCE0107960E940027BE01635F25
:100980007F4FCE0107960E94CB17BC01CE01439644
:100990000E940027CE0107960E94FB26CE010196F9
:1009A0000E94FB26CE010D960E94FB268091B60583
:1009B0009091B705019779F08091B8059091B905AC
:1009C000019761F08091BA059091BB050197E9F418
:1009D00082E090E005C080E090E002C081E090E01D
:1009E00022E030E03093BD052093BC052AE1289F2A
:1009F000F001299FF00D1124E655F64FBE016D5E02
:100A00007F4F808191810E94D314CE0143960E9432
:100A1000FB2668960FB6F894DEBF0FBECDBFDF9100
:100A2000CF910895CF93DF93CDB7DEB768970FB618
:100A3000F894DEBF0FBECDBFE0918605F09187052B
:100A400045A156A167A170A5CE010D960E9429254A
:100A500065E974E0CE0101960E940827BE016F5F30
:100A60007F4FCE0107960E940027BE01635F7F4F34
:100A7000CE0107960E94CB17BC01CE0143960E947F
:100A80000027CE0107960E94FB26CE0101960E9408
:100A9000FB26CE010D960E94FB268091B605909113
:100AA000B705019779F08091B8059091B905019744
:100AB00061F08091BA059091BB050197E9F482E05D
:100AC00090E005C080E090E002C081E090E022E08C
:100AD00030E03093BD052093BC052AE1289FF0014A
:100AE000299FF00D1124E655F64FBE016D5E7F4F34
:100AF000808191810E94D314CE0143960E94FB26EF
:100B000068960FB6F894DEBF0FBECDBFDF91CF91D0
:100B10000895EF92FF920F931F93CF93DF9300D02E
:100B200000D0CDB7DEB70AEA19E083E0F82EEE2454
:100B3000E394E0918005F091810582859385892B6E
:100B400069F067E274E0868197810E94E63E892B16
:100B500029F4F801E3866BE974E004C0F801138618
:100B600067E274E0CE0101960E940827BE016F5F24
:100B70007F4F80918005909181050E947823CE015E
:100B800001960E94FB26FA94065E1F4FF110D1CF0A
:100B900026960FB6F894DEBF0FBECDBFDF91CF9182
:100BA0001F910F91FF90EF900895CF93DF93CDB7F2
:100BB000DEB768970FB6F894DEBF0FBECDBF809149
:100BC000FC099091FD09892B21F01092FD091092EA
:100BD000FC096091FC097091FD09CE010D960E94FF
:100BE000F41763EA74E0CE0101960E940827BE0163
:100BF0006F5F7F4FCE0107960E940027BE01635FA3
:100C00007F4FCE0107960E94CB17BC01CE014396C1
:100C10000E940027CE0107960E94FB26CE01019676
:100C20000E94FB26CE010D960E94FB26BE016D5E42
:100C30007F4FCE0101960E940027BE016F5F7F4F5C
:100C400080918A0590918B050E947823CE010196B0
:100C50000E94FB26CE0143960E94FB2668960FB6A3
:100C6000F894DEBF0FBECDBFDF91CF910895CF9333
:100C7000DF9300D000D0CDB7DEB78091FC09909112
:100C8000FD09892B09F43FC0E0918805F0918905A1
:100C900082859385892B01F16DE174E086819781CE
:100CA0000E94E63E892BC1F46AEA74E0CE01019607
:100CB0000E940827BE016F5F7F4F80918805909149
:100CC00089050E947823CE0101960E94FB2687E1C8
:100CD00098E00E94B92417C06DE174E0CE0101963E
:100CE0000E940827BE016F5F7F4F80918805909119
:100CF00089050E947823CE0101960E94FB2687E198
:100D000098E00E94922326960FB6F894DEBF0FBE9D
:100D1000CDBFDF91CF9108953F924F925F926F9236
:100D20007F928F929F92AF92BF92CF92DF92EF927B
:100D3000FF920F931F93CF93DF93CDB7DEB76C97DE
:100D40000FB6F894DEBF0FBECDBFE090FC09F09067
:100D5000FD0987010F5F1F4FE016F10608F085C0FF
:100D600030900C068091A2059091A305A091A40556
:100D7000B091A505898F9A8FAB8FBC8F80909E050F
:100D800090909F05A090A005B090A10540909A0575
:100D900050909B0560909C0570909D052091FA09EC
:100DA0003091FB0920173107B0F5C70109962817C4
:100DB000390788F5D090F809C090F9099093FB099C
:100DC0008093FA092DE0DC012A9FC0012B9F900D32
:100DD00011240E9456388093F8099093F9094D2DFB
:100DE0005C2D9C0180E090E0E816F90681F0211569
:100DF000310539F06DE0FA01D90101900D926A9543
:100E0000E1F70196435F5F4F235F3F4FEDCF8D2D9D
:100E10009C2D0E94EE382091FC093091FD094DE097
:100E2000429FC001439F900D1124E091F809F09179
:100E3000F909E80FF91F20173107D0F4309789F02E
:100E4000898D9A8DAB8DBC8D80839183A283B38372
:100E500084829582A682B782408651866286738696
:100E600034862F5F3F4F3D96E6CF0E151F0520F4C9
:100E70001093FD090093FC096091FC097091FD0934
:100E8000CE010D960E94F41763EA74E0CE0101963C
:100E90000E940827BE016F5F7F4FCE0107960E9418
:100EA0000027BE01635F7F4FCE0107960E94CB17DC
:100EB000BC01CE0143960E940027CE0107960E94F6
:100EC000FB26CE0101960E94FB26CE010D960E94C4
:100ED000FB26BE016D5E7F4FCE0101960E9400276A
:100EE000BE016F5F7F4F80918A0590918B050E94B4
:100EF0007823CE0101960E94FB26CE0143960E94E4
:100F0000FB266C960FB6F894DEBF0FBECDBFDF9107
:100F1000CF911F910F91FF90EF90DF90CF90BF90F6
:100F2000AF909F908F907F906F905F904F903F9089
:100F30000895CF93DF9300D000D0CDB7DEB783E024
:100F400090E09093B5058093B4056FEA74E0CE010C
:100F500001960E940827BE016F5F7F4F80918C052C
:100F600090918D050E947823CE0101960E94FB2668
:100F70000E94282626960FB6F894DEBF0FBECDBF7E
:100F8000DF91CF910895CF93DF9300D000D0CDB7FC
:100F9000DEB782E090E09093B5058093B40566EBF0
:100FA00074E0CE0101960E940827BE016F5F7F4F5B
:100FB00080918C0590918D050E947823CE01019639
:100FC0000E94FB260E94282626960FB6F894DEBFC4
:100FD0000FBECDBFDF91CF910895CF93DF9300D0A7
:100FE00000D0CDB7DEB781E090E09093B505809357
:100FF000B4056FEB74E0CE0101960E940827BE0194
:101000006F5F7F4F80918C0590918D050E947823B2
:10101000CE0101960E94FB260E94282626960FB636
:10102000F894DEBF0FBECDBFDF91CF910895CF9270
:10103000DF92EF92FF920F931F93CF93DF93CDB781
:10104000DEB7E0970FB6F894DEBF0FBECDBF80913C
:10105000BC059091BD05069709F4E6C080910B068A
:10106000E091F809F091F9099DE0899FE00DF11DEB
:10107000112404811581268137814085518562853F
:1010800073858485C080D180E280F380C092A20500
:10109000D092A305E092A405F092A50500939E05C9
:1010A00010939F052093A0053093A10540939A05C6
:1010B00050939B0560939C0570939D0580930C064F
:1010C000CE0101960E94292564ED74E0CE010796B9
:1010D0000E94082740919E0550919F056091A005B0
:1010E0007091A105CE010D960E9429256EEC74E049
:1010F000CE0143960E9408274091A2055091A30576
:101100006091A4057091A505CE0149960E942925FC
:1011100065EC74E0CE0185960E940827BE016B5DE8
:101120007F4FCE014F960E940027BE01675E7F4F22
:10113000CE014F960E94CB17BE016D5E7F4F0E947D
:10114000CB17BE01635F7F4F0E94CB17BE01695F63
:101150007F4F0E94CB17BE016F5F7F4F0E94CB175E
:10116000BC01CE018B960E940027CE014F960E94B3
:10117000FB26CE0185960E94FB26CE0149960E9451
:10118000FB26CE0143960E94FB26CE010D960E94BF
:10119000FB26CE0107960E94FB26CE0101960E94F7
:1011A000FB268091B6059091B705019779F0809163
:1011B000B8059091B905019761F08091BA059091B9
:1011C000BB050197B9F482E090E005C080E090E0B3
:1011D00002C081E090E02AE1289FF001299FF00DF4
:1011E0001124E655F64FBE01655D7F4F80819181E8
:1011F0000E94D314CE018B960E94FB2686E090E0DD
:101200009093BD058093BC0515D980910B068F5F27
:1012100080930B0690E02091FC093091FD09821724
:10122000930711F410920B06E0960FB6F894DEBF08
:101230000FBECDBFDF91CF911F910F91FF90EF9027
:10124000DF90CF900895CF93DF93CDB7DEB7689747
:101250000FB6F894DEBF0FBECDBF6091C20570E03F
:101260008091C0059091C1050E94A83D611571054E
:1012700009F4CBC01092C1051092C0058091C5053C
:101280009091C6058330910541F18430910509F4B0
:1012900045C0029709F0B8C0072E000C880B990BC7
:1012A0000E94DF3B2091A2053091A3054091A40547
:1012B0005091A5050E940F3DAB01BC014093A205D2
:1012C0005093A3056093A4057093A505CE010196E4
:1012D0000E94292565EC74E041C0072E000C880BA4
:1012E000990B0E94DF3B20919E0530919F05409114
:1012F000A0055091A1050E940F3DAB01BC01409398
:101300009E0550939F056093A0057093A105CE01A3
:1013100001960E9429256BEC74E020C0072E000C7A
:10132000880B990B0E94DF3B20919A0530919B0519
:1013300040919C0550919D050E940F3DAB01BC0161
:1013400040939A0550939B0560939C0570939D056F
:10135000CE0101960E94292561ED74E0CE010D9623
:101360000E940827BE01635F7F4FCE0107960E944F
:101370000027BE016F5F7F4FCE0107960E94CB17FB
:10138000BC01CE0143960E940027CE0107960E9421
:10139000FB26CE010D960E94FB26CE0101960E94EF
:1013A000FB268091B6059091B705019779F0809161
:1013B000B8059091B905019761F08091BA059091B7
:1013C000BB050197E9F482E090E005C080E090E081
:1013D00002C081E090E023E030E03093BD0520932F
:1013E000BC052AE1289FF001299FF00D1124E65544
:1013F000F64FBE016D5E7F4F808191810E94D314B4
:10140000CE0143960E94FB2615D868960FB6F89435
:10141000DEBF0FBECDBFDF91CF910895CF93DF9395
:1014200000D000D0CDB7DEB78EE09AE00E949223C4
:101430004091AE055091AF056091B0057091B10536
:1014400080918605909187050E94AC184091AA056D
:101450005091AB056091AC057091AD05809184050C
:10146000909185050E94AC184091A6055091A70562
:101470006091A8057091A9058091820590918305DE
:101480000E94AC180E941A021092BD051092BC0571
:1014900067ED74E0CE0101960E940827BE016F5FE0
:1014A0007F4F8091B2059091B3050E947823CE01C1
:1014B00001960E94FB2626960FB6F894DEBF0FBE5B
:1014C000CDBFDF91CF910895CF92DF92EF92FF923F
:1014D0000F931F93CF93DF9300D000D0CDB7DEB72B
:1014E00084E69AE00E94922386EBC82E85E0D82EEF
:1014F00004E915E09AEAE92E99E0F92EF6018191C6
:1015000091916F010097A9F460EC73E0CE01019610
:101510000E940827BE016F5F7F4FF8018081918193
:101520000E947823CE0101960E94FB26F7011486C3
:101530001AC08130910519F462EE74E004C002977C
:1015400091F468EE74E0CE0101960E940827BE0176
:101550006F5F7F4FF801808191810E947823CE01D7
:1015600001960E94FB260E5F1F4FFAE1EF0EF11C61
:1015700085E00A39180711F61092BD051092BC05D6
:101580006EEE74E0CE0101960E940827BE016F5FE7
:101590007F4F8091B2059091B3050E947823CE01D0
:1015A00001960E94FB2626960FB6F894DEBF0FBE6A
:1015B000CDBFDF91CF911F910F91FF90EF90DF9002
:1015C000CF900895EF92FF920F931F93CF93DF93E5
:1015D00000D000D0CDB7DEB78091BC059091BD059D
:1015E000049709F44AC084E090E09093BD0580938D
:1015F000BC0569EF74E0CE0101960E940827BE0188
:101600006F5F7F4F8091B2059091B3050E94782360
:10161000CE0101960E94FB2686EBE82E85E0F82E8F
:101620000AEA19E0F701819191917F0181309105DA
:1016300089F466E075E0F801808191810E94462777
:101640006EE075E0F801808191810E94462767E194
:1016500075E004C0029739F460E275E0F80180811A
:1016600091810E944627065E1F4FF9E0083F1F0741
:10167000C9F68EE09AE00E94B92426960FB6F89437
:10168000DEBF0FBECDBFDF91CF911F910F91FF90B5
:10169000EF900895DF92EF92FF920F931F93CF93F5
:1016A000DF9300D000D0CDB7DEB78091BC0590911C
:1016B000BD050597C1F185E090E09093BD0580934D
:1016C000BC0568E275E0CE0101960E940827BE01C4
:1016D0006F5F7F4F8091B2059091B3050E94782390
:1016E000CE0101960E94FB260AEA19E086EBE82E5D
:1016F00085E0F82EDD24D394F801D486F701119209
:1017000011927F016CE673E0F801808191810E9463
:101710004627065E1F4FF9E0083F1F0769F784E67A
:101720009AE00E94B92426960FB6F894DEBF0FBE49
:10173000CDBFDF91CF911F910F91FF90EF90DF9080
:101740000895CF93DF9300D000D0CDB7DEB780915E
:10175000BC059091BD058230910509F45FC018F475
:10176000019749F0A1C08330910509F46DC0069737
:1017700009F496C099C08091B6059091B70501977C
:1017800079F08091B8059091B905019761F0809149
:10179000BA059091BB050197B1F482E090E005C0D5
:1017A00080E090E002C081E090E02AE1289FF00113
:1017B000299FF00D1124E655F64F67E175E0808111
:1017C00091810E94462765E375E0CE0101960E9453
:1017D0000827BE016F5F7F4F8091B2059091B305DE
:1017E0000E947823CE0101960E94FB2665E375E0F6
:1017F000CE0101960E940827BE016F5F7F4F809146
:10180000C3059091C4050E947823CE0101960E94E1
:10181000FB2689E792E00E94B92442C06BE375E0A1
:10182000CE0101960E940827BE016F5F7F4F809115
:10183000B2059091B3050E947823CE0101960E94D3
:10184000FB266BE375E01BC065E475E0CE010196F5
:101850000E940827BE016F5F7F4F8091B205909173
:10186000B3050E947823CE0101960E94FB26809149
:10187000C5059091C605029798F465E475E0CE0120
:1018800001960E940827BE016F5F7F4F8091C305BC
:101890009091C4050E947823CE0101960E94FB26F8
:1018A0001092BD051092BC0526960FB6F894DEBFC7
:1018B0000FBECDBFDF91CF9108950F931F93CF93AC
:1018C000DF93CDB7DEB768970FB6F894DEBF0FBED3
:1018D000CDBF8091BC059091BD05039709F476C0FA
:1018E00040919A0550919B0560919C0570919D05D2
:1018F000CE010D960E94292561ED74E0CE0101967E
:101900000E940827BE016F5F7F4FCE0107960E949D
:101910000027BE01635F7F4FCE0107960E94CB1761
:10192000BC01CE0143960E940027CE0107960E947B
:10193000FB26CE0101960E94FB26CE010D960E9449
:10194000FB268091B6059091B705019779F08091BB
:10195000B8059091B905019761F08091BA05909111
:10196000BB05019779F502E010E005C000E010E04A
:1019700002C001E010E083E090E09093BD05809309
:10198000BC0567E674E0CE0101960E940827BE01FF
:101990006F5F7F4F8091C3059091C4050E947823AB
:1019A000CE0101960E94FB268AE1809FF001819F73
:1019B000F00D1124E655F64FBE016D5E7F4F80811C
:1019C0009181F1D7CE0143960E94FB2668960FB60F
:1019D000F894DEBF0FBECDBFDF91CF911F910F9165
:1019E00008950F931F93CF93DF93CDB7DEB768971A
:1019F0000FB6F894DEBF0FBECDBF8091BC059091AD
:101A0000BD05039709F476C040919E0550919F054E
:101A10006091A0057091A105CE010D960E94292527
:101A20006BEC74E0CE0101960E940827BE016F5F47
:101A30007F4FCE0107960E940027BE01635F7F4F54
:101A4000CE0107960E94CB17BC01CE0143960E949F
:101A50000027CE0107960E94FB26CE0101960E9428
:101A6000FB26CE010D960E94FB268091B605909133
:101A7000B705019779F08091B8059091B905019764
:101A800061F08091BA059091BB05019779F502E06C
:101A900010E005C000E010E002C001E010E083E0CB
:101AA00090E09093BD058093BC0567E674E0CE019D
:101AB00001960E940827BE016F5F7F4F8091C3058A
:101AC0009091C4050E947823CE0101960E94FB26C6
:101AD0008AE1809FF001819FF00D1124E655F64FB9
:101AE000BE016D5E7F4F808191815DD7CE014396AF
:101AF0000E94FB2668960FB6F894DEBF0FBECDBFDE
:101B0000DF91CF911F910F9108950F931F93CF9362
:101B1000DF93CDB7DEB768970FB6F894DEBF0FBE80
:101B2000CDBF8091BC059091BD05039709F476C0A7
:101B30004091A2055091A3056091A4057091A5055F
:101B4000CE010D960E94292565EC74E0CE01019628
:101B50000E940827BE016F5F7F4FCE0107960E944B
:101B60000027BE01635F7F4FCE0107960E94CB170F
:101B7000BC01CE0143960E940027CE0107960E9429
:101B8000FB26CE0101960E94FB26CE010D960E94F7
:101B9000FB268091B6059091B705019779F0809169
:101BA000B8059091B905019761F08091BA059091BF
:101BB000BB05019779F502E010E005C000E010E0F8
:101BC00002C001E010E083E090E09093BD058093B7
:101BD000BC0567E674E0CE0101960E940827BE01AD
:101BE0006F5F7F4F8091C3059091C4050E94782359
:101BF000CE0101960E94FB268AE1809FF001819F21
:101C0000F00D1124E655F64FBE016D5E7F4F8081C9
:101C10009181C9D6CE0143960E94FB2668960FB6E5
:101C2000F894DEBF0FBECDBFDF91CF911F910F9112
:101C30000895CF93DF93CDB7DEB762970FB6F894D0
:101C4000DEBF0FBECDBF6091C20570E08091C005C0
:101C50009091C1050E94A83D8091C5059091C6054F
:101C600083309105F9F084309105A9F1029709F0CC
:101C70006FC0072E000C880B990B0E94DF3B209150
:101C8000A2053091A3054091A4055091A5050E949D
:101C90000F3DAB01BC01CE0107960E9429256FE4E0
:101CA00075E031C0072E000C880B990B0E94DF3BBA
:101CB00020919E0530919F054091A0055091A1056E
:101CC0000E940F3DAB01BC01CE0107960E94292561
:101CD0006BE575E018C0072E000C880B990B0E946D
:101CE000DF3B20919A0530919B0540919C055091D6
:101CF0009D050E940F3DAB01BC01CE0107960E94DD
:101D0000292567E675E0CE0101960E940827BE01ED
:101D1000695F7F4FCE0101960E94CB17BC01CE01B7
:101D20000D960E940027BE01635F7F4F8091C3051F
:101D30009091C4050E947823CE010D960E94FB2647
:101D4000CE0101960E94FB26CE0107960E94FB263B
:101D500062960FB6F894DEBF0FBECDBFDF91CF9174
:101D60000895CF93DF93C091AB08D091AC08E88180
:101D7000F9810084F185E02DCE011995892BB9F305
:101D8000E881F9810284F385E02DCE01DF91CF91C6
:101D900019941F93CF93DF93182FC091AB08D09164
:101DA000AC088A3041F4E881F9810190F081E02D9E
:101DB0006DE0CE011995E881F9810190F081E02D67
:101DC000612FCE01199521E030E0019711F420E058
:101DD00030E0C901DF91CF911F91089585ED809387
:101DE000BC008091BC0084FDFCCF1092C606089513
:101DF00040917006262F30E0240F311D213231052D
:101E0000DCF42091C6062430C9F4FC0180E090E0A7
:101E1000861758F4309170062191DC01A05BB94F10
:101E2000A30FB11D2C930196F3CF80917006680F1C
:101E30006093700680E0089581E0089582E008953F
:101E4000089508950895E091CA068091C906E8179B
:101E500030F4F0E0E05DF94F808190E008958FEF7D
:101E60009FEF08959091CA068091C906981750F483
:101E7000E92FF0E0E05DF94F208130E09F5F909323
:101E8000CA0602C02FEF3FEFC90108958091C9062D
:101E900090E02091CA06821B91090895CF92DF92AB
:101EA000EF92FF920F931F93CF93DF937C01CB01AF
:101EB0008A0120912F06222389F0EB016B01C40EC9
:101EC000D51ECC15DD0561F06991D701ED91FC912E
:101ED0000190F081E02DC7011995F3CF642F88DFC1
:101EE000C801DF91CF911F910F91FF90EF90DF908C
:101EF000CF900895CF93DF931F92CDB7DEB769835C
:101F000020912F062223D1F02091C706203240F0E5
:101F100021E030E0FC013383228380E090E014C0B4
:101F20008091C806E82FF0E0E15FF94F9981908336
:101F30008F5F8093C8068093C70604C061E0CE011E
:101F4000019656DF81E090E00F90DF91CF910895E8
:101F5000089508950C94EE38CF93DF93EC010E941E
:101F6000FF03CE01DF91CF910C94EE3808951F92BC
:101F70000F920FB60F9211240BB60F922F933F932F
:101F80004F935F936F937F938F939F93AF93BF9381
:101F9000EF93FF938091B900887F803609F49CC04D
:101FA00068F5883209F45BC090F4803109F454C0BC
:101FB00038F4882309F4F6C0883009F44DC0F5C020
:101FC000883109F44CC0803209F45DC0EEC0803421
:101FD00009F468C048F4803309F455C0883309F027
:101FE000E4C080939306D8C0803509F44FC088358B
:101FF00009F45DC0883409F0D8C0D6C0883909F426
:10200000C7C0A8F4883709F467C038F4883609F4E3
:1020100063C0803709F460C0C8C0883809F4B8C00C
:10202000803909F45FC0803809F0BFC05BC0803BD5
:1020300009F486C038F4803A09F466C0883A09F495
:102040007FC0B3C0803C09F4A7C0883C09F4A4C099
:10205000883B09F48AC0A9C08091B60610C090914F
:10206000B5068091B406981770F5E091B50681E049
:102070008E0F8093B506F0E0EC56F94F8081809387
:10208000BB0085EC86C0809393068EC0E091B506B8
:1020900081E08E0F8093B5068091BB00F0E0EC5696
:1020A000F94F80839091B5068091B4066EC0E0919F
:1020B000B50681E08E0F8093B5068091BB00F0E0FD
:1020C000EC56F94F80838091C50681116DC081E087
:1020D0008093C40684EA61C083E08093C6061092B0
:1020E0009206CFCF80919206803208F051C0E091E5
:1020F000920681E08E0F809392068091BB00F0E003
:10210000EE58F94F8083BDCF85EC8093BC001092D0
:10211000C60680919206803230F4E0919206F0E09B
:10212000EE58F94F10826091920670E0E091C0067F
:10213000F091C10682E796E019951092920635C09B
:1021400084E08093C6061092710610927006E091AA
:10215000C206F091C306199580917006811105C0E1
:1021600081E08093700610925006E091710681E044
:102170008E0F80937106F0E0E05BF94F80818093D1
:10218000BB009091710680917006981708F479CF82
:1021900085E88093BC0009C085EC8093BC00109258
:1021A000C60603C01092930619DEFF91EF91BF910E
:1021B000AF919F918F917F916F915F914F913F91DF
:1021C0002F910F900BBE0F900FBE0F901F90189580
:1021D0001F920F920FB60F9211240BB60F922F93EE
:1021E0003F934F935F936F937F938F939F93AF939F
:1021F000BF93EF93FF9386E08093B20080915A09DA
:10220000882309F47CC080915D0990915E09019654
:1022100090935E0980935D0920915F093091600978
:102220008217930708F46BC010925E0910925D0943
:1022300080916109E0915809F091590937E0839F35
:10224000E00DF11D11248681882321F00190F08199
:10225000E02D199530915A098091580990915909AA
:1022600060915F0970916009DC01FC0120E0321788
:1022700061F04681442331F044815581461B570B60
:10228000558344832F5F3796F2CF20916109FC017B
:1022900047E0249FE00DF11D1124428153815583B5
:1022A00044831092610921E02317D8F41D964C91C4
:1022B0001D97442399F040916109FC0157E0459F27
:1022C000E00DF11D11241B966D917C911C974481AA
:1022D00055816417750710F4209361092F5F1796D5
:1022E000E3CF20916109FC0137E0239FE00DF11D50
:1022F0001124848195819093600980935F09FF91F7
:10230000EF91BF91AF919F918F917F916F915F916D
:102310004F913F912F910F900BBE0F900FBE0F90DA
:102320001F901895CF93FC01C48121E020932F06C4
:10233000C0930D061092C8061092C7068385682BBD
:102340008CE499E0D7DD9091C706913208F045C042
:102350008091C6068111FCCF82E08093C60681E0A1
:102360008093C5068FEF809393061092B5069093E5
:10237000B406AFE0B6E0E4E9F6E080E0981721F0BB
:102380002D9121938F5FFACF1092B6068091B606F9
:10239000CC0FC82BC093B6068091C406813061F47F
:1023A0001092C4068091B6068093BB008091BC0059
:1023B00083FDF8CF85EC01C085EE8093BC00809151
:1023C000C6068230E1F3809193068F3F31F0809111
:1023D0009306803211F0809193061092C8061092F5
:1023E000C70610922F06CF9108950F931F93CF9396
:1023F0008C01C62F97DF6C2F6460C80193DF6C2FB0
:102400006B7FC8018FDF83EC90E00197F1F7CF91EC
:102410001F910F9108950F931F93CF938C01C62F97
:10242000607F6160E2DF80E1C89FB00111246160DC
:10243000C801DBDF81E090E0CF911F910F910895FB
:102440000F931F93CF938C01C62F607FCEDF80E167
:10245000C89FB0011124C801CF911F910F91C5CF22
:1024600061E0EEDF8BE39FE10197F1F7089520E44F
:1024700032E0FC01318320830C94E503CF93DF939A
:10248000EC01F5DFCE01DF91CF910C94EE382AE418
:1024900032E0FC01318320830C94E503CF93DF937A
:1024A000EC01F5DFCE01DF91CF910C94EE380F9364
:1024B0001F93CF93DF938C01FC01C085D1852097BA
:1024C000D9F0FE013297208131814CE0429FC0015A
:1024D000439F900D1124C80FD91FCE01F80120850C
:1024E00031852C978217930721F0CE010E94FB269D
:1024F000F4CF02970E94EE38C8014496DF91CF9145
:102500001F910F910C94FB268F929F92AF92BF92D6
:10251000CF92DF92EF92FF920F931F93CF93DF93AF
:10252000CDB7DEB76A970FB6F894DEBF0FBECDBF4A
:10253000DC011C962C91222309F4FCC18C016C0156
:10254000B4E1CB0ED11CF80180819181DC01ED91C9
:10255000FC910084F185E02D1995892BE9F1F801B2
:1025600080819181DC01ED91FC910284F385E02D65
:102570001995F82EF80183858823C9F0828193810B
:10258000009719F06F2D0E941C27D80114968D9189
:102590009C911597009719F06F2D0E941C27F80148
:1025A00086819781009719F06F2D0E941C27FAE011
:1025B000FF1205C081E0D80153968C930DC0BDE099
:1025C000FB1609F2F9821A8241E050E0BE016F5F0A
:1025D0007F4FC601B2D4B7CFF801A388AA2009F46F
:1025E000A9C1B12CC80144966C01D8011A968C91EE
:1025F000B81608F0BDC0BCE0BB9E70011124D80124
:102600001896ED91FC911997EE0DFF1D24813581EF
:1026100040E050E0B601CE0101960E94571CD8015F
:102620001896ED91FC911997EE0DFF1D24813581CF
:102630008D819E812817390721F5808191816981DB
:102640007A81009719F061157105A9F4611571057A
:1026500051F02115310539F0FB01808190E0919511
:10266000819591090AC0009771F0232B61F0DC017C
:102670008C9190E002C00E94E63E99249394892BAD
:1026800019F0912C01C09A2CCE0101960E94FB26D4
:10269000992009F46BC0D8011896ED91FC91199717
:1026A000EE0DFF1D808491848114910409F15896E8
:1026B0002D913C915997448155814F5F5F4FB601F1
:1026C000CE0101960E94571C89819A81009719F0CA
:1026D0000E94563603C060E070E0CB01F4016083D5
:1026E000718382839383CE0101960E94FB263EC0B4
:1026F000828593850097A1F167E775E05ED4D801E4
:102700001896ED91FC911997EE0DFF1D8480958030
:10271000BFEF8B1A9B0AF801808D918D8816990660
:1027200028F50488F589E02D309729F410920E06DB
:10273000EEE0F6E002C0E80DF91D2081D801189600
:10274000ED91FC911997EE0DFF1D828593852983EC
:102750001A8241E050E0BE016F5F7F4FEED3D8CFC9
:102760000680F781E02D309709F01995B3943DCF9D
:10277000F80185859685892B09F4D6C067E775E051
:10278000CE0143960E94082741E050E063E775E0E0
:10279000C601D3D3E12CF12C912CD80158968D9100
:1027A0009C915997E816F90608F073C054968D91DC
:1027B0009C915597009729F410920E06EEE0F6E0F2
:1027C00003C0FC01EE0DFF1D20812C32D1F52F89B5
:1027D000388D2115310509F458C0EB89FC898081B9
:1027E000882309F452C0A92CB12C41E050E0BE016D
:1027F0006D5E7F4FCE010D960E94571C8D859E8584
:10280000009719F00E94563603C060E070E0CB01DB
:10281000AA0CBB1CAA0CBB1CE1E0F0E0EC0FFD1FF6
:10282000EA0DFB1D6083718382839383CE010D9635
:102830000E94FB2667E775E0CE014396BED39394D2
:1028400024C0009729F410920E06EEE0F6E003C0D3
:10285000FC01EE0DFF1D80811E861D86188A1F86D5
:102860001A8A198A898F1A8EBE01675E7F4FCE0140
:102870000D96A3D349895A896D857E85CE014396ED
:102880005CD3CE010D960E94FB26BFEFEB1AFB0A2C
:1028900084CFE3E09E1244C0D8011D96ED91FC91D7
:1028A0001E9789819A81AB81BC8180839183A283A9
:1028B000B383D8011F96ED91FC9150978D819E8135
:1028C000AF81B88580839183A283B383F801E188C7
:1028D000F28889849A84AB84BC8420E030E0A9012A
:1028E000C501B4010E94D93B18163CF0A501940122
:1028F00060E070E080E09FE307C0C501B40190583C
:1029000020E030E040E05FE30E940E3D0E94733D16
:102910000E94DF3BD7016D937D938D939C9313971A
:10292000CE0143960E94FB2667E775E0C60145D3BA
:10293000F801138A6A960FB6F894DEBF0FBECDBFBA
:10294000DF91CF911F910F91FF90EF90DF90CF908B
:10295000BF90AF909F908F900895CF93DF93282FD3
:1029600030E0F901E350FD4F8491F901E954FD4F46
:10297000D491F901EF58FD4FC491CC2389F0811116
:102980000E941221EC2FF0E0EE0FFF1FE95AFD4FDD
:10299000A591B4918FB7F894EC91ED2BEC938FBF88
:1029A000DF91CF9108950F931F93CF93DF93EC01A5
:1029B0000E9423278C0165E775E0CE010E94312734
:1029C000800F911FDF91CF911F910F910895CF93A9
:1029D000DF93EC01FB01808191819983888382815F
:1029E00093819B838A83848195819D838C83868157
:1029F00097819F838E83808591859987888782853B
:102A00008A8783858B8784858C87858596859E8735
:102A10008D8787859089988B8F87818992899A8BFA
:102A2000898B83898B8B6C5E7F4FCE0144960E948D
:102A3000E626CE01DF91CF910895EF92FF920F939A
:102A40001F93CF93DF937C01009169090F5F00937F
:102A5000690910E0C801880F991F0E945638EC01DF
:102A6000809167099091680940E001501109242F75
:102A700030E02017310774F4220F331FFC01E20FFE
:102A8000F31F60817181FE01E20FF31F7183608388
:102A90004F5FEDCF009711F00E94EE38D093680998
:102AA000C093670920916909CE01820F911D820FA1
:102AB000911DFC013297F182E082DF91CF911F914D
:102AC0000F91FF90EF9008950F931F93CF93DF9393
:102AD0008C0184E899E0909363098093620981E016
:102AE000809366099FEF9093640990936509109213
:102AF000CA061092C9061092C8061092C706109214
:102B0000C6068093C5061092C40684E126DF85E1DF
:102B100024DF8091B9008E7F8093B9008091B90045
:102B20008D7F8093B90088E48093B80085E480931A
:102B3000BC0080E29FE09093C3068093C20681E2CE
:102B40009FE09093C1068093C006109289098091FE
:102B50008E09823018F098E09093890980938C094F
:102B600062E370E080E090E00E94902160918F0924
:102B700084E899E0D7DB68EE73E080E090E00E94A3
:102B8000902160E384E899E030DCCBE4D6E4CE0128
:102B90000197F1F760E384E899E027DC2197F1F7EA
:102BA00060E384E899E021DC83E592E00197F1F7A6
:102BB00060E284E899E019DC60918909606284E848
:102BC00099E03EDC84E080938A096CE084E899E037
:102BD00037DC84E899E044DC82E080938B0966E08E
:102BE00084E899E02DDC62E084E899E029DC8BE35D
:102BF0009FE10197F1F7809162099091630928E0C4
:102C0000FC01238760E08EDB80916209909163096B
:102C10000E94EC2340E060E080916209909163099A
:102C20000E94A623B80180916209909163090E94D5
:102C3000232768EE73E080E090E00E94902180916D
:102C40006209909163090CDC8FEF80937F09DF911B
:102C5000CF911F910F910895CF92DF92EF92FF9243
:102C60000F931F93CF93DF937C018B0180915A09BF
:102C70008F5F80935A09C82ED12C27E0829FC00114
:102C800011240E945638EC01FC01A60181E091E07C
:102C9000C91AD10820F490E04150510909C01182AD
:102CA0001082138212821582148286833796EFCFA8
:102CB000292F30E0E0915809F09159092417350780
:102CC00084F487E0989F90011124DE01A20FB31FC6
:102CD000E20FF31F87E001900D928A95E1F79F5F65
:102CE000E7CF309719F0CF010E94EE38D093590901
:102CF000C093580980915A0997E0899FC00DD11D52
:102D000011242797F982E8821B830A831D830C8391
:102D100081E08E8380915F0990916009009719F09E
:102D20000817190720F41093600900935F09DF91D9
:102D3000CF911F910F91FF90EF90DF90CF9008956A
:102D4000CF93DF9390E0FC01E954FD4F2491FC0107
:102D5000EF58FD4F84918823C1F090E0880F991FB0
:102D6000FC01E35CFD4FC591D491FC01E95AFD4F94
:102D7000A591B4919FB7F8948881322F3095832321
:102D80008883EC91E22BEC939FBFDF91CF91089564
:102D90008F929F92AF92BF92CF92DF92EF92FF926B
:102DA0000F931F93CF93DF939091B7062091B806AE
:102DB0003091B906C0E09C1709F471C02D5F3F4FF8
:102DC000F9013397408148132CC00E946821D0E05C
:102DD000892B49F1CE01880F991F880F991F009107
:102DE000BA061091BB06080F191F0E94C821F801EE
:102DF0006083718382839383E091BE06F091BF0666
:102E0000EC0FFD1F81E08083CC0FDD1F8091BC069D
:102E10009091BD06C80FD91F88EE93E099838883EF
:102E20003EC0CF5FC8CF0E94C8217E01EE0CFF1CC0
:102E3000EE0CFF1CE091BC06F091BD069E01220F36
:102E4000331FE20FF31FA091BA06B091BB06AE0D7F
:102E5000BF1D0D911D912D913C915B016C01A01A3C
:102E6000B10AC20AD30A4081518160E070E08091CA
:102E7000BE069091BF064A155B056C057D0548F4BA
:102E800021E0DC01AC0FBD1F2C9324E630E0318340
:102E90002083FC01EC0FFD1F1081111102C010E016
:102EA00025C00E94C8212091BA063091BB06E20ECF
:102EB000F31EF70180809180A280B380DC01CB01FA
:102EC00088199909AA09BB09C297A105B10538F368
:102ED0000E94C821F701608371838283938380916C
:102EE000BE069091BF06C80FD91F1882812FDF91AF
:102EF000CF911F910F91FF90EF90DF90CF90BF90F7
:102F0000AF909F908F900895FC01A089B1898C911A
:102F1000A689B78982FD0FC09C91818D8F5F8F73C9
:102F2000228D821749F0218DDF01A20FB11D5D9620
:102F30009C93818F08958C910895EF92FF920F9347
:102F40001F93CF93DF936115710511F480E01CC0CE
:102F500041155105C1F07B01EC018C819D818A01F5
:102F6000080F191FB801CE010E948E26882371F325
:102F7000288139818C819D81B701820F931F0E9426
:102F8000EF3E1D830C8381E0DF91CF911F910F9164
:102F9000FF90EF900895CF93DF93EC01FB01448104
:102FA000558160817181C9DF811103C0CE010E940A
:102FB000B526CE01DF91CF910895CF93DF93EC0139
:102FC0006115710559F0FB0101900020E9F7319777
:102FD000AF01461B570B0E94C72602C00E94B526B0
:102FE000CE01DF91CF9108950F931F93CF93DF937D
:102FF000CDB7DEB761970FB6F894DEBF0FBECDBF79
:103000008C01CB01F8011182108213821282158289
:1030100014824AE0BE016F5F7F4F0E946336BE019B
:103020006F5F7F4FC801C9DF61960FB6F894DEBFAE
:103030000FBECDBFDF91CF911F910F910895AF9239
:10304000BF92CF92DF92FF920F931F93CF93DF93A4
:10305000CDB7DEB72C970FB6F894DEBF0FBECDBF4D
:103060008C015B0167E775E0CE0107960E94082797
:10307000F801238D348D458D568D6789708D818D36
:10308000928D0E94A43D1816A4F5F12CF8016789D1
:10309000708D818D928D0E94733DCE0101960E94AC
:1030A0005925CD80DE80F50184819581C81AD90A21
:1030B000CE0101960E94FB268F2D90E08C159D0578
:1030C000C0F4BE01695F7F4FCE0101960E940027C8
:1030D00065E774E0CE0101960E94D423BC01CE01C5
:1030E00007960E94E626CE0101960E94FB26F394E5
:1030F000CDCF6801F6E0CF0ED11CB601C8010C9609
:103100000E94E626BE01695F7F4FCE0101960E94B4
:103110000027B501CE0101963EDFBC01C6010E9429
:10312000E626CE0101960E94FB2681E0F80183830A
:10313000CE0107960E94FB262C960FB6F894DEBFB0
:103140000FBECDBFDF91CF911F910F91FF90DF9008
:10315000CF90BF90AF9008958F929F92AF92BF9201
:10316000CF92DF92EF92FF920F931F93CF93DF9353
:1031700000D000D0CDB7DEB78C016A017B01FC0125
:1031800045A356A367A370A7CB01BA010E94733D64
:103190004B015C01072E000C880B990B0E94DF3B52
:1031A0009B01AC01C701B6010E940E3D20E030E05A
:1031B000A9010E94D93B811106C0B401CE0101963C
:1031C0000E94592506C0B701A601CE0101960E94B2
:1031D0002925BE016F5F7F4FC80131DFCE01019607
:1031E0000E94FB2626960FB6F894DEBF0FBECDBF19
:1031F000DF91CF911F910F91FF90EF90DF90CF90D3
:10320000BF90AF909F908F9008956F927F928F9212
:103210009F92AF92BF92CF92DF92EF92FF920F9365
:103220001F93CF93DF9300D000D0CDB7DEB76C01F2
:103230003B015A01122F8EE592E0F60191838083C3
:1032400081E08283138267E775E0C60106960E94DB
:10325000082767E775E0C6010C960E940827F3016E
:10326000848083948482912CC401880F991F0E94CA
:1032700056387C0140E0F1E08F1A9108242F30E0AD
:10328000F301828193812815390574F4220F331FCD
:10329000FC01E20FF31F80819181F701E20FF31F20
:1032A000918380834F5FEACF009711F00E94EE3840
:1032B000F301F382E2822481C701820F911D820F04
:1032C000911DFC013297D182C082B501CE010196D9
:1032D0000E940027BE016F5F7F4FC6010E947823C6
:1032E000CE0101960E94FB26F601148305832696E3
:1032F0000FB6F894DEBF0FBECDBFDF91CF911F9107
:103300000F91FF90EF90DF90CF90BF90AF909F9084
:103310008F907F906F900895CF92DF92EF92FF92FF
:103320000F931F93CF93DF9300D000D0CDB7DEB7BC
:103330007C016B01122FBA01CE0101960E94002779
:10334000212FAE014F5F5F4FB601C7015EDFCE0197
:1033500001960E94FB2684E592E0F7019183808329
:10336000138A128A26960FB6F894DEBF0FBECDBF21
:10337000DF91CF911F910F91FF90EF90DF90CF9051
:103380000895CF92DF92EF92FF920F931F93CF9306
:10339000DF9300D000D0CDB7DEB77C016B01122FD8
:1033A000BA01CE0101960E940027212FAE014F5F86
:1033B0005F4FB601C70129DFCE0101960E94FB26AF
:1033C00080E492E0F7019183808326960FB6F8940B
:1033D000DEBF0FBECDBFDF91CF911F910F91FF9048
:1033E000EF90DF90CF900895CF92DF92EF92FF920F
:1033F0000F931F93CF93DF9300D000D0CDB7DEB7EC
:103400007C016B01122FBA01CE0101960E940027A8
:10341000212FAE014F5F5F4FB601C701F6DECE012F
:1034200001960E94FB2686E392E0D7018D939C9340
:1034300086E090E00E945638FC0186E0DF011D9294
:103440008A95E9F71482158286E292E0918380835F
:10345000D7015396FC93EE93529726960FB6F894A5
:10346000DEBF0FBECDBFDF91CF911F910F91FF90B7
:10347000EF90DF90CF900895CF92DF92EF92FF927E
:103480000F931F93CF93DF9300D000D0CDB7DEB75B
:103490007C016B01142F022F67E775E0CE010196C6
:1034A0000E940827212FAE014F5F5F4FB601C70171
:1034B000ACDECE0101960E94FB268AE492E0F70181
:1034C00091838083178A108E118E128E138E148E24
:1034D000158E168E80E090E0A0E8BFE3828B938B80
:1034E000A48BB58B15A216A217A210A660E070E0FF
:1034F000CE0101960E945925BE016F5F7F4FC70123
:103500009EDDCE0101960E94FB26F701168A10A2CD
:10351000178E12A211A214A213A226960FB6F89427
:10352000DEBF0FBECDBFDF91CF911F910F91FF90F6
:10353000EF90DF90CF9008957F928F929F92AF92FD
:10354000BF92CF92DF92EF92FF920F931F93CF9390
:10355000DF93EC015B016A018A858F5F8A87082F00
:1035600010E02CE0829FC001112402960E94563880
:10357000FC01019311937F014F010115110511F415
:10358000712C10C067E775E0C4010E940827F401A0
:103590001782168211861086FCE08F0E911C015056
:1035A0001109EBCF272D30E08A8590E0019708853F
:1035B00019852817390704F52CE0729E4001112463
:1035C000080D191D8E0C9F1CB801C4010E94E6262F
:1035D000F80186819781F40197838683F8018085BD
:1035E0009185F40191878087F80182859385F401A4
:1035F000938782877394D6CF01151105D9F0F8010E
:103600003297208131814CE0429FC001439F900D51
:103610001124080F191F98010C50110988859985EC
:103620008217930721F0C8010E94FB26F4CF02976E
:103630000E94EE38F986E8868A8597014CE0849FDF
:10364000200D311D1124C901B5010C970E94E626F9
:10365000888599852A85FC013CE0239FE00DF11DBA
:1036600011243C97D186C0862A85FC014CE0249F1A
:10367000E00DF11D11243C97178216822A85ECE09B
:103680002E9F800D911D1124FC013C9713861286FC
:10369000DF91CF911F910F91FF90EF90DF90CF902E
:1036A000BF90AF909F908F907F9008957F928F9260
:1036B0009F92AF92BF92CF92DF92EF92FF920F93C1
:1036C0001F93CF93DF93EC015B016A018A858F5FC3
:1036D0008A87082F10E02CE0829FC00111240296F7
:1036E0000E945638FC01019311937F014F0101158F
:1036F000110511F4712C10C067E775E0C4010E9438
:103700000827F4011782168211861086FCE08F0EBE
:10371000911C01501109EBCF272D30E08A8590E0F4
:103720000197088519852817390704F52CE0729E42
:1037300040011124080D191D8E0C9F1CB801C401F5
:103740000E94E626F80186819781F401978386839B
:10375000F80180859185F40191878087F801828541
:103760009385F401938782877394D6CF0115110551
:10377000D9F0F8013297208131814CE0429FC0019D
:10378000439F900D1124080F191F98010C50110927
:10379000888599858217930721F0C8010E94FB262E
:1037A000F4CF02970E94EE38F986E8868A85970161
:1037B0004CE0849F200D311D1124C901B5010C97E7
:1037C0000E94E626888599852A85FC013CE0239F96
:1037D000E00DF11D11243C97D782C6822A85FC0199
:1037E0004CE0249FE00DF11D11243C9711861086BA
:1037F0002A85ECE02E9F800D911D1124FC013C9741
:1038000013861286DF91CF911F910F91FF90EF9059
:10381000DF90CF90BF90AF909F908F907F90089552
:10382000EF92FF920F931F93CF93DF9300D000D0BE
:10383000CDB7DEB78C017B01FC01138212821582A9
:10384000148217821682128616861586108A1786AB
:10385000128A118A67E775E044960E940827F801EA
:10386000F182E08240E855E260E070E0C7010E942A
:10387000820367E775E0CE0101960E940827F801F0
:10388000138681E08487128611861086CE01019608
:103890000E94FB2626960FB6F894DEBF0FBECDBF62
:1038A000DF91CF911F910F91FF90EF900895BF92FC
:1038B000CF92DF92EF92FF920F931F93CF93DF93FC
:1038C0007C016B018A01E9012417350720F4812F5F
:1038D0008901C42FD82F67E775E0C7010E94082728
:1038E000D60114968D919C91159708171907C0F46D
:1038F0008C179D0708F4EC01D601ED91FC9111970E
:10390000EC0FFD1FB08010826D917C91600F711FD4
:10391000C70153DBD601ED91FC91EC0FFD1FB08286
:10392000C701DF91CF911F910F91FF90EF90DF9032
:10393000CF90BF900895FC01538D448D252F30E02A
:10394000842F90E0821B930B541710F0CF960895AC
:1039500001970895FC01918D828D981761F0828DF9
:10396000DF01A80FB11D5D968C91928D9F5F9F73B3
:10397000928F90E008958FEF9FEF0895FC01918D55
:10398000828D981731F0828DE80FF11D858D90E0C2
:1039900008958FEF9FEF0895FC01918D228D892F5F
:1039A00090E0805C9F4F821B91098F739927089547
:1039B00084ED96E0F1DF21E0892B09F420E0822FED
:1039C000089581E797E0E8DF21E0892B09F420E002
:1039D000822F08958EE098E0DFDF21E0892B09F443
:1039E00020E0822F08958FEA98E0D6DF21E0892B2E
:1039F00009F420E0822F0895FC01848DDF01A80FD7
:103A0000B11DA35ABF4F2C91848D90E001968F7306
:103A10009927848FA689B7892C93A089B1898C9125
:103A2000837080648C93938D848D981306C0028874
:103A3000F389E02D80818F7D80830895EF92FF923E
:103A40000F931F93CF93DF93EC0181E0888F9B8DC1
:103A50008C8D981305C0E889F989808185FD25C082
:103A6000F62E0B8D10E00F5F1F4F0F731127E02E06
:103A70008C8DE8120BC00FB607FCFACFE889F989E4
:103A8000808185FFF5CFCE01B7DFF2CF8B8DFE01B0
:103A9000E80FF11DE35AFF4FF0829FB7F8940B8FA8
:103AA000EA89FB89808180620AC09FB7F894EE8919
:103AB000FF896083E889F9898081837080648083CD
:103AC0009FBF81E090E0DF91CF911F910F91FF9018
:103AD000EF900895CF93DF93EC01888D8823C1F098
:103AE000EA89FB89808185FD05C0A889B9898C9107
:103AF00086FD0EC00FB607FCF5CF808185FFF2CFA3
:103B0000A889B9898C9185FFEDCFCE0175DFE8CF0B
:103B1000DF91CF91089580E090E0892B19F063DF69
:103B2000811116C080E090E0892B19F053DF8111DC
:103B300012C080E090E0892B19F043DF81110EC0A4
:103B400080E090E0892B79F033DF81110AC008957D
:103B50000E940000E7CF0E940000EBCF0E9400000F
:103B6000EFCF0C94000008953FB7F8948091D006F1
:103B70009091D106A091D206B091D30626B5A89B0C
:103B800005C02F3F19F00196A11DB11D3FBFBA2FEF
:103B9000A92F982F8827820F911DA11DB11DBC014F
:103BA000CD0142E0660F771F881F991F4A95D1F714
:103BB00008950895CB0108957F928F929F92AF92BE
:103BC000BF92CF92DF92EF92FF920F931F93CF930A
:103BD000DF93EC0149015A018B01C12CD12C7601F4
:103BE000C814D904EA04FB0484F5F80171908F012C
:103BF0008F8580FF0BC0E881F9810084F185E02D7D
:103C000020E144E060E070E0CE011995EB85FC8591
:103C10008D859E85E817F90738F470828B859C8521
:103C200001969C878B870BC0672D70E0E881F98136
:103C3000028CF38DE02DCE011995019649F02FEFFE
:103C4000C21AD20AE20AF20ACBCFB401C50102C0FD
:103C5000B601C701DF91CF911F910F91FF90EF90B7
:103C6000DF90CF90BF90AF909F908F907F900895FE
:103C7000CF93DF93EC01E881F9810288F389E02D8D
:103C800019958F3F2FEF920731F02D813E812F5FE5
:103C90003F4F3E832D83DF91CF9108958FEF9FEFAC
:103CA000089560E070E0CB01089580E090E0089511
:103CB000CF93DF93EC0188899989DC01ED91FC9128
:103CC0000084F185E02D1995892BA9F388899989BC
:103CD000DC01ED91FC910284F385E02DDF91CF9121
:103CE0001994CF93DF93EC0188899989DC01ED91D8
:103CF000FC910084F185E02D1995892BA9F3888921
:103D00009989DC01ED91FC910484F585E02DDF912A
:103D1000CF9119948F929F92AF92BF92CF92DF92E0
:103D2000EF92FF920F931F93CF93DF938C01490182
:103D30005A01EB01C12CD12C7601D80150968D91FE
:103D40009C915197DC01ED91FC910284F385E02D6B
:103D500019958F3F61F0C814D904EA04FB043CF4C0
:103D60008993BFEFCB1ADB0AEB0AFB0AE6CFC70148
:103D7000B601DF91CF911F910F91FF90EF90DF90EF
:103D8000CF90BF90AF909F908F900895DC01509698
:103D90008D919C915197DC01ED91FC910084F1850E
:103DA000E02D199480E090E0089580E090E008957F
:103DB00080E090E0089508950E94D93E0F931F93EC
:103DC000CF93DF936F3F2FEF720719F480E090E0FD
:103DD00011C0EB018C016A3031F46DE0F80180898B
:103DE00091890E941C276C2FF801808991890E947B
:103DF0001C27CE01DF91CF911F910F9108957F92E3
:103E00008F929F92AF92BF92CF92DF92EF92FF92EA
:103E10000F931F93CF93DF938C0149015A01EB015C
:103E2000C12CD12C7601C814D904EA04FB04A4F4F3
:103E300079908AE0781205C06DE0F8018089918957
:103E4000FBD7672DF80180899189F6D7FFEFCF1A4C
:103E5000DF0AEF0AFF0AE7CFC501B401DF91CF9176
:103E60001F910F91FF90EF90DF90CF90BF90AF9098
:103E70009F908F907F900895A6E4B3E01296ED9105
:103E8000FC911397369720813181820F931F1496EE
:103E90002D913C911597FC01318320830895DC011D
:103EA000ED91FC91369720813181820F931FE4CFF1
:103EB000CF93DF93EC01E0DFCE01DF91CF910C9443
:103EC000EE38DC01ED91FC91369720813181820F33
:103ED000931FEECFAEECB2E01296ED91FC911397EA
:103EE000369720813181820F931F14962D913C913A
:103EF0001597FC01318320830895DC01ED91FC913D
:103F0000369720813181820F931FE4CFCF93DF93C7
:103F1000EC01E0DFCE01DF91CF910C94EE38DC01B3
:103F2000ED91FC91369720813181820F931FEECF66
:103F30000C94EE38089508950C94EE38DC01ED9160
:103F4000FC91369720813181820F931FF5CF0C941D
:103F5000EE38CF93DF93EC010E94A90FCE01DF91E1
:103F6000CF910C94EE38DC01ED91FC9136972081D5
:103F70003181820F931FEDCFDC01ED91FC913697DB
:103F800020813181820F931F0C94A90F1F920F92F1
:103F90000FB60F9211240BB60F922F933F934F93AE
:103FA0005F936F937F938F939F93AF93BF93EF93A1
:103FB000FF9384ED96E020DDFF91EF91BF91AF91EB
:103FC0009F918F917F916F915F914F913F912F9131
:103FD0000F900BBE0F900FBE0F901F9018951F9261
:103FE0000F920FB60F9211240BB60F922F933F939F
:103FF0004F935F936F937F938F939F93AF93BF93F1
:10400000EF93FF9384ED96E00E948417FF91EF9168
:10401000BF91AF919F918F917F916F915F914F91E0
:104020003F912F910F900BBE0F900FBE0F901F90DE
:1040300018951F920F920FB60F9211240BB60F9284
:104040002F933F934F935F936F937F938F939F93A0
:10405000AF93BF93EF93FF9381E797E0CDDCFF91A0
:10406000EF91BF91AF919F918F917F916F915F91F0
:104070004F913F912F910F900BBE0F900FBE0F905D
:104080001F9018951F920F920FB60F9211240BB626
:104090000F922F933F934F935F936F937F938F93E1
:1040A0009F93AF93BF93EF93FF9381E797E00E94B5
:1040B0008417FF91EF91BF91AF919F918F917F9165
:1040C0006F915F914F913F912F910F900BBE0F9089
:1040D0000FBE0F901F9018951F920F920FB60F9260
:1040E00011240BB60F922F933F934F935F936F93CF
:1040F0007F938F939F93AF93BF93EF93FF938EE044
:1041000098E07ADCFF91EF91BF91AF919F918F91F1
:104110007F916F915F914F913F912F910F900BBEC7
:104120000F900FBE0F901F9018951F920F920FB611
:104130000F9211240BB60F922F933F934F935F93DF
:104140006F937F938F939F93AF93BF93EF93FF935F
:104150008EE098E00E948417FF91EF91BF91AF919C
:104160009F918F917F916F915F914F913F912F918F
:104170000F900BBE0F900FBE0F901F9018951F92BF
:104180000F920FB60F9211240BB60F922F933F93FD
:104190004F935F936F937F938F939F93AF93BF934F
:1041A000EF93FF938FEA98E027DCFF91EF91BF91A7
:1041B000AF919F918F917F916F915F914F913F91BF
:1041C0002F910F900BBE0F900FBE0F901F90189560
:1041D0001F920F920FB60F9211240BB60F922F93CE
:1041E0003F934F935F936F937F938F939F93AF937F
:1041F000BF93EF93FF938FEA98E00E948417FF919B
:10420000EF91BF91AF919F918F917F916F915F914E
:104210004F913F912F910F900BBE0F900FBE0F90BB
:104220001F90189590E0FC013197E231F10508F0FC
:104230004EC08827EE58FF4F8F4F0C94DD3D809184
:1042400080008F7703C0809180008F7D80938000F5
:10425000089580918000877FF9CF84B58F7702C061
:1042600084B58F7D84BD08958091B0008F7703C0A1
:104270008091B0008F7D8093B00008958091900070
:104280008F7707C0809190008F7D03C08091900050
:10429000877F8093900008958091A0008F7707C05A
:1042A0008091A0008F7D03C08091A000877F8093C4
:1042B000A0000895809120018F7707C08091200190
:1042C0008F7D03C080912001877F80932001089516
:1042D000CF93DF93282F30E0F901E350FD4F849115
:1042E000F901E954FD4FD491F901EF58FD4FC49104
:1042F000CC2389F0811196DFEC2FF0E0EE0FFF1F49
:10430000ED5BFC4FA591B491EC91ED2381E090E041
:1043100021F480E002C080E090E0DF91CF91089529
:104320008F929F92AF92BF92CF92DF92EF92FF92C5
:104330006B017C0119DC4B015C01C114D104E10467
:10434000F104E9F011DCDC01CB0188199909AA0913
:10435000BB09883E9340A105B10578F321E0C21A5C
:10436000D108E108F10888EE880E83E0981EA11CB0
:10437000B11CC114D104E104F10421F7DECFFF9098
:10438000EF90DF90CF90BF90AF909F908F90089567
:104390002FB7F8946091CC067091CD068091CE062F
:1043A0009091CF062FBF08951F920F920FB60F92D4
:1043B00011242F933F938F939F93AF93BF9380913B
:1043C000CC069091CD06A091CE06B091CF0630914B
:1043D000CB0623E0230F2D3720F40196A11DB11D3C
:1043E00005C026E8230F0296A11DB11D2093CB0620
:1043F0008093CC069093CD06A093CE06B093CF06C3
:104400008091D0069091D106A091D206B091D306AA
:104410000196A11DB11D8093D0069093D106A09363
:10442000D206B093D306BF91AF919F918F913F91E8
:104430002F910F900FBE0F901F9018951F920F9203
:104440000FB60F9211240BB60F922F933F934F93F9
:104450005F936F937F938F939F93AF93BF93EF93EC
:10446000FF93E0910E02F0910F021995FF91EF91E9
:10447000BF91AF919F918F917F916F915F914F917C
:104480003F912F910F900BBE0F900FBE0F901F907A
:1044900018951F920F920FB60F9211240BB60F9220
:1044A0002F933F934F935F936F937F938F939F933C
:1044B000AF93BF93EF93FF93E0910C02F0910D0245
:1044C0001995FF91EF91BF91AF919F918F917F913E
:1044D0006F915F914F913F912F910F900BBE0F9075
:1044E0000FBE0F901F9018951F920F920FB60F924C
:1044F00011240BB60F922F933F934F935F936F93BB
:104500007F938F939F93AF93BF93EF93FF93E0912C
:104510000202F09103021995FF91EF91BF91AF91C3
:104520009F918F917F916F915F914F913F912F91CB
:104530000F900BBE0F900FBE0F901F9018951F92FB
:104540000F920FB60F9211240BB60F922F933F9339
:104550004F935F936F937F938F939F93AF93BF938B
:10456000EF93FF93E0910002F09101021995FF9102
:10457000EF91BF91AF919F918F917F916F915F91DB
:104580004F913F912F910F900BBE0F900FBE0F9048
:104590001F9018951F920F920FB60F9211240BB611
:1045A0000F922F933F934F935F936F937F938F93CC
:1045B0009F93AF93BF93EF93FF93E0910A02F09123
:1045C0000B021995FF91EF91BF91AF919F918F9140
:1045D0007F916F915F914F913F912F910F900BBE03
:1045E0000F900FBE0F901F9018951F920F920FB64D
:1045F0000F9211240BB60F922F933F934F935F931B
:104600006F937F938F939F93AF93BF93EF93FF939A
:10461000E0910802F09109021995FF91EF91BF9185
:10462000AF919F918F917F916F915F914F913F914A
:104630002F910F900BBE0F900FBE0F901F901895EB
:104640001F920F920FB60F9211240BB60F922F9359
:104650003F934F935F936F937F938F939F93AF930A
:10466000BF93EF93FF93E0910602F0910702199533
:10467000FF91EF91BF91AF919F918F917F916F913A
:104680005F914F913F912F910F900BBE0F900FBEF6
:104690000F901F9018951F920F920FB60F92112432
:1046A0000BB60F922F933F934F935F936F937F932C
:1046B0008F939F93AF93BF93EF93FF93E091040287
:1046C000F09105021995FF91EF91BF91AF919F91E4
:1046D0008F917F916F915F914F913F912F910F90AB
:1046E0000BBE0F900FBE0F901F9018950895089560
:1046F000EF92FF920F931F93CF93DF93EC017B0117
:104700008C010A5F1F4FB8010C9660D3B701C80136
:104710005DD381E08B83DF91CF911F910F91FF904B
:10472000EF900895AC0120915A09E0915809F09159
:10473000590990E0291749F0608171816417750764
:1047400009F416829F5F3796F5CF0895CF93DF93D4
:10475000CDB7DEB728970FB6F894DEBF0FBECDBF3A
:104760009C0188E0E4E6F2E0DE01119601900D92F2
:104770008A95E1F7F9018085841710F44FEF480F0F
:10478000FE013196E40FF11DE40FF11D9081690FD8
:104790006068C90128960FB6F894DEBF0FBECDBF82
:1047A000DF91CF910C942012CF93DF93EC01611530
:1047B000710561F0FB0101900020E9F73197AF012D
:1047C000461B570B0E949D17811102C0CE01CDD20E
:1047D000CE01DF91CF910895FC016681262F2260E2
:1047E00026836A600C942012FF920F931F93CF933D
:1047F000DF939093810980938009C0E0D1E0E0913C
:104800008009F09181098481C817D0F49281838155
:10481000E92FF82FEC0FF11DEC0FF11D8081918134
:10482000DC01ED91FC910480F581E02D1995019753
:1048300029F0E0918009F0918109D583CF5FDFCF26
:1048400080917E098F3F41F024818091620990918F
:104850006309211118C01AC020916909A091670944
:10486000B091680980E090E0281751F04D915D917A
:10487000E417F50719F480937F0991E08F5FF4CF77
:104880009111E2CF70C02581211110C010926609EC
:10489000FC0166816D7F668368600E942012A09192
:1048A0008009B091810980E091E046C021E0209329
:1048B000660992DFD4E684E6F82EC0E0E091800934
:1048C000F09181098481C81790F592818381E92F45
:1048D000F82FEC0FF11DEC0FF11D00811181D801B3
:1048E000ED91FC910480F581E02DC80119950197A7
:1048F000E1F0F8012581422F50E08D2F0D2E000CA4
:10490000990B4817590751F4848190E04F2D0F2CD3
:10491000000C550B8417950724F007C0481759075A
:1049200024F4D8011496FC90D22FCF5FC7CFF09219
:104930006409D0936509B3CF14962C91149782170C
:1049400090F412963C91129713962C911397E32FA3
:10495000F22FE80FF11DE80FF11D0190F081E02D1D
:1049600093838F5FE9CFDF91CF911F910F91FF90DC
:1049700008950F931F93CF93DF938C0190915A0961
:104980002091580930915909D901F90180E041E09D
:10499000981769F0608171816017710729F4468367
:1049A00062817381758364838F5F3796F1CF6091E5
:1049B0005D0970915E09F90140E06095709594176A
:1049C00089F08681882359F0C081D1810C171D0799
:1049D00031F0C481D581C60FD71FD583C4834F5F03
:1049E0003796EDCF1092610981E08917D8F41D96B2
:1049F0004C911D97442399F040916109F90157E0CA
:104A0000459FE00DF11D11241B966D917C911C9723
:104A1000448155816417750710F4809361098F5F95
:104A20001796E3CF80916109F90197E0899FE00D26
:104A3000F11D1124848195819093600980935F0911
:104A400010925E0910925D09DF91CF911F910F9135
:104A50000895EF92FF920F931F93CF93DF93CDB7FB
:104A6000DEB7A1970FB6F894DEBF0FBECDBF7C01B5
:104A7000CB01BA01F70111821082138212821582D2
:104A800014828E010F5F1F4F22E044E00E943736F0
:104A9000BC01C7010E94DD17A1960FB6F894DEBFD6
:104AA0000FBECDBFDF91CF911F910F91FF90EF907F
:104AB00008950F931F93CF93DF93CDB7DEB762971F
:104AC0000FB6F894DEBF0FBECDBF8C01CB01F8014D
:104AD0001182108213821282158214824AE0BE0172
:104AE0006F5F7F4F0E945936BE016F5F7F4FC801D5
:104AF0000E94DD1762960FB6F894DEBF0FBECDBFE1
:104B0000DF91CF911F910F910895EF92FF920F9334
:104B10001F93CF93DF93CDB7DEB72C970FB6F894E2
:104B2000DEBF0FBECDBF7C0167E775E0CE01079603
:104B30006FD1F70180899189009711F4128501C026
:104B4000182F00E01017A1F0BE01695F7F4FCE0162
:104B5000019656D169E575E0CE01019625DEBC01CE
:104B6000CE01079633D1CE01019645D10F5FEACF32
:104B7000F701458164818091620990916309E6DDC6
:104B8000BE01695F7F4F80916209909163095BD19B
:104B9000CE01079630D12C960FB6F894DEBF0FBE2B
:104BA000CDBFDF91CF911F910F91FF90EF900895AE
:104BB0001F93CF93DF9380917F098F3F39F468E78C
:104BC00075E080916209909163094BD110E0E0910A
:104BD0008009F09181098481181770F59281838191
:104BE000E92FF82FE10FF11DE10FF11DC081D181F7
:104BF0008B818823F9F08A81811103C0CE0185DF82
:104C000018C0288939898A859B858217930710F4F3
:104C1000CE017BDF4D816C818091620990916309A7
:104C200095DDBE016A5F7F4F8091620990916309B3
:104C30000AD11B821F5FCBCF409165096091640947
:104C40008091620990916309DF91CF911F917ECD90
:104C50008091820990918309892BA9F5809162093D
:104C6000909163090E943012E0917E09EF3FF1F4C8
:104C700080917F098F5F80937F092091690930E0DF
:104C8000082E000C990B2817390711F410927F0990
:104C9000E0917F09EE0FFF0B809167099091680901
:104CA000E80FF91F808191819FDD0CC0EE0FFF0B93
:104CB000E659F64F8081918197DD80917E09815080
:104CC00080937E0975CF0895CF92DF92EF92FF9285
:104CD0000F931F93CF93DF936C017A018B01C0E098
:104CE000D0E0CE15DF0581F0D8016D918D01D601A0
:104CF000ED91FC910190F081E02DC6011995892B71
:104D000011F02196EECF7E01C701DF91CF911F9167
:104D10000F91FF90EF90DF90CF9008950F931F9326
:104D2000CF93DF93EC0188819981009729F02A8144
:104D30003B812617370788F48B016F5F7F4F0E94F6
:104D4000F93D009761F0998388831B830A832C8146
:104D50003D81232B11F4FC01108281E001C080E031
:104D6000DF91CF911F910F910895CF93DF93EC01C5
:104D700088819981009711F00E94EE38198218827B
:104D80001D821C821B821A82DF91CF910895EF92BF
:104D9000FF920F931F93CF93DF93EC017B018A0166
:104DA000BA01BCDF811103C0CE01DFDF07C01D8364
:104DB0000C83B701888199810E94EF3ECE01DF917B
:104DC000CF911F910F91FF90EF900895CF93DF93B4
:104DD000EC01FB018617970751F060817181611525
:104DE000710521F044815581D2DF01C0BEDFCE01C3
:104DF000DF91CF910895FC01808191810C94EE3870
:104E0000FC01118210821382128215821482DECF7D
:104E1000FC011182108213821282158214826115A4
:104E2000710549F0FB0101900020E9F73197AF01CE
:104E3000461B570BACCF0895DC01ED91FC9101901E
:104E4000F081E02D1994DB0114964D915C9115973A
:104E50006D917C91DC01ED91FC910280F381E02D5C
:104E600019946115710579F0FB0101900020E9F7B3
:104E70003197AF01461B570BDC01ED91FC9102808D
:104E8000F381E02D199480E090E008950F931F9333
:104E9000CF93DF93EC01E5DF8C0165E775E0CE0190
:104EA000E0DF800F911FDF91CF911F910F91089547
:104EB000CF93DF93CDB7DEB76A970FB6F894DEBF16
:104EC0000FBECDBF789484B5826084BD84B5816007
:104ED00084BD85B5826085BD85B5816085BD8091C5
:104EE0006E00816080936E0010928100809181003D
:104EF0008260809381008091810081608093810035
:104F0000809180008160809380008091B1008460F6
:104F10008093B1008091B00081608093B000809157
:104F200091008260809391008091910081608093D4
:104F30009100809190008160809390008091A10009
:104F400082608093A1008091A10081608093A10084
:104F50008091A00081608093A000809121018260F7
:104F600080932101809121018160809321018091B2
:104F7000200181608093200180917A008460809379
:104F80007A0080917A00826080937A0080917A0022
:104F9000816080937A0080917A00806880937A00A3
:104FA0001092C10083E192E09093EE058093ED05AD
:104FB0008CE092E09093F0058093EF0585E092E01D
:104FC0009093F2058093F1058EEF91E09093E805C0
:104FD0008093E70587EF91E09093EA058093E905D8
:104FE00080EF91E09093EC058093EB0540E855E26B
:104FF00060E070E08FEA98E00E94820340E855E2AA
:1050000060E070E08EE098E00E94820340E855E2A4
:1050100060E070E081E797E00E94820340E855E29B
:1050200060E070E084ED96E00E9482036FEA78E031
:10503000CE0101960E94101CBE016F5F7F4F80E978
:1050400099E00E94E714CE0101960E9457126EE08B
:1050500078E0CE0101960E94101CBE016F5F7F4F69
:105060008AEA99E00E94E714CE0101960E94571245
:1050700061E777E0CE0101960E94101CBE016F5FD0
:105080007F4F84EC99E00E94E714CE0101960E94C4
:10509000571264ED76E0CE0101960E94101CBE010D
:1050A0006F5F7F4F8EED99E00E94E714CE0101966D
:1050B0000E9457128EE098E0909393098093920992
:1050C00081E797E0909395098093940984ED96E0A9
:1050D000909397098093960940E855E260E070E06C
:1050E0008EE098E00E94820340E855E260E070E0C4
:1050F00080919409909195090E94820340E855E2BD
:1051000060E070E080919609909197090E94820377
:1051100081E080939B090FEA18E01093AD0900939A
:10512000AC0940E855E260E070E0C8010E948203EB
:105130001093C7090093C60940E855E260E070E0AB
:10514000C8010E9482031093E1090093E00940E83E
:1051500055E260E070E0C8010E9482036CE673E0F3
:10516000CE01019655DE43E752E0BE016F5F7F4FEF
:1051700080E999E00E94561BCE0101963CDEBDEE0F
:10518000EB2EB5E0FB2E17EEC12E15E0D12E0AEA6C
:1051900019E082EAA82E85E0B82E9EE9692E95E0F6
:1051A000792E2AE9422E25E0522ED7018D909D902E
:1051B0007D0164E773E0CE0101962ADEA401BE0101
:1051C0006F5F7F4FC8010E94561BCE01019613DE10
:1051D000F601819091906F016DE773E0CE01019629
:1051E00017DEA401BE016F5F7F4FC8010E94561BEE
:1051F000CE01019600DE69E873E0CE01019608DE7B
:1052000041EA5BE0BE016F5F7F4FC8010E94561B01
:10521000CE010196F0DD6AE075E0CE010196F8DD81
:105220004EEA55E0BE016F5F7F4FC8010E949C1A95
:10523000CE010196E0DD62E175E0CE010196E8DD88
:105240004AEA55E0BE016F5F7F4FC8010E949C1A79
:10525000CE010196D0DD6CE873E0CE010196D8DD79
:1052600046EA55E0BE016F5F7F4FC8010E949C1A5D
:10527000CE010196C0DDD8011E96BC92AE921D975C
:1052800050967C926E921F9752965C924E925197D6
:10529000065E1F4FB3EFEB16B5E0FB0609F085CFB6
:1052A00086E090E00E945638FC0116E0DC01212FD8
:1052B0001D922A95E9F714821582A6E2EA2EA2E051
:1052C000FA2EF182E0829093E6058093E50562E98B
:1052D00073E0CE0101969CDD82E190E00E94563899
:1052E0006091E5057091E60500E02EE0AE014F5FAC
:1052F0005F4F0E94C119CE0101967DDD67E973E021
:10530000CE01019685DD82E190E00E9456386091E1
:10531000E5057091E60527E0AE014F5F5F4F0E9403
:10532000C119CE01019667DD6CE973E0CE010196EB
:105330006FDD82E190E00E9456386091E505709142
:10534000E60520E0AE014F5F5F4F0E94C119CE011C
:10535000019651DD60EC73E0CE01019659DD82E1EA
:1053600090E00E9456386C016091E5057091E60569
:1053700001E02EE0AE014F5F5F4F0E94C119D09255
:105380009905C0929805CE01019635DD60EC73E079
:10539000CE0101963DDD82E190E00E9456386C011D
:1053A0006091E5057091E60527E0AE014F5F5F4F24
:1053B0000E94C119D0929705C0929605CE01019620
:1053C0001ADD60EC73E0CE01019622DD82E190E00F
:1053D0000E9456386C016091E5057091E60520E069
:1053E000AE014F5F5F4F0E94C119D0929505C092E8
:1053F0009405CE010196FFDC61EA73E0CE010196CF
:1054000007DD84E190E00E9456386C016091E5056B
:105410007091E60502E020E0AE014F5F5F4F0E9411
:105420008C19D092E405C092E305CE010196E3DC2D
:10543000E091E305F091E4058AE49BE0938B828B95
:1054400066EA73E0CE010196E3DC84E190E00E941D
:1054500056386C016091E5057091E60520E1AE01DA
:105460004F5F5F4F0E948C19D092E205C092E10518
:10547000CE010196C0DCE091E105F091E20582EEFB
:105480009AE0938B828B6BEA73E0CE010196C0DCCD
:1054900082E190E00E9456386C016091E5057091C0
:1054A000E60503E020E0AE014F5F5F4F0E94C119A7
:1054B000D092B305C092B205CE0101969CDC86E085
:1054C00090E00E945638FC01DC01212F1D922A95A4
:1054D000E9F714821582F182E0829093E0058093CF
:1054E000DF0565EB73E0CE01019692DC82E190E08E
:1054F0000E9456386091DF057091E00500E020E0E1
:10550000AE014F5F5F4F0E94C119CE01019673DC5F
:1055100089E290E00E9456386C016091DF0570913D
:10552000E00520E042E00E943C1AD0929305C09230
:10553000920582EA95E0D60192969C938E9391977C
:1055400085E89DE090969C938E935F9768EB73E05F
:10555000CE0101965DDC82E190E00E9456386091B8
:10556000DF057091E0052AE0AE014F5F5F4F0E94BA
:10557000C119CE0101963FDC89E290E00E945638C5
:105580006C016091DF057091E00520E04CE00E9425
:105590003C1AD0929105C09290058EE995E0F601F3
:1055A00092A381A381EF9CE090A3878F6BEB73E0C4
:1055B000CE0101962DDC82E190E00E945638609188
:1055C000DF057091E00501E020E0AE014F5F5F4F25
:1055D0000E94C119CE0101960EDC89E290E00E9482
:1055E00056386C016091DF057091E00521E042E0E2
:1055F0000E943C1AD0928F05C0928E058AE995E0F0
:10560000D60192969C938E9391978DE59CE090960F
:105610009C938E935F976EEB73E0CE010196F8DB5F
:1056200084E190E00E9456386C016091DF05709132
:10563000E0052AE0AE014F5F5F4F0E94F419D0925F
:105640008D05C0928C05CE010196D5DB65EC73E02B
:10565000CE010196DDDB82E190E00E945638E091B8
:105660008C05F0918D056289738900E024E0AE011C
:105670004F5F5F4F0E94C119CE010196BCDB61EC08
:1056800074E0CE010196C4DB84E190E00E945638BC
:105690006C01E0918C05F0918D056289738901E0C0
:1056A00020E0AE014F5F5F4F0E948C19D092DE0563
:1056B000C092DD05CE0101969EDBE091DD05F09103
:1056C000DE058DEE97E0938B828B68EB74E0CE0164
:1056D00001969EDB84E190E00E9456386C01E091D7
:1056E0008C05F0918D056289738902E020E0AE019E
:1056F0004F5F5F4F0E948C19D092DC05C092DB0592
:10570000CE01019678DBE091DB05F091DC0583ECBE
:1057100097E0938B828B61EB74E0CE01019678DB8E
:1057200084E190E00E9456386C01E0918C05F09184
:105730008D056289738903E020E0AE014F5F5F4F02
:105740000E948C19D092DA05C092D905CE0101963B
:1057500052DBE091D905F091DA0589E997E0938B66
:10576000828B63ED73E0CE01019652DB84E190E021
:105770000E9456386C016091DF057091E00502E0EF
:1057800020E0AE014F5F5F4F0E94F419D092D80520
:10579000C092D705CE0101962EDB6EED73E0CE01EF
:1057A000019636DB82E190E00E945638E091D70501
:1057B000F091D8056289738900E024E0AE014F5F63
:1057C0005F4F0E94C119CE01019615DB6AEE73E0AE
:1057D000CE0101961DDB84E190E00E9456386C01F9
:1057E000E091D705F091D8056289738901E020E046
:1057F000AE014F5F5F4F0E948C19D092D605C092C8
:10580000D505CE010196F7DAE091D505F091D605E0
:105810008AEE92E0938B828B65EF73E0CE01019666
:10582000F7DA84E190E00E9456386C01E091D705E8
:10583000F091D8056289738902E020E0AE014F5FE4
:105840005F4F0E948C19D092D405C092D305CE012F
:105850000196D1DAE091D305F091D40584EB92E082
:10586000938B828B60E074E0CE010196D1DA84E103
:1058700090E00E9456386C01E091D705F091D80570
:105880006289738903E020E0AE014F5F5F4F0E94A1
:105890008C19D092D205C092D105CE010196ABDA17
:1058A000E091D105F091D2058EE792E0938B828B47
:1058B00067E775E0CE010196ABDA82E190E00E94E5
:1058C00056386C016091DF057091E00520E0AE0173
:1058D0004F5F5F4F0E94C119D092C405C092C305AB
:1058E000CE01019688DA86E090E00E945638FC01ED
:1058F000DC01212F1D922A95E9F714821582F1828D
:10590000E0829093D0058093CF056BE074E0CE01E8
:1059100001967EDA84E190E00E9456386C01609135
:10592000CF057091D00501E020E0AE014F5F5F4FE1
:105930000E948C19D092CE05C092CD05CE01019661
:105940005ADAE091CD05F091CE058CE896E0938B84
:10595000828B65E174E0CE0101965ADA82E190E033
:105960000E9456386C016091CF057091D0052BE0F4
:10597000AE014F5F5F4F0E94C119D0928B05C0925C
:105980008A05CE01019637DA6DE174E0CE01019609
:105990003FDA84E190E00E9456386C016091CF05B7
:1059A0007091D00502E020E0AE014F5F5F4F0E9492
:1059B0008C19D0928905C0928805CE0101961BDA18
:1059C000E0918805F091890587E396E0938B828BBF
:1059D00061E274E0CE0101961BDA84E190E00E945E
:1059E00056386C016091CF057091D0052EE0AE0164
:1059F0004F5F5F4F0E948C19D092CC05C092CB05AF
:105A0000CE010196F8D9E091CB05F091CC0585ED5A
:105A100095E0938B828B86E090E00E945638FC01E3
:105A2000DC011D921A95E9F714821582F182E08259
:105A30009093CA058093C90567E274E0CE01019690
:105A4000E7D982E190E00E9456386091C9057091D3
:105A5000CA0500E026E0AE014F5F5F4F0E94C1190A
:105A6000CE010196C8D96FE274E0CE010196D0D97B
:105A700082E190E00E9456386091C9057091CA0594
:105A800001E020E0AE014F5F5F4F0E94C119CE01DF
:105A90000196B1D989E290E00E9456388C0160915C
:105AA000C9057091CA0521E044E00E943C1A109398
:105AB0008705009386058EEA95E0F80192A381A3FD
:105AC00082E195E090A3878F64E374E0CE010196B4
:105AD0009FD982E190E00E9456386091C90570918B
