:10000000B0C100000C945A230C942F230C940423A9
:100010000C94D9220C94AE220C9483220C94582276
:100020000C942D22CFC10000CDC10000CBC1000037
:10003000C9C10000C7C10000C5C100000C94F71081
:10004000C1C10000BFC10000BDC10000BBC10000B4
:10005000B9C10000B7C10000B5C100000C94E32194
:10006000B1C100000C94F7200C94CE20ABC100006D
:10007000A9C10000A7C10000A5C10000A3C10000E4
:10008000A1C100009FC100009DC100009BC10000F4
:100090000C94A4200C947B2095C100000C94C60FF6
:1000A00091C100008FC100008DC100008BC1000014
:1000B00089C1000087C1000085C1000083C1000024
:1000C00081C100007FC100007DC100000C9451205F
:1000D0000C94282077C100000C94FE1F0C94D51FAF
:1000E00071C100003C213F212E213221382176218F
:1000F000432147214D21512155215B215F2163215E
:10010000762169216D2171214E414E494E49545944
:10011000494E46CDCCCC3D0AD7233C17B7D13877D2
:10012000CC2B329595E6241FB14F0A0000204100E8
:1001300000C84200401C4620BCBE4CCA1B0E5AAE32
:10014000C59D7400407A10F35A00A0724E18090041
:1001500010A5D4E80000E87648170000E40B54022C
:100160000000CA9A3B000000E1F505000080969867
:1001700000000040420F000000A0860100000010B7
:100180002700000000E803000000006400000000F9
:10019000000A00000000000100000000002C76D8DA
:1001A00088DC674F0823DFC1DFAE59E1B1B796E5C0
:1001B000E3E453C63AE651997696E8E6C28426EB24
:1001C000898C9B62ED407C6FFCEFBC9C9F40F2BA37
:1001D000A56FA5F490055A2AF75C936B6CF9676DCF
:1001E000C11BFCE0E40D47FEF520E6B500D0ED9024
:1001F0002E0300943577050080841E080000204EF1
:100200000A000000C80C333333330F986E12831189
:1002100041EF8D2114893BE65516CFFEE6DB18D160
:10022000844B381BF77C1D901DA4BBE42420328432
:10023000725E228100C9F124ECA1E53D2700002176
:1002400000240027002A002D0030003300010100A7
:1002500000040107010A0100002200250028002BEC
:10026000002E003100340002010000050108010BDE
:100270000105050505070508080808020202020A2B
:100280000A08080404040401010101010101010339
:1002900003030303030303040707070C0C0C0C0CF4
:1002A0000C0C0C0202020206060606060606060BE7
:1002B0000B0B0B0B0B0B0B0102102020080810205E
:1002C00040102040800201020108040201010204E2
:1002D00008102040808040201008040201800402A1
:1002E00001804020100804020108040201010204F8
:1002F0000810204080010204081020408000000AFD
:100300000B02090C0D0E0807030401000000000099
:1003100000000000000000000000000000000000DD
:10032000000000000000000000121110000000009A
:1003300000000000000000000000000000000000BD
:10034000000000000020002300260029002C002FC0
:100350000032000001000003010601090100093517
:10036000EC3411241FBECFEFD1E2DEBFCDBF00E0E1
:100370000CBF15E0A0E0B2E0E0EDFEE700E00BBF4F
:1003800002C007900D92A23BB107D9F72AE0A2EB79
:10039000B5E001C01D92A539B207E1F711E0C0EB4D
:1003A000D1E000E006C021970109802FFE010E94E4
:1003B0003E3ECF3AD10780E00807A9F70E946727A1
:1003C0000C94573F1DCE82E090E0089583E090E0CA
:1003D000089581E090E0089580E090E00895089508
:1003E00082E090E09093EB058093EA05089582E027
:1003F00090E09093E9058093E805089582E090E00D
:100400009093E7058093E605089581E090E090934E
:10041000EB058093EA05089581E090E09093E9056B
:100420008093E805089581E090E09093E70580933C
:10043000E60508954091D2055091D3056091D40509
:100440007091D5058091C2059091C3050E94BB189B
:100450004091CE055091CF056091D0057091D105A6
:100460008091C0059091C1050E94BB184091CA05BA
:100470005091CB056091CC057091CD058091BE0562
:100480009091BF050C94BB188091E6059091E7050B
:10049000019779F08091E8059091E905019761F065
:1004A0008091EA059091EB050197E1F482E090E0FC
:1004B00005C080E090E002C081E090E022E030E002
:1004C0003093F0052093EF052AE1289FF001299F42
:1004D000F00D1124E452F64F69E974E080819181B6
:1004E0000C94552708956EE974E081EE98E00C9421
:1004F000552789E792E00E94A1239CCFE091C20595
:10050000F091C30580E090E0A0E8BFE3828B938B7D
:10051000A48BB58BE091C005F091C105828B938BC4
:10052000A48BB58BE091BE05F091BF05828B938BB8
:10053000A48BB58BE091B805F091B905828B938BB4
:10054000A48BB58BE091B605F091B705828B938BA8
:10055000A48BB58BE091B405F091B505828B938B9C
:10056000A48BB58B0C943726E091C205F091C3059E
:1005700080E090E0A0E2B1E4828B938BA48BB58BFA
:10058000E091C005F091C105828B938BA48BB58B54
:10059000E091BE05F091BF05828B938BA48BB58B48
:1005A000E091B805F091B905828B938BA48BB58B44
:1005B000E091B605F091B705828B938BA48BB58B38
:1005C000E091B405F091B505828B938BA48BB58B2C
:1005D0000C943726E091C205F091C30580E090E0CD
:1005E000A8E4B2E4828B938BA48BB58BE091C00519
:1005F000F091C105828B938BA48BB58BE091BE05E6
:10060000F091BF05828B938BA48BB58BE091B805DD
:10061000F091B905828B938BA48BB58BE091B605D5
:10062000F091B705828B938BA48BB58BE091B405C9
:10063000F091B505828B938BA48BB58B0C943726E8
:100640008091F105811105C01092F4051092F30517
:1006500008958091F2050E9477212091F305309151
:10066000F405019719F42150310902C02F5F3F4F63
:100670003093F4052093F30508950F931F93CF93C0
:100680008C018EE292E0D8018D939C93C0E0F8013A
:10069000248182819381C21790F4FC01EC0FF11D3B
:1006A000EC0FF11D80819181009739F0DC01ED9113
:1006B000FC910280F381E02D1995CF5FE8CF009780
:1006C00029F0CF911F910F910C944F39CF911F9129
:1006D0000F910895CF93DF93EC01CFDFCE01DF912F
:1006E000CF910C944F3926E232E0FC013183208314
:1006F000C4CFCF93DF93EC01F6DFCE01DF91CF9132
:100700000C944F39CF92DF92EF92FF92CF93DF9309
:10071000EC016A017B01E889F98982E08083411557
:10072000514E61057105B1F060E079E08DE390E034
:10073000A70196010E941C3EDA01C9010197A10997
:10074000B109B695A795979587959C01211580E1EC
:100750003807A8F0E889F989108260E874E88EE12A
:1007600090E0A70196010E941C3EDA01C9010197A1
:10077000A109B109B695A795979587959C01EC8538
:10078000FD853083EE85FF852083188EEC89FD89F9
:1007900086E08083EA89FB89808180618083EA89A1
:1007A000FB89808188608083EA89FB8980818068F9
:1007B0008083EA89FB8980818F7D8083DF91CF915F
:1007C000FF90EF90DF90CF900895CF93DF93EC01EF
:1007D0008EE592E099838883CE010C960E940A27C9
:1007E000CE010696DF91CF910C940A27CF93DF9329
:1007F000EC01EBDFCE01DF91CF910C944F3924E572
:1008000032E0FC0131832083E0CFCF93DF93EC0112
:1008100086E392E0998388838A899B89009739F0DF
:10082000DC01ED91FC910280F381E02D1995CE0160
:10083000DF91CF91CACFCF93DF93EC01E6DFCE01FA
:10084000DF91CF910C944F39CF93DF93CDB7DEB7C3
:1008500068970FB6F894DEBF0FBECDBFE091B40528
:10086000F091B50545A156A167A170A5CE010D96E1
:100870000E9438256CEA74E0CE0101960E94172789
:10088000BE016F5F7F4FCE0107960E940F27BE010A
:10089000635F7F4FCE0107960E94DA17BC01CE013D
:1008A00043960E940F27CE0107960E940A27CE0189
:1008B00001960E940A27CE010D960E940A27809178
:1008C000E6059091E705029779F08091E80590910F
:1008D000E905029761F08091EA059091EB05029796
:1008E000E9F482E090E005C080E090E002C081E0A1
:1008F00090E022E030E03093F0052093EF052AE10C
:10090000289FF001299FF00D1124E452F64FBE01FB
:100910006D5E7F4F808191810E94E214CE014396EB
:100920000E940A2768960FB6F894DEBF0FBECDBFAF
:10093000DF91CF910895CF93DF93CDB7DEB768975E
:100940000FB6F894DEBF0FBECDBFE091B605F091B3
:10095000B70545A156A167A170A5CE010D960E94CD
:10096000382565EB74E0CE0101960E941727BE0181
:100970006F5F7F4FCE0107960E940F27BE01635F16
:100980007F4FCE0107960E94DA17BC01CE01439635
:100990000E940F27CE0107960E940A27CE010196DA
:1009A0000E940A27CE010D960E940A278091E60533
:1009B0009091E705019779F08091E8059091E9051C
:1009C000019761F08091EA059091EB050197E9F4B8
:1009D00082E090E005C080E090E002C081E090E01D
:1009E00022E030E03093F0052093EF052AE1289FC4
:1009F000F001299FF00D1124E452F64FBE016D5E07
:100A00007F4F808191810E94E214CE0143960E9423
:100A10000A2768960FB6F894DEBF0FBECDBFDF91F0
:100A2000CF910895CF93DF93CDB7DEB768970FB618
:100A3000F894DEBF0FBECDBFE091B805F091B905C7
:100A400045A156A167A170A5CE010D960E9438253B
:100A50006CEB74E0CE0101960E941727BE016F5F18
:100A60007F4FCE0107960E940F27BE01635F7F4F25
:100A7000CE0107960E94DA17BC01CE0143960E9470
:100A80000F27CE0107960E940A27CE0101960E94E9
:100A90000A27CE010D960E940A278091E6059091C3
:100AA000E705019779F08091E8059091E9050197B4
:100AB00061F08091EA059091EB050197E9F482E0FD
:100AC00090E005C080E090E002C081E090E022E08C
:100AD00030E03093F0052093EF052AE1289FF001E4
:100AE000299FF00D1124E452F64FBE016D5E7F4F39
:100AF000808191810E94E214CE0143960E940A27D0
:100B000068960FB6F894DEBF0FBECDBFDF91CF91D0
:100B10000895CF93DF9300D000D0CDB7DEB7E0913A
:100B2000B205F091B30582859385892B49F167E27F
:100B300074E0868197810E94473F892B09F5809157
:100B4000E6059091E7050197029718F481E08093FC
:100B5000E7098091E8059091E9050197029718F45B
:100B600081E08093010A8091EA059091EB0501975D
:100B7000029718F481E080931B0A62EC74E008C0CD
:100B80001092E7091092010A10921B0A67E274E0C2
:100B9000CE0101960E941727BE016F5F7F4F8091A3
:100BA000B2059091B3050E948723CE0101960E9461
:100BB0000A2726960FB6F894DEBF0FBECDBFDF9191
:100BC000CF910895CF93DF93CDB7DEB768970FB677
:100BD000F894DEBF0FBECDBF10923E0680912E0A64
:100BE00090912F0A892B21F010922F0A10922E0A31
:100BF00060912E0A70912F0ACE010D960E94031863
:100C00006AEC74E0CE0101960E941727BE016F5F67
:100C10007F4FCE0107960E940F27BE01635F7F4F73
:100C2000CE0107960E94DA17BC01CE0143960E94BE
:100C30000F27CE0107960E940A27CE0101960E9437
:100C40000A27CE010D960E940A27BE016D5E7F4FD6
:100C5000CE0101960E940F27BE016F5F7F4F8091EA
:100C6000BC059091BD050E948723CE0101960E948C
:100C70000A27CE0143960E940A2768960FB6F89479
:100C8000DEBF0FBECDBFDF91CF910895CF93DF932D
:100C900000D000D0CDB7DEB780912E0A90912F0AF8
:100CA000892B09F43FC0E091BA05F091BB0582851C
:100CB0009385892B01F16DE174E0868197810E9413
:100CC000473F892BC1F461ED74E0CE0101960E948B
:100CD0001727BE016F5F7F4F8091BA059091BB05CA
:100CE0000E948723CE0101960E940A2786E298E09F
:100CF0000E94C82417C06DE174E0CE0101960E94E5
:100D00001727BE016F5F7F4F8091BA059091BB0599
:100D10000E948723CE0101960E940A2786E298E06E
:100D20000E94A12326960FB6F894DEBF0FBECDBF5A
:100D3000DF91CF9108953F924F925F926F927F9291
:100D40008F929F92AF92BF92CF92DF92EF92FF92DB
:100D50000F931F93CF93DF93CDB7DEB76C970FB68A
:100D6000F894DEBF0FBECDBFE0902E0AF0902F0AA0
:100D700087010F5F1F4FE016F10608F085C0309025
:100D8000EC058091D2059091D305A091D405B09146
:100D9000D505898F9A8FAB8FBC8F8090CE059090B0
:100DA000CF05A090D005B090D1054090CA055090D5
:100DB000CB056090CC057090CD0520912C0A309128
:100DC0002D0A20173107B0F5C701099628173907F2
:100DD00088F5D0902A0AC0902B0A90932D0A809310
:100DE0002C0A2DE0DC012A9FC0012B9F900D1124BD
:100DF0000E94B73880932A0A90932B0A4D2D5C2DC0
:100E00009C0180E090E0E816F90681F0211531059B
:100E100039F06DE0FA01D90101900D926A95E1F780
:100E20000196435F5F4F235F3F4FEDCF8D2D9C2D8C
:100E30000E944F3920912E0A30912F0A4DE0429F97
:100E4000C001439F900D1124E0912A0AF0912B0AD2
:100E5000E80FF91F20173107D0F4309789F0898DFA
:100E60009A8DAB8DBC8D80839183A283B383848262
:100E70009582A682B78240865186628673863486C2
:100E80002F5F3F4F3D96E6CF0E151F0520F41093C0
:100E90002F0A00932E0A60912E0A70912F0ACE011C
:100EA0000D960E9403186AEC74E0CE0101960E9430
:100EB0001727BE016F5F7F4FCE0107960E940F2755
:100EC000BE01635F7F4FCE0107960E94DA17BC0117
:100ED000CE0143960E940F27CE0107960E940A2753
:100EE000CE0101960E940A27CE010D960E940A2784
:100EF000BE016D5E7F4FCE0101960E940F27BE019D
:100F00006F5F7F4F8091BC059091BD050E94872344
:100F1000CE0101960E940A27CE0143960E940A271D
:100F20006C960FB6F894DEBF0FBECDBFDF91CF91A8
:100F30001F910F91FF90EF90DF90CF90BF90AF90F7
:100F40009F908F907F906F905F904F903F9008950B
:100F5000CF93DF9300D000D0CDB7DEB783E090E031
:100F60009093EE058093ED0566ED74E0CE01019659
:100F70000E941727BE016F5F7F4F8091E40590911B
:100F8000E5050E948723CE0101960E940A270E9450
:100F9000372626960FB6F894DEBF0FBECDBFDF9181
:100FA000CF910895CF93DF9300D000D0CDB7DEB7B7
:100FB00082E090E09093EE058093ED056DED74E096
:100FC000CE0101960E941727BE016F5F7F4F80916F
:100FD000E4059091E5050E948723CE0101960E94C9
:100FE0000A270E94372626960FB6F894DEBF0FBE5A
:100FF000CDBFDF91CF910895CF93DF9300D000D084
:10100000CDB7DEB781E090E09093EE058093ED05DB
:1010100066EE74E0CE0101960E941727BE016F5F55
:101020007F4F8091E4059091E5050E948723CE01D2
:1010300001960E940A270E94372626960FB6F8943A
:10104000DEBF0FBECDBFDF91CF910895CF92DF926B
:10105000EF92FF920F931F93CF93DF93CDB7DEB73D
:10106000E0970FB6F894DEBF0FBECDBF8091EF05BD
:101070009091F005069709F4E6C080913E06E09154
:101080002A0AF0912B0A9DE0899FE00DF11D1124A1
:10109000048115812681378140855185628573855C
:1010A0008485C080D180E280F380C092D205D09246
:1010B000D305E092D405F092D5050093CE051093A8
:1010C000CF052093D0053093D1054093CA055093A6
:1010D000CB056093CC057093CD058093EC05CE01D4
:1010E00001960E9438256BEF74E0CE0107960E94AE
:1010F00017274091CE055091CF056091D005709192
:10110000D105CE010D960E94382565EF74E0CE0121
:1011100043960E9417274091D2055091D3056091C4
:10112000D4057091D505CE0149960E9438256CEE04
:1011300074E0CE0185960E941727BE016B5D7F4F3C
:10114000CE014F960E940F27BE01675E7F4FCE01F2
:101150004F960E94DA17BE016D5E7F4F0E94DA172C
:10116000BE01635F7F4F0E94DA17BE01695F7F4F48
:101170000E94DA17BE016F5F7F4F0E94DA17BC0131
:10118000CE018B960E940F27CE014F960E940A2710
:10119000CE0185960E940A27CE0149960E940A2711
:1011A000CE0143960E940A27CE010D960E940A277F
:1011B000CE0107960E940A27CE0101960E940A27B7
:1011C0008091E6059091E705019779F08091E80517
:1011D0009091E905019761F08091EA059091EB0506
:1011E0000197B9F482E090E005C080E090E002C091
:1011F00081E090E02AE1289FF001299FF00D112461
:10120000E452F64FBE01655D7F4F808191810E945F
:10121000E214CE018B960E940A2786E090E090931C
:10122000F0058093EF0506D980913E068F5F80938D
:101230003E0690E020912E0A30912F0A82179307E4
:1012400011F410923E06E0960FB6F894DEBF0FBE82
:10125000CDBFDF91CF911F910F91FF90EF90DF9065
:10126000CF900895CF93DF93CDB7DEB768970FB6D1
:10127000F894DEBF0FBECDBF6091F50570E08091A0
:10128000F3059091F4050E94093E6115710509F47A
:10129000CBC01092F4051092F3058091F80590915F
:1012A000F9058330910541F18430910509F445C079
:1012B000029709F0B8C0072E000C880B990B0E940A
:1012C000403C2091D2053091D3054091D4055091F6
:1012D000D5050E94703DAB01BC014093D2055093EF
:1012E000D3056093D4057093D505CE0101960E9475
:1012F00038256CEE74E041C0072E000C880B990B6A
:101300000E94403C2091CE053091CF054091D00500
:101310005091D1050E94703DAB01BC014093CE05B8
:101320005093CF056093D0057093D105CE010196FF
:101330000E94382562EF74E020C0072E000C880B55
:10134000990B0E94403C2091CA053091CB054091F9
:10135000CC055091CD050E94703DAB01BC0140937E
:10136000CA055093CB056093CC057093CD05CE0193
:1013700001960E94382568EF74E0CE010D960E9418
:101380001727BE01635F7F4FCE0107960E940F278C
:10139000BE016F5F7F4FCE0107960E94DA17BC0136
:1013A000CE0143960E940F27CE0107960E940A277E
:1013B000CE010D960E940A27CE0101960E940A27AF
:1013C0008091E6059091E705019779F08091E80515
:1013D0009091E905019761F08091EA059091EB0504
:1013E0000197E9F482E090E005C080E090E002C05F
:1013F00081E090E023E030E03093F0052093EF05AA
:101400002AE1289FF001299FF00D1124E452F64FA4
:10141000BE016D5E7F4F808191810E94E214CE01FA
:1014200043960E940A2706D868960FB6F894DEBF46
:101430000FBECDBFDF91CF910895CF93DF9300D042
:1014400000D0CDB7DEB78DE19AE00E94A123409194
:10145000DE055091DF056091E0057091E105809116
:10146000B8059091B9050E94BB184091DA055091DA
:10147000DB056091DC057091DD058091B6059091EA
:10148000B7050E94BB184091D6055091D7056091D1
:10149000D8057091D9058091B4059091B5050E9449
:1014A000BB180E941A021092F0051092EF056EEF21
:1014B00074E0CE0101960E941727BE016F5F7F4F37
:1014C0008091E2059091E3050E948723CE01019669
:1014D0000E940A2726960FB6F894DEBF0FBECDBF36
:1014E000DF91CF910895CF92DF92EF92FF920F9309
:1014F0001F93CF93DF9300D000D0CDB7DEB783E743
:101500009AE00E94A12386EEC82E85E0D82E04EC36
:1015100015E09CEDE92E99E0F92EF601819191916B
:101520006F010097A9F460EC73E0CE0101960E9470
:101530001727BE016F5F7F4FF801808191810E9464
:101540008723CE0101960E940A27F70114861AC04C
:101550008130910519F469E075E004C0029791F4B7
:101560006FE075E0CE0101960E941727BE016F5F04
:101570007F4FF801808191810E948723CE010196DF
:101580000E940A270E5F1F4FFAE1EF0EF11C85E063
:101590000A3C180711F61092F0051092EF0565E16C
:1015A00075E0CE0101960E941727BE016F5F7F4F45
:1015B0008091E2059091E3050E948723CE01019678
:1015C0000E940A2726960FB6F894DEBF0FBECDBF45
:1015D000DF91CF911F910F91FF90EF90DF90CF900F
:1015E0000895EF92FF920F931F93CF93DF9300D054
:1015F00000D0CDB7DEB78091EF059091F00504974C
:1016000009F44AC084E090E09093F0058093EF05E0
:1016100060E275E0CE0101960E941727BE016F5F60
:101620007F4F8091E2059091E3050E948723CE01D0
:1016300001960E940A2786EEE82E85E0F82E0CED32
:1016400019E0F701819191917F018130910589F431
:101650006DE275E0F801808191810E94552765E374
:1016600075E0F801808191810E9455276EE375E055
:1016700004C0029739F467E475E0F8018081918134
:101680000E945527065E1F4FFAE00A321F07C9F66F
:101690008DE19AE00E94C82426960FB6F894DEBF2A
:1016A0000FBECDBFDF91CF911F910F91FF90EF90B3
:1016B0000895DF92EF92FF920F931F93CF93DF93E2
:1016C00000D000D0CDB7DEB78091EF059091F00546
:1016D0000597C1F185E090E09093F0058093EF05C8
:1016E0006FE475E0CE0101960E941727BE016F5F7F
:1016F0007F4F8091E2059091E3050E948723CE0100
:1017000001960E940A270CED19E086EEE82E85E08E
:10171000F82EDD24D394F801D486F70111921192AA
:101720007F016CE673E0F801808191810E9455276A
:10173000065E1F4FFAE00A321F0769F783E79AE057
:101740000E94C82426960FB6F894DEBF0FBECDBF08
:10175000DF91CF911F910F91FF90EF90DF9008954F
:10176000CF93DF9300D000D0CDB7DEB78091EF05E7
:101770009091F0058230910509F45FC018F401974B
:1017800049F0A1C08330910509F46DC0069709F4B2
:1017900096C099C08091E6059091E705019779F090
:1017A0008091E8059091E905019761F08091EA0543
:1017B0009091EB050197B1F482E090E005C080E0E4
:1017C00090E002C081E090E02AE1289FF001299F8B
:1017D000F00D1124E452F64F6EE375E080819181A3
:1017E0000E9455276CE575E0CE0101960E941727EF
:1017F000BE016F5F7F4F8091E2059091E3050E94EB
:101800008723CE0101960E940A276CE575E0CE0180
:1018100001960E941727BE016F5F7F4F8091F605EA
:101820009091F7050E948723CE0101960E940A2716
:1018300089E792E00E94C82442C062E675E0CE01CA
:1018400001960E941727BE016F5F7F4F8091E205CE
:101850009091E3050E948723CE0101960E940A27FA
:1018600062E675E01BC06CE675E0CE0101960E9451
:101870001727BE016F5F7F4F8091E2059091E305CE
:101880000E948723CE0101960E940A278091F805C5
:101890009091F905029798F46CE675E0CE010196F7
:1018A0000E941727BE016F5F7F4F8091F6059091D0
:1018B000F7050E948723CE0101960E940A27109205
:1018C000F0051092EF0526960FB6F894DEBF0FBE16
:1018D000CDBFDF91CF9108950F931F93CF93DF93E7
:1018E000CDB7DEB768970FB6F894DEBF0FBECDBF99
:1018F0008091EF059091F005039709F476C040912F
:10190000CA055091CB056091CC057091CD05CE01F3
:101910000D960E94382568EF74E0CE0101960E9472
:101920001727BE016F5F7F4FCE0107960E940F27DA
:10193000BE01635F7F4FCE0107960E94DA17BC019C
:10194000CE0143960E940F27CE0107960E940A27D8
:10195000CE0101960E940A27CE010D960E940A2709
:101960008091E6059091E705019779F08091E8056F
:101970009091E905019761F08091EA059091EB055E
:10198000019779F502E010E005C000E010E002C028
:1019900001E010E083E090E09093F0058093EF0584
:1019A00066E775E0CE0101960E941727BE016F5FC2
:1019B0007F4F8091F6059091F7050E948723CE0115
:1019C00001960E940A278AE1809FF001819FF00D15
:1019D0001124E452F64FBE016D5E7F4F80819181EC
:1019E000F1D7CE0143960E940A2768960FB6F89465
:1019F000DEBF0FBECDBFDF91CF911F910F91089534
:101A00000F931F93CF93DF93CDB7DEB768970FB6D1
:101A1000F894DEBF0FBECDBF8091EF059091F00529
:101A2000039709F476C04091CE055091CF0560919F
:101A3000D0057091D105CE010D960E94382562EF38
:101A400074E0CE0101960E941727BE016F5F7F4FA1
:101A5000CE0107960E940F27BE01635F7F4FCE0124
:101A600007960E94DA17BC01CE0143960E940F2709
:101A7000CE0107960E940A27CE0101960E940A27EE
:101A8000CE010D960E940A278091E6059091E70508
:101A9000019779F08091E8059091E905019761F04F
:101AA0008091EA059091EB05019779F502E010E04D
:101AB00005C000E010E002C001E010E083E090E02B
:101AC0009093F0058093EF0566E775E0CE010196EF
:101AD0000E941727BE016F5F7F4F8091F60590919E
:101AE000F7050E948723CE0101960E940A278AE10A
:101AF000809FF001819FF00D1124E452F64FBE014A
:101B00006D5E7F4F808191815DD7CE0143960E94AB
:101B10000A2768960FB6F894DEBF0FBECDBFDF91DF
:101B2000CF911F910F9108950F931F93CF93DF9340
:101B3000CDB7DEB768970FB6F894DEBF0FBECDBF46
:101B40008091EF059091F005039709F476C04091DC
:101B5000D2055091D3056091D4057091D505CE0181
:101B60000D960E9438256CEE74E0CE0101960E941D
:101B70001727BE016F5F7F4FCE0107960E940F2788
:101B8000BE01635F7F4FCE0107960E94DA17BC014A
:101B9000CE0143960E940F27CE0107960E940A2786
:101BA000CE0101960E940A27CE010D960E940A27B7
:101BB0008091E6059091E705019779F08091E8051D
:101BC0009091E905019761F08091EA059091EB050C
:101BD000019779F502E010E005C000E010E002C0D6
:101BE00001E010E083E090E09093F0058093EF0532
:101BF00066E775E0CE0101960E941727BE016F5F70
:101C00007F4F8091F6059091F7050E948723CE01C2
:101C100001960E940A278AE1809FF001819FF00DC2
:101C20001124E452F64FBE016D5E7F4F8081918199
:101C3000C9D6CE0143960E940A2768960FB6F8943B
:101C4000DEBF0FBECDBFDF91CF911F910F910895E1
:101C5000CF93DF93CDB7DEB762970FB6F894DEBFB0
:101C60000FBECDBF6091F50570E08091F3059091B6
:101C7000F4050E94093E8091F8059091F9058330A2
:101C80009105F9F084309105A9F1029709F06FC030
:101C9000072E000C880B990B0E94403C2091D20526
:101CA0003091D3054091D4055091D5050E94703DE7
:101CB000AB01BC01CE0107960E94382561E875E0B2
:101CC00031C0072E000C880B990B0E94403C2091DC
:101CD000CE053091CF054091D0055091D1050E949D
:101CE000703DAB01BC01CE0107960E9438256DE81E
:101CF00075E018C0072E000C880B990B0E94403C21
:101D00002091CA053091CB054091CC055091CD056D
:101D10000E94703DAB01BC01CE0107960E943825A0
:101D200069E975E0CE0101960E941727BE01695F3F
:101D30007F4FCE0101960E94DA17BC01CE010D96AD
:101D40000E940F27BE01635F7F4F8091F60590913F
:101D5000F7050E948723CE010D960E940A27CE0127
:101D600001960E940A27CE0107960E940A276296D2
:101D70000FB6F894DEBF0FBECDBFDF91CF910895AF
:101D8000CF93DF93C091DD08D091DE08E881F9811F
:101D90000084F185E02DCE011995892BB9F3E881F6
:101DA000F9810284F385E02DCE01DF91CF91199462
:101DB0001F93CF93DF93182FC091DD08D091DE08D9
:101DC0008A3041F4E881F9810190F081E02D6DE0E5
:101DD000CE011995E881F9810190F081E02D612F04
:101DE000CE01199521E030E0019711F420E030E0B8
:101DF000C901DF91CF911F91089585ED8093BC00BB
:101E00008091BC0084FDFCCF1092F80608954091AB
:101E1000A206262F30E0240F311D21323105DCF4DB
:101E20002091F8062430C9F4FC0180E090E0861788
:101E300058F43091A2062191DC01AE57B94FA30F9F
:101E4000B11D2C930196F3CF8091A206680F609389
:101E5000A20680E0089581E0089582E00895089543
:101E600008950895E091FC068091FB06E81730F490
:101E7000F0E0EE59F94F808190E008958FEF9FEFE9
:101E800008959091FC068091FB06981750F4E92F75
:101E9000F0E0EE59F94F208130E09F5F9093FC060F
:101EA00002C02FEF3FEFC90108958091FB0690E03B
:101EB0002091FC06821B91090895CF92DF92EF9248
:101EC000FF920F931F93CF93DF937C01CB018A0185
:101ED00020916106222389F0EB016B01C40ED51E0F
:101EE000CC15DD0561F06991D701ED91FC91019070
:101EF000F081E02DC7011995F3CF642F88DFC80169
:101F0000DF91CF911F910F91FF90EF90DF90CF90D5
:101F10000895CF93DF931F92CDB7DEB769832091E9
:101F200061062223D1F02091F906203240F021E011
:101F300030E0FC013383228380E090E014C0809184
:101F4000FA06E82FF0E0EF5BF94F998190838F5FFD
:101F50008093FA068093F90604C061E0CE010196F1
:101F600056DF81E090E00F90DF91CF9108950895C2
:101F700008950C944F39CF93DF93EC010E94FF0337
:101F8000CE01DF91CF910C944F3908951F920F929B
:101F90000FB60F9211240BB60F922F933F934F93CE
:101FA0005F936F937F938F939F93AF93BF93EF93C1
:101FB000FF938091B900887F803609F49CC068F552
:101FC000883209F45BC090F4803109F454C038F4CD
:101FD000882309F4F6C0883009F44DC0F5C0883173
:101FE00009F44CC0803209F45DC0EEC0803409F4BD
:101FF00068C048F4803309F455C0883309F0E4C060
:102000008093C506D8C0803509F44FC0883509F4DF
:102010005DC0883409F0D8C0D6C0883909F4C7C07B
:10202000A8F4883709F467C038F4883609F463C027
:10203000803709F460C0C8C0883809F4B8C0803956
:1020400009F45FC0803809F0BFC05BC0803B09F471
:1020500086C038F4803A09F466C0883A09F47FC033
:10206000B3C0803C09F4A7C0883C09F4A4C0883BF5
:1020700009F48AC0A9C08091E80610C09091E706D3
:102080008091E606981770F5E091E70681E08E0FE3
:102090008093E706F0E0EA53F94F80818093BB001C
:1020A00085EC86C08093C5068EC0E091E70681E08E
:1020B0008E0F8093E7068091BB00F0E0EA53F94F62
:1020C00080839091E7068091E6066EC0E091E70676
:1020D00081E08E0F8093E7068091BB00F0E0EA5329
:1020E000F94F80838091F70681116DC081E0809364
:1020F000F60684EA61C083E08093F8061092C40675
:10210000CFCF8091C406803208F051C0E091C40660
:1021100081E08E0F8093C4068091BB00F0E0EC5507
:10212000F94F8083BDCF85EC8093BC001092F806F8
:102130008091C406803230F4E091C406F0E0EC55A2
:10214000F94F10826091C40670E0E091F206F091C0
:10215000F30684EA96E019951092C40635C084E02F
:102160008093F8061092A3061092A206E091F4065E
:10217000F091F50619958091A206811105C081E0C4
:102180008093A20610928206E091A30681E08E0F52
:102190008093A306F0E0EE57F94F80818093BB0057
:1021A0009091A3068091A206981708F479CF85E84C
:1021B0008093BC0009C085EC8093BC001092F806A7
:1021C00003C01092C50619DEFF91EF91BF91AF9148
:1021D0009F918F917F916F915F914F913F912F913F
:1021E0000F900BBE0F900FBE0F901F9018951F926F
:1021F0000F920FB60F9211240BB60F922F933F93AD
:102200004F935F936F937F938F939F93AF93BF93FE
:10221000EF93FF9386E08093B20080918C0988232E
:1022200009F47CC080918F09909190090196909358
:10223000900980938F09209191093091920982171A
:10224000930708F46BC01092900910928F09809147
:102250009309E0918A09F0918B0937E0839FE00DA3
:10226000F11D11248681882321F00190F081E02D59
:10227000199530918C0980918A0990918B09609110
:10228000910970919209DC01FC0120E0321761F0A4
:102290004681442331F044815581461B570B5583B9
:1022A00044832F5F3796F2CF20919309FC0147E0DA
:1022B000249FE00DF11D11244281538155834483F5
:1022C0001092930921E02317D8F41D964C911D9785
:1022D000442399F040919309FC0157E0459FE00D9C
:1022E000F11D11241B966D917C911C9744815581A1
:1022F0006417750710F4209393092F5F1796E3CFA7
:1023000020919309FC0137E0239FE00DF11D11247A
:10231000848195819093920980939109FF91EF9127
:10232000BF91AF919F918F917F916F915F914F91ED
:102330003F912F910F900BBE0F900FBE0F901F90EB
:102340001895CF93FC01C48121E020936106C093CE
:102350003F061092FA061092F9068385682B8EE7E5
:1023600099E0D7DD9091F906913208F045C080914F
:10237000F8068111FCCF82E08093F80681E080931B
:10238000F7068FEF8093C5061092E7069093E60656
:10239000A1E4B6E0E6ECF6E080E0981721F02D919C
:1023A00021938F5FFACF1092E8068091E806CC0F58
:1023B000C82BC093E8068091F606813061F4109234
:1023C000F6068091E8068093BB008091BC0083FDF7
:1023D000F8CF85EC01C085EE8093BC008091F806B3
:1023E0008230E1F38091C5068F3F31F08091C506C0
:1023F000803211F08091C5061092FA061092F9060B
:1024000010926106CF9108950F931F93CF938C0183
:10241000C62F97DF6C2F6460C80193DF6C2F6B7F32
:10242000C8018FDF83EC90E00197F1F7CF911F9106
:102430000F9108950F931F93CF938C01C62F607F48
:102440006160E2DF80E1C89FB00111246160C801D2
:10245000DBDF81E090E0CF911F910F9108950F9302
:102460001F93CF938C01C62F607FCEDF80E1C89F82
:10247000B0011124C801CF911F910F91C5CF61E028
:10248000EEDF8BE39FE10197F1F7089520E432E05E
:10249000FC01318320830C94E503CF93DF93EC019F
:1024A000F5DFCE01DF91CF910C944F392AE432E071
:1024B000FC01318320830C94E503CF93DF93EC017F
:1024C000F5DFCE01DF91CF910C944F390F931F931D
:1024D000CF93DF938C01FC01C085D1852097D9F083
:1024E000FE013297208131814CE0429FC001439F21
:1024F000900D1124C80FD91FCE01F8012085318518
:102500002C978217930721F0CE010E940A27F4CF5F
:1025100002970E944F39C8014496DF91CF911F91D5
:102520000F910C940A278F929F92AF92BF92CF92F5
:10253000DF92EF92FF920F931F93CF93DF93CDB76C
:10254000DEB76A970FB6F894DEBF0FBECDBFDC01D1
:102550001C962C91222309F4FCC18C016C01B4E17E
:10256000CB0ED11CF80180819181DC01ED91FC91B1
:102570000084F185E02D1995892BE9F1F80180811E
:102580009181DC01ED91FC910284F385E02D199598
:10259000F82EF80183858823C9F082819381009702
:1025A00019F06F2D0E942B27D80114968D919C91C4
:1025B0001597009719F06F2D0E942B27F80186813F
:1025C0009781009719F06F2D0E942B27FAE0FF12D8
:1025D00005C081E0D80153968C930DC0BDE0FB1679
:1025E00009F2F9821A8241E050E0BE016F5F7F4F2D
:1025F000C601B2D4B7CFF801A388AA2009F4A9C1B3
:10260000B12CC80144966C01D8011A968C91B81669
:1026100008F0BDC0BCE0BB9E70011124D801189623
:10262000ED91FC911997EE0DFF1D2481358140E05D
:1026300050E0B601CE0101960E94661CD8011896A2
:10264000ED91FC911997EE0DFF1D248135818D814F
:102650009E812817390721F58081918169817A81CE
:10266000009719F061157105A9F46115710551F014
:102670002115310539F0FB01808190E0919581951C
:1026800091090AC0009771F0232B61F0DC018C9155
:1026900090E002C00E94473F99249394892B19F03F
:1026A000912C01C09A2CCE0101960E940A279920F4
:1026B00009F46BC0D8011896ED91FC911997EE0DB5
:1026C000FF1D808491848114910409F158962D9105
:1026D0003C915997448155814F5F5F4FB601CE01C0
:1026E00001960E94661C89819A81009719F00E94C8
:1026F000B73603C060E070E0CB01F4016083718302
:1027000082839383CE0101960E940A273EC0828570
:1027100093850097A1F169EA75E05ED4D801189617
:10272000ED91FC911997EE0DFF1D84809580BFEF10
:102730008B1A9B0AF801808D918D8816990628F5D1
:102740000488F589E02D309729F410924006E0E4E2
:10275000F6E002C0E80DF91D2081D8011896ED9130
:10276000FC911997EE0DFF1D8285938529831A82AE
:1027700041E050E0BE016F5F7F4FEED3D8CF0680BF
:10278000F781E02D309709F01995B3943DCFF8010A
:1027900085859685892B09F4D6C069EA75E0CE0156
:1027A00043960E94172741E050E065EA75E0C601B4
:1027B000D3D3E12CF12C912CD80158968D919C917A
:1027C0005997E816F90608F073C054968D919C91BC
:1027D0005597009729F410924006E0E4F6E003C014
:1027E000FC01EE0DFF1D20812C32D1F52F89388D93
:1027F0002115310509F458C0EB89FC8980818823B3
:1028000009F452C0A92CB12C41E050E0BE016D5E2C
:102810007F4FCE010D960E94661C8D859E85009788
:1028200019F00E94B73603C060E070E0CB01AA0C3B
:10283000BB1CAA0CBB1CE1E0F0E0EC0FFD1FEA0D95
:10284000FB1D6083718382839383CE010D960E946A
:102850000A2769EA75E0CE014396BED3939424C05B
:10286000009729F410924006E0E4F6E003C0FC0172
:10287000EE0DFF1D80811E861D86188A1F861A8A0E
:10288000198A898F1A8EBE01675E7F4FCE010D9621
:10289000A3D349895A896D857E85CE0143965CD341
:1028A000CE010D960E940A27BFEFEB1AFB0A84CFD8
:1028B000E3E09E1244C0D8011D96ED91FC911E9755
:1028C00089819A81AB81BC8180839183A283B38308
:1028D000D8011F96ED91FC9150978D819E81AF811B
:1028E000B88580839183A283B383F801E188F2885D
:1028F00089849A84AB84BC8420E030E0A901C501BE
:10290000B4010E943A3C18163CF0A501940160E025
:1029100070E080E09FE307C0C501B401905820E05B
:1029200030E040E05FE30E946F3D0E94D43D0E9492
:10293000403CD7016D937D938D939C931397CE016B
:1029400043960E940A2769EA75E0C60145D3F8015B
:10295000138A6A960FB6F894DEBF0FBECDBFDF9123
:10296000CF911F910F91FF90EF90DF90CF90BF908C
:10297000AF909F908F900895CF93DF93282F30E0F2
:10298000F901E350FD4F8491F901E954FD4FD491D1
:10299000F901EF58FD4FC491CC2389F081110E94B9
:1029A0002121EC2FF0E0EE0FFF1FE95AFD4FA5911A
:1029B000B4918FB7F894EC91ED2BEC938FBFDF912E
:1029C000CF9108950F931F93CF93DF93EC010E9453
:1029D00032278C0167EA75E0CE010E944027800F04
:1029E000911FDF91CF911F910F910895CF93DF93A6
:1029F000EC01FB018081918199838883828193819D
:102A00009B838A83848195819D838C838681978132
:102A10009F838E83808591859987888782858A8721
:102A200083858B8784858C87858596859E878D8712
:102A300087859089988B8F87818992899A8B898BDA
:102A400083898B8B6C5E7F4FCE0144960E94F52666
:102A5000CE01DF91CF910895EF92FF920F931F93D4
:102A6000CF93DF937C0100919B090F5F00939B093B
:102A700010E0C801880F991F0E94B738EC018091BF
:102A8000990990919A0940E001501109242F30E0F2
:102A90002017310774F4220F331FFC01E20FF31FDC
:102AA00060817181FE01E20FF31F718360834F5FCC
:102AB000EDCF009711F00E944F39D0939A09C0933F
:102AC000990920919B09CE01820F911D820F911DC2
:102AD000FC013297F182E082DF91CF911F910F913B
:102AE000FF90EF9008950F931F93CF93DF938C0186
:102AF00086EB99E0909395098093940981E0809307
:102B000098099FEF90939609909397091092FC066D
:102B10001092FB061092FA061092F9061092F8062F
:102B20008093F7061092F60684E126DF85E124DF24
:102B30008091B9008E7F8093B9008091B9008D7F1C
:102B40008093B90088E48093B80085E48093BC004A
:102B50008FE29FE09093F5068093F40680E39FE078
:102B60009093F3068093F2061092BB098091C009FE
:102B7000823018F098E09093BB098093BE0962E31D
:102B800070E080E090E00E949F216091C10986EB97
:102B900099E0D7DB68EE73E080E090E00E949F212F
:102BA00060E386EB99E030DCCBE4D6E4CE0101971C
:102BB000F1F760E386EB99E027DC2197F1F760E31A
:102BC00086EB99E021DC83E592E00197F1F760E282
:102BD00086EB99E019DC6091BB09606286EB99E0B5
:102BE0003EDC84E08093BC096CE086EB99E037DC46
:102BF00086EB99E044DC82E08093BD0966E086EBD9
:102C000099E02DDC62E086EB99E029DC8BE39FE123
:102C10000197F1F7809194099091950928E0FC01C2
:102C2000238760E08EDB80919409909195090E9442
:102C3000FB2340E060E080919409909195090E9407
:102C4000B523B80180919409909195090E9432278B
:102C500068EE73E080E090E00E949F2180919409EB
:102C6000909195090CDC8FEF8093B109DF91CF91A2
:102C70001F910F910895CF92DF92EF92FF920F93E1
:102C80001F93CF93DF937C018B0180918C098F5F21
:102C900080938C09C82ED12C27E0829FC00111247B
:102CA0000E94B738EC01FC01A60181E091E0C91A4D
:102CB000D10820F490E04150510909C011821082DE
:102CC000138212821582148286833796EFCF292FC2
:102CD00030E0E0918A09F0918B092417350784F4DC
:102CE00087E0989F90011124DE01A20FB31FE20F2D
:102CF000F31F87E001900D928A95E1F79F5FE7CF80
:102D0000309719F0CF010E944F39D0938B09C093AF
:102D10008A0980918C0997E0899FC00DD11D1124EB
:102D20002797F982E8821B830A831D830C8381E045
:102D30008E838091910990919209009719F008175C
:102D4000190720F41093920900939109DF91CF9114
:102D50001F910F91FF90EF90DF90CF900895CF9348
:102D6000DF9390E0FC01E954FD4F2491FC01EF5802
:102D7000FD4F84918823C1F090E0880F991FFC01DA
:102D8000E35CFD4FC591D491FC01E95AFD4FA5913B
:102D9000B4919FB7F8948881322F3095832388832C
:102DA000EC91E22BEC939FBFDF91CF9108958F922E
:102DB0009F92AF92BF92CF92DF92EF92FF920F93CA
:102DC0001F93CF93DF939091E9062091EA0630910B
:102DD000EB06C0E09C1709F471C02D5F3F4FF9016D
:102DE0003397408148132CC00E947721D0E0892B73
:102DF00049F1CE01880F991F880F991F0091EC06A9
:102E00001091ED06080F191F0E94D721F801608369
:102E1000718382839383E091F006F091F106EC0FC9
:102E2000FD1F81E08083CC0FDD1F8091EE06909125
:102E3000EF06C80FD91F88EE93E0998388833EC0C0
:102E4000CF5FC8CF0E94D7217E01EE0CFF1CEE0C95
:102E5000FF1CE091EE06F091EF069E01220F331F5A
:102E6000E20FF31FA091EC06B091ED06AE0DBF1D71
:102E70000D911D912D913C915B016C01A01AB10A3D
:102E8000C20AD30A4081518160E070E08091F0066F
:102E90009091F1064A155B056C057D0548F421E02B
:102EA000DC01AC0FBD1F2C9324E630E0318320837E
:102EB000FC01EC0FFD1F1081111102C010E025C0B4
:102EC0000E94D7212091EC063091ED06E20EF31E10
:102ED000F70180809180A280B380DC01CB0188194A
:102EE0009909AA09BB09C297A105B10538F30E9447
:102EF000D721F70160837183828393838091F006E9
:102F00009091F106C80FD91F1882812FDF91CF91C0
:102F10001F910F91FF90EF90DF90CF90BF90AF90F7
:102F20009F908F900895FC01A089B1898C91A6890A
:102F3000B78982FD0FC09C91818D8F5F8F73228D29
:102F4000821749F0218DDF01A20FB11D5D969C9380
:102F5000818F08958C910895EF92FF920F931F93A4
:102F6000CF93DF936115710511F480E01CC041150A
:102F70005105C1F07B01EC018C819D818A01080F14
:102F8000191FB801CE010E949D26882371F3288164
:102F900039818C819D81B701820F931F0E94503F20
:102FA0001D830C8381E0DF91CF911F910F91FF90E2
:102FB000EF900895CF93DF93EC01FB01448155819D
:102FC00060817181C9DF811103C0CE010E94C426D6
:102FD000CE01DF91CF910895CF93DF93EC0161157E
:102FE000710559F0FB0101900020E9F73197AF011D
:102FF000461B570B0E94D62602C00E94C426CE0153
:10300000DF91CF9108950F931F93CF93DF93CDB7A7
:10301000DEB761970FB6F894DEBF0FBECDBF8C014F
:10302000CB01F80111821082138212821582148260
:103030004AE0BE016F5F7F4F0E94C436BE016F5FE2
:103040007F4FC801C9DF61960FB6F894DEBF0FBE8F
:10305000CDBFDF91CF911F910F910895AF92BF9295
:10306000CF92DF92FF920F931F93CF93DF93CDB751
:10307000DEB72C970FB6F894DEBF0FBECDBF8C0124
:103080005B0169EA75E0CE0107960E941727F801F7
:10309000238D348D458D568D6789708D818D928DF0
:1030A0000E94053E1816A4F5F12CF8016789708D71
:1030B000818D928D0E94D43DCE0101960E9468259B
:1030C000CD80DE80F50184819581C81AD90ACE01B0
:1030D00001960E940A278F2D90E08C159D05C0F463
:1030E000BE01695F7F4FCE0101960E940F276CE9F8
:1030F00074E0CE0101960E94E323BC01CE01079645
:103100000E94F526CE0101960E940A27F394CDCFA6
:103110006801F6E0CF0ED11CB601C8010C960E94E2
:10312000F526BE01695F7F4FCE0101960E940F27F1
:10313000B501CE0101963EDFBC01C6010E94F52615
:10314000CE0101960E940A2781E0F8018383CE0117
:1031500007960E940A272C960FB6F894DEBF0FBE82
:10316000CDBFDF91CF911F910F91FF90DF90CF9056
:10317000BF90AF9008958F929F92AF92BF92CF92DF
:10318000DF92EF92FF920F931F93CF93DF9300D0C4
:1031900000D0CDB7DEB78C016A017B01FC0145A3ED
:1031A00056A367A370A7CB01BA010E94D43D4B017F
:1031B0005C01072E000C880B990B0E94403C9B0180
:1031C000AC01C701B6010E946F3D20E030E0A901CB
:1031D0000E943A3C811106C0B401CE0101960E94C2
:1031E000682506C0B701A601CE0101960E943825C8
:1031F000BE016F5F7F4FC80131DFCE0101960E9493
:103200000A2726960FB6F894DEBF0FBECDBFDF911A
:10321000CF911F910F91FF90EF90DF90CF90BF90D3
:10322000AF909F908F9008956F927F928F929F9210
:10323000AF92BF92CF92DF92EF92FF920F931F93C4
:10324000CF93DF9300D000D0CDB7DEB76C013B0148
:103250005A01122F8EE592E0F6019183808381E07E
:103260008283138269EA75E0C60106960E941727D9
:1032700069EA75E0C6010C960E941727F301848065
:1032800083948482912CC401880F991F0E94B738BF
:103290007C0140E0F1E08F1A9108242F30E0F30127
:1032A000828193812815390574F4220F331FFC01A4
:1032B000E20FF31F80819181F701E20FF31F9183E9
:1032C00080834F5FEACF009711F00E944F39F301DE
:1032D000F382E2822481C701820F911D820F911D2A
:1032E000FC013297D182C082B501CE0101960E94C5
:1032F0000F27BE016F5F7F4FC6010E948723CE015B
:1033000001960E940A27F6011483058326960FB6BC
:10331000F894DEBF0FBECDBFDF91CF911F910F910B
:10332000FF90EF90DF90CF90BF90AF909F908F90E5
:103330007F906F900895CF92DF92EF92FF920F935C
:103340001F93CF93DF9300D000D0CDB7DEB77C01C1
:103350006B01122FBA01CE0101960E940F27212F77
:10336000AE014F5F5F4FB601C7015EDFCE01019630
:103370000E940A2784E592E0F70191838083138AF3
:10338000128A26960FB6F894DEBF0FBECDBFDF912E
:10339000CF911F910F91FF90EF90DF90CF90089504
:1033A000CF92DF92EF92FF920F931F93CF93DF9311
:1033B00000D000D0CDB7DEB77C016B01122FBA016F
:1033C000CE0101960E940F27212FAE014F5F5F4F64
:1033D000B601C70129DFCE0101960E940A2780E4C9
:1033E00092E0F7019183808326960FB6F894DEBFB2
:1033F0000FBECDBFDF91CF911F910F91FF90EF9046
:10340000DF90CF900895CF92DF92EF92FF920F93CB
:103410001F93CF93DF9300D000D0CDB7DEB77C01F0
:103420006B01122FBA01CE0101960E940F27212FA6
:10343000AE014F5F5F4FB601C701F6DECE010196C8
:103440000E940A2786E392E0D7018D939C9386E041
:1034500090E00E94B738FC0186E0DF011D928A955A
:10346000E9F71482158286E292E091838083D70186
:103470005396FC93EE93529726960FB6F894DEBFC0
:103480000FBECDBFDF91CF911F910F91FF90EF90B5
:10349000DF90CF900895CF92DF92EF92FF920F933B
:1034A0001F93CF93DF9300D000D0CDB7DEB77C0160
:1034B0006B01142F022F69EA75E0CE0101960E947C
:1034C0001727212FAE014F5F5F4FB601C701ACDE5A
:1034D000CE0101960E940A278AE492E0F7019183C7
:1034E0008083178A108E118E128E138E148E158E75
:1034F000168E80E090E0A0E8BFE3828B938BA48BD4
:10350000B58B15A216A217A210A660E070E0CE013E
:1035100001960E946825BE016F5F7F4FC7019EDD47
:10352000CE0101960E940A27F701168A10A2178E73
:1035300012A211A214A213A226960FB6F894DEBF0F
:103540000FBECDBFDF91CF911F910F91FF90EF90F4
:10355000DF90CF9008957F928F929F92AF92BF920B
:10356000CF92DF92EF92FF920F931F93CF93DF934F
:10357000EC015B016A018A858F5F8A87082F10E062
:103580002CE0829FC001112402960E94B738FC01F2
:10359000019311937F014F010115110511F4712C55
:1035A00010C069EA75E0C4010E941727F401178270
:1035B000168211861086FCE08F0E911C01501109B5
:1035C000EBCF272D30E08A8590E00197088519859B
:1035D0002817390704F52CE0729E40011124080DCC
:1035E000191D8E0C9F1CB801C4010E94F526F8011C
:1035F00086819781F40197838683F8018085918580
:10360000F40191878087F80182859385F40193877F
:1036100082877394D6CF01151105D9F0F80132973E
:10362000208131814CE0429FC001439F900D1124C5
:10363000080F191F98010C50110988859985821768
:10364000930721F0C8010E940A27F4CF02970E9435
:103650004F39F986E8868A8597014CE0849F200DD2
:10366000311D1124C901B5010C970E94F5268885EA
:1036700099852A85FC013CE0239FE00DF11D112472
:103680003C97D186C0862A85FC014CE0249FE00D42
:10369000F11D11243C97178216822A85ECE02E9F9B
:1036A000800D911D1124FC013C9713861286DF9139
:1036B000CF911F910F91FF90EF90DF90CF90BF902F
:1036C000AF909F908F907F9008957F928F929F925E
:1036D000AF92BF92CF92DF92EF92FF920F931F9320
:1036E000CF93DF93EC015B016A018A858F5F8A8744
:1036F000082F10E02CE0829FC001112402960E9446
:10370000B738FC01019311937F014F010115110599
:1037100011F4712C10C069EA75E0C4010E941727EA
:10372000F4011782168211861086FCE08F0E911C20
:1037300001501109EBCF272D30E08A8590E00197E9
:10374000088519852817390704F52CE0729E400179
:103750001124080D191D8E0C9F1CB801C4010E9474
:10376000F526F80186819781F40197838683F80115
:1037700080859185F40191878087F8018285938502
:10378000F401938782877394D6CF01151105D9F080
:10379000F8013297208131814CE0429FC001439F64
:1037A000900D1124080F191F98010C5011098885DC
:1037B00099858217930721F0C8010E940A27F4CF48
:1037C00002970E944F39F986E8868A8597014CE076
:1037D000849F200D311D1124C901B5010C970E9451
:1037E000F526888599852A85FC013CE0239FE00D1C
:1037F000F11D11243C97D782C6822A85FC014CE03A
:10380000249FE00DF11D11243C97118610862A8516
:10381000ECE02E9F800D911D1124FC013C97138636
:103820001286DF91CF911F910F91FF90EF90DF9063
:10383000CF90BF90AF909F908F907F900895EF9220
:10384000FF920F931F93CF93DF9300D000D0CDB79B
:10385000DEB78C017B01FC01138212821582148277
:1038600017821682128616861586108A1786128A85
:10387000118A69EA75E044960E941727F801F182DF
:10388000E08240E855E260E070E0C7010E948203F8
:1038900069EA75E0CE0101960E941727F8011386A8
:1038A00081E08487128611861086CE0101960E94DF
:1038B0000A2726960FB6F894DEBF0FBECDBFDF9164
:1038C000CF911F910F91FF90EF900895BF92CF92EB
:1038D000DF92EF92FF920F931F93CF93DF937C01C0
:1038E0006B018A01E9012417350720F4812F890132
:1038F000C42FD82F69EA75E0C7010E941727D601A7
:1039000014968D919C91159708171907C0F48C1780
:103910009D0708F4EC01D601ED91FC911197EC0F95
:10392000FD1FB08010826D917C91600F711FC701E7
:1039300053DBD601ED91FC91EC0FFD1FB082C70166
:10394000DF91CF911F910F91FF90EF90DF90CF907B
:10395000BF900895FC01538D448D252F30E0842FB6
:1039600090E0821B930B541710F0CF9608950197A7
:103970000895FC01918D828D981761F0828DDF0191
:10398000A80FB11D5D968C91928D9F5F9F73928F52
:1039900090E008958FEF9FEF0895FC01918D828D47
:1039A000981731F0828DE80FF11D858D90E0089514
:1039B0008FEF9FEF0895FC01918D228D892F90E06C
:1039C000805C9F4F821B91098F739927089586E031
:1039D00097E0F1DF21E0892B09F420E0822F0895A0
:1039E00083EA97E0E8DF21E0892B09F420E0822FC9
:1039F000089580E498E0DFDF21E0892B09F420E0DE
:103A0000822F089581EE98E0D6DF21E0892B09F41A
:103A100020E0822F0895FC01848DDF01A80FB11DE5
:103A2000A35ABF4F2C91848D90E001968F739927F4
:103A3000848FA689B7892C93A089B1898C918370D2
:103A400080648C93938D848D981306C00288F389CB
:103A5000E02D80818F7D80830895EF92FF920F93F8
:103A60001F93CF93DF93EC0181E0888F9B8D8C8D2A
:103A7000981305C0E889F989808185FD25C0F62E57
:103A80000B8D10E00F5F1F4F0F731127E02E8C8DF1
:103A9000E8120BC00FB607FCFACFE889F9898081DC
:103AA00085FFF5CFCE01B7DFF2CF8B8DFE01E80F9A
:103AB000F11DE35AFF4FF0829FB7F8940B8FEA890C
:103AC000FB89808180620AC09FB7F894EE89FF89E4
:103AD0006083E889F98980818370806480839FBFD7
:103AE00081E090E0DF91CF911F910F91FF90EF90D7
:103AF0000895CF93DF93EC01888D8823C1F0EA8984
:103B0000FB89808185FD05C0A889B9898C9186FDD6
:103B10000EC00FB607FCF5CF808185FFF2CFA889D4
:103B2000B9898C9185FFEDCFCE0175DFE8CFDF91AC
:103B3000CF91089580E090E0892B19F063DF811127
:103B400016C080E090E0892B19F053DF811112C07C
:103B500080E090E0892B19F043DF81110EC080E0F6
:103B600090E0892B79F033DF81110AC008950E941B
:103B70000000E7CF0E940000EBCF0E940000EFCFD3
:103B80000C94000008953FB7F8948091020790913B
:103B90000307A0910407B091050726B5A89B05C0AF
:103BA0002F3F19F00196A11DB11D3FBFBA2FA92FBC
:103BB000982F8827820F911DA11DB11DBC01CD0139
:103BC00042E0660F771F881F991F4A95D1F7089525
:103BD0000895CB0108957F928F929F92AF92BF92EA
:103BE000CF92DF92EF92FF920F931F93CF93DF93C9
:103BF000EC0149015A018B01C12CD12C7601C8146A
:103C0000D904EA04FB0484F5F80171908F018F85D3
:103C100080FF0BC0E881F9810084F185E02D20E16F
:103C200044E060E070E0CE011995EB85FC858D8560
:103C30009E85E817F90738F470828B859C8501967C
:103C40009C878B870BC0672D70E0E881F981028C1F
:103C5000F38DE02DCE011995019649F02FEFC21A90
:103C6000D20AE20AF20ACBCFB401C50102C0B60102
:103C7000C701DF91CF911F910F91FF90EF90DF90DF
:103C8000CF90BF90AF909F908F907F900895CF93EB
:103C9000DF93EC01E881F9810288F389E02D199521
:103CA0008F3F2FEF920731F02D813E812F5F3F4FE5
:103CB0003E832D83DF91CF9108958FEF9FEF08957D
:103CC00060E070E0CB01089580E090E00895CF932C
:103CD000DF93EC0188899989DC01ED91FC910084E6
:103CE000F185E02D1995892BA9F388899989DC0143
:103CF000ED91FC910284F385E02DDF91CF91199431
:103D0000CF93DF93EC0188899989DC01ED91FC91D7
:103D10000084F185E02D1995892BA9F3888999896B
:103D2000DC01ED91FC910484F585E02DDF91CF91CC
:103D300019948F929F92AF92BF92CF92DF92EF929F
:103D4000FF920F931F93CF93DF938C0149015A0188
:103D5000EB01C12CD12C7601D80150968D919C910C
:103D60005197DC01ED91FC910284F385E02D1995CA
:103D70008F3F61F0C814D904EA04FB043CF4899332
:103D8000BFEFCB1ADB0AEB0AFB0AE6CFC701B6018D
:103D9000DF91CF911F910F91FF90EF90DF90CF9027
:103DA000BF90AF909F908F900895DC0150968D91B9
:103DB0009C915197DC01ED91FC910084F185E02DFF
:103DC000199480E090E0089580E090E0089580E00C
:103DD00090E0089508950E943A3F0F931F93CF9368
:103DE000DF936F3F2FEF720719F480E090E011C06E
:103DF000EB018C016A3031F46DE0F8018089918922
:103E00000E942B276C2FF801808991890E942B2713
:103E1000CE01DF91CF911F910F9108957F928F92E4
:103E20009F92AF92BF92CF92DF92EF92FF920F9349
:103E30001F93CF93DF938C0149015A01EB01C12CF1
:103E4000D12C7601C814D904EA04FB04A4F47990B7
:103E50008AE0781205C06DE0F80180899189FBD76E
:103E6000672DF80180899189F6D7FFEFCF1ADF0A15
:103E7000EF0AFF0AE7CFC501B401DF91CF911F918F
:103E80000F91FF90EF90DF90CF90BF90AF909F90F9
:103E90008F907F900895A6E4B3E01296ED91FC9187
:103EA0001397369720813181820F931F14962D919D
:103EB0003C911597FC01318320830895DC01ED913D
:103EC000FC91369720813181820F931FE4CFCF93ED
:103ED000DF93EC01E0DFCE01DF91CF910C944F39FD
:103EE000DC01ED91FC91369720813181820F931F87
:103EF000EECFAEECB2E01296ED91FC9113973697AF
:103F000020813181820F931F14962D913C9115973A
:103F1000FC01318320830895DC01ED91FC913697FB
:103F200020813181820F931FE4CFCF93DF93EC0187
:103F3000E0DFCE01DF91CF910C944F39DC01ED91A0
:103F4000FC91369720813181820F931FEECF0C9424
:103F50004F39089508950C944F39DC01ED91FC918F
:103F6000369720813181820F931FF5CF0C944F3902
:103F7000CF93DF93EC010E94B80FCE01DF91CF9178
:103F80000C944F39DC01ED91FC9136972081318101
:103F9000820F931FEDCFDC01ED91FC9136972081CC
:103FA0003181820F931F0C94B80F1F920F920FB69E
:103FB0000F9211240BB60F922F933F934F935F9361
:103FC0006F937F938F939F93AF93BF93EF93FF93E1
:103FD00086E097E020DDFF91EF91BF91AF919F9137
:103FE0008F917F916F915F914F913F912F910F90A2
:103FF0000BBE0F900FBE0F901F9018951F920F923F
:104000000FB60F9211240BB60F922F933F934F933D
:104010005F936F937F938F939F93AF93BF93EF9330
:10402000FF9386E097E00E949317FF91EF91BF9175
:10403000AF919F918F917F916F915F914F913F9140
:104040002F910F900BBE0F900FBE0F901F901895E1
:104050001F920F920FB60F9211240BB60F922F934F
:104060003F934F935F936F937F938F939F93AF9300
:10407000BF93EF93FF9383EA97E0CDDCFF91EF913D
:10408000BF91AF919F918F917F916F915F914F9170
:104090003F912F910F900BBE0F900FBE0F901F906E
:1040A00018951F920F920FB60F9211240BB60F9214
:1040B0002F933F934F935F936F937F938F939F9330
:1040C000AF93BF93EF93FF9383EA97E00E94931718
:1040D000FF91EF91BF91AF919F918F917F916F91E0
:1040E0005F914F913F912F910F900BBE0F900FBE9C
:1040F0000F901F9018951F920F920FB60F921124D8
:104100000BB60F922F933F934F935F936F937F93D1
:104110008F939F93AF93BF93EF93FF9380E498E0C7
:104120007ADCFF91EF91BF91AF919F918F917F9139
:104130006F915F914F913F912F910F900BBE0F9018
:104140000FBE0F901F9018951F920F920FB60F92EF
:1041500011240BB60F922F933F934F935F936F935E
:104160007F938F939F93AF93BF93EF93FF9380E4DD
:1041700098E00E949317FF91EF91BF91AF919F91AB
:104180008F917F916F915F914F913F912F910F9000
:104190000BBE0F900FBE0F901F9018951F920F929D
:1041A0000FB60F9211240BB60F922F933F934F939C
:1041B0005F936F937F938F939F93AF93BF93EF938F
:1041C000FF9381EE98E027DCFF91EF91BF91AF91D3
:1041D0009F918F917F916F915F914F913F912F911F
:1041E0000F900BBE0F900FBE0F901F9018951F924F
:1041F0000F920FB60F9211240BB60F922F933F938D
:104200004F935F936F937F938F939F93AF93BF93DE
:10421000EF93FF9381EE98E00E949317FF91EF9147
:10422000BF91AF919F918F917F916F915F914F91CE
:104230003F912F910F900BBE0F900FBE0F901F90CC
:10424000189590E0FC013197E231F10508F04EC07D
:104250008827EE58FF4F8F4F0C943E3E8091800090
:104260008F7703C0809180008F7D809380000895B8
:1042700080918000877FF9CF84B58F7702C084B5A5
:104280008F7D84BD08958091B0008F7703C08091A9
:10429000B0008F7D8093B0000895809190008F775B
:1042A00007C0809190008F7D03C080919000877F30
:1042B0008093900008958091A0008F7707C080912F
:1042C000A0008F7D03C08091A000877F8093A00015
:1042D0000895809120018F7707C0809120018F7D04
:1042E00003C080912001877F809320010895CF93A0
:1042F000DF93282F30E0F901E350FD4F8491F9015D
:10430000E954FD4FD491F901EF58FD4FC491CC23EE
:1043100089F0811196DFEC2FF0E0EE0FFF1FED5BCF
:10432000FC4FA591B491EC91ED2381E090E021F454
:1043300080E002C080E090E0DF91CF9108958F92FD
:104340009F92AF92BF92CF92DF92EF92FF926B015A
:104350007C0119DC4B015C01C114D104E104F104BE
:10436000E9F011DCDC01CB0188199909AA09BB0924
:10437000883E9340A105B10578F321E0C21AD10827
:10438000E108F10888EE880E83E0981EA11CB11C9C
:10439000C114D104E104F10421F7DECFFF90EF90C6
:1043A000DF90CF90BF90AF909F908F9008952FB7E0
:1043B000F8946091FE067091FF068091000790913D
:1043C00001072FBF08951F920F920FB60F9211246D
:1043D0002F933F938F939F93AF93BF938091FE064C
:1043E0009091FF06A0910007B09101073091FD0662
:1043F00023E0230F2D3720F40196A11DB11D05C028
:1044000026E8230F0296A11DB11D2093FD0680937F
:10441000FE069093FF06A0930007B09301078091DA
:10442000020790910307A0910407B0910507019638
:10443000A11DB11D8093020790930307A093040769
:10444000B0930507BF91AF919F918F913F912F91AD
:104450000F900FBE0F901F9018951F920F920FB6DE
:104460000F9211240BB60F922F933F934F935F93AC
:104470006F937F938F939F93AF93BF93EF93FF932C
:10448000E0910E02F0910F021995FF91EF91BF910B
:10449000AF919F918F917F916F915F914F913F91DC
:1044A0002F910F900BBE0F900FBE0F901F9018957D
:1044B0001F920F920FB60F9211240BB60F922F93EB
:1044C0003F934F935F936F937F938F939F93AF939C
:1044D000BF93EF93FF93E0910C02F0910D021995B9
:1044E000FF91EF91BF91AF919F918F917F916F91CC
:1044F0005F914F913F912F910F900BBE0F900FBE88
:104500000F901F9018951F920F920FB60F921124C3
:104510000BB60F922F933F934F935F936F937F93BD
:104520008F939F93AF93BF93EF93FF93E09102021A
:10453000F09103021995FF91EF91BF91AF919F9177
:104540008F917F916F915F914F913F912F910F903C
:104550000BBE0F900FBE0F901F9018951F920F92D9
:104560000FB60F9211240BB60F922F933F934F93D8
:104570005F936F937F938F939F93AF93BF93EF93CB
:10458000FF93E0910002F09101021995FF91EF91E4
:10459000BF91AF919F918F917F916F915F914F915B
:1045A0003F912F910F900BBE0F900FBE0F901F9059
:1045B00018951F920F920FB60F9211240BB60F92FF
:1045C0002F933F934F935F936F937F938F939F931B
:1045D000AF93BF93EF93FF93E0910A02F0910B0228
:1045E0001995FF91EF91BF91AF919F918F917F911D
:1045F0006F915F914F913F912F910F900BBE0F9054
:104600000FBE0F901F9018951F920F920FB60F922A
:1046100011240BB60F922F933F934F935F936F9399
:104620007F938F939F93AF93BF93EF93FF93E0910B
:104630000802F09109021995FF91EF91BF91AF9196
:104640009F918F917F916F915F914F913F912F91AA
:104650000F900BBE0F900FBE0F901F9018951F92DA
:104660000F920FB60F9211240BB60F922F933F9318
:104670004F935F936F937F938F939F93AF93BF936A
:10468000EF93FF93E0910602F09107021995FF91D5
:10469000EF91BF91AF919F918F917F916F915F91BA
:1046A0004F913F912F910F900BBE0F900FBE0F9027
:1046B0001F9018951F920F920FB60F9211240BB6F0
:1046C0000F922F933F934F935F936F937F938F93AB
:1046D0009F93AF93BF93EF93FF93E0910402F09108
:1046E00005021995FF91EF91BF91AF919F918F9125
:1046F0007F916F915F914F913F912F910F900BBEE2
:104700000F900FBE0F901F90189508950895EF9287
:10471000FF920F931F93CF93DF93EC017B018C01EA
:104720000A5F1F4FB8010C9660D3B701C8015DD373
:1047300081E08B83DF91CF911F910F91FF90EF90DC
:104740000895AC0120918C09E0918A09F0918B09C0
:1047500090E0291749F0608171816417750709F4A9
:1047600016829F5F3796F5CF0895CF93DF93CDB72D
:10477000DEB728970FB6F894DEBF0FBECDBF9C0101
:1047800088E0E4E6F2E0DE01119601900D928A9550
:10479000E1F7F9018085841710F44FEF480FFE010F
:1047A0003196E40FF11DE40FF11D9081690F6068EF
:1047B000C90128960FB6F894DEBF0FBECDBFDF91BA
:1047C000CF910C942F12CF93DF93EC0161157105FB
:1047D00061F0FB0101900020E9F73197AF01461B22
:1047E000570B0E94AC17811102C0CE01CDD2CE0171
:1047F000DF91CF910895FC016681262F22602683E8
:104800006A600C942F12FF920F931F93CF93DF9344
:104810009093B3098093B209C0E0D1E0E091B2096E
:10482000F091B3098481C817D0F492818381E92F74
:10483000F82FEC0FF11DEC0FF11D80819181DC014F
:10484000ED91FC910480F581E02D1995019729F0F7
:10485000E091B209F091B309D583CF5FDFCF8091AA
:10486000B0098F3F41F0248180919409909195097E
:10487000211118C01AC020919B09A0919909B091EB
:104880009A0980E090E0281751F04D915D91E4176E
:10489000F50719F48093B10991E08F5FF4CF91117E
:1048A000E2CF70C02581211110C010929809FC013F
:1048B00066816D7F668368600E942F12A091B209A5
:1048C000B091B30980E091E046C021E020939809BF
:1048D00092DFD4E684E6F82EC0E0E091B209F091D0
:1048E000B3098481C81790F592818381E92FF82F4D
:1048F000EC0FF11DEC0FF11D00811181D801ED913C
:10490000FC910480F581E02DC80119950197E1F033
:10491000F8012581422F50E08D2F0D2E000C990BB0
:104920004817590751F4848190E04F2D0F2C000C4B
:10493000550B8417950724F007C04817590724F42E
:10494000D8011496FC90D22FCF5FC7CFF092960972
:10495000D0939709B3CF14962C911497821790F4A3
:1049600012963C91129713962C911397E32FF22FE6
:10497000E80FF11DE80FF11D0190F081E02D938308
:104980008F5FE9CFDF91CF911F910F91FF90089535
:104990000F931F93CF93DF938C0190918C092091FB
:1049A0008A0930918B09D901F90180E041E098171B
:1049B00069F0608171816017710729F44683628113
:1049C0007381758364838F5F3796F1CF60918F0910
:1049D00070919009F90140E060957095941789F005
:1049E0008681882359F0C081D1810C171D0731F0D1
:1049F000C481D581C60FD71FD583C4834F5F379637
:104A0000EDCF1092930981E08917D8F41D964C914F
:104A10001D97442399F040919309F90157E0459F70
:104A2000E00DF11D11241B966D917C911C97448122
:104A300055816417750710F4809393098F5F17965B
:104A4000E3CF80919309F90197E0899FE00DF11D73
:104A500011248481958190939209809391091092F9
:104A6000900910928F09DF91CF911F910F910895B6
:104A7000EF92FF920F931F93CF93DF93CDB7DEB7E3
:104A8000A1970FB6F894DEBF0FBECDBF7C01CB015E
:104A9000BA01F701118210821382128215821482E8
:104AA0008E010F5F1F4F22E044E00E949836BC0148
:104AB000C7010E94EC17A1960FB6F894DEBF0FBE97
:104AC000CDBFDF91CF911F910F91FF90EF9008958F
:104AD0000F931F93CF93DF93CDB7DEB762970FB6D7
:104AE000F894DEBF0FBECDBF8C01CB01F80111825F
:104AF000108213821282158214824AE0BE016F5F17
:104B00007F4F0E94BA36BE016F5F7F4FC8010E947F
:104B1000EC1762960FB6F894DEBF0FBECDBFDF91E3
:104B2000CF911F910F910895EF92FF920F931F93D2
:104B3000CF93DF93CDB7DEB72C970FB6F894DEBFD7
:104B40000FBECDBF7C0169EA75E0CE0107966FD13B
:104B5000F70180899189009711F4128501C0182FFF
:104B600000E01017A1F0BE01695F7F4FCE010196F2
:104B700056D16BE875E0CE01019625DEBC01CE0171
:104B8000079633D1CE01019645D10F5FEACFF701E9
:104B9000458164818091940990919509E6DDBE017B
:104BA000695F7F4F80919409909195095BD1CE0107
:104BB000079630D12C960FB6F894DEBF0FBECDBF4E
:104BC000DF91CF911F910F91FF90EF9008951F9368
:104BD000CF93DF938091B1098F3F39F46AEA75E092
:104BE00080919409909195094BD110E0E091B20920
:104BF000F091B3098481181770F592818381E92FB0
:104C0000F82FE10FF11DE10FF11DC081D1818B81E2
:104C10008823F9F08A81811103C0CE0185DF18C095
:104C2000288939898A859B858217930710F4CE01DC
:104C30007BDF4D816C81809194099091950995DD80
:104C4000BE016A5F7F4F80919409909195090AD1C6
:104C50001B821F5FCBCF409197096091960980918D
:104C6000940990919509DF91CF911F917ECD80910C
:104C7000B4099091B509892BA9F580919409909177
:104C800095090E943F12E091B009EF3FF1F4809145
:104C9000B1098F5F8093B10920919B0930E0082E04
:104CA000000C990B2817390711F41092B109E09103
:104CB000B109EE0FFF0B8091990990919A09E80FC5
:104CC000F91F808191819FDD0CC0EE0FFF0BE45630
:104CD000F64F8081918197DD8091B009815080935A
:104CE000B00975CF0895CF92DF92EF92FF920F93A4
:104CF0001F93CF93DF936C017A018B01C0E0D0E06A
:104D0000CE15DF0581F0D8016D918D01D601ED91B1
:104D1000FC910190F081E02DC6011995892B11F0CD
:104D20002196EECF7E01C701DF91CF911F910F91A8
:104D3000FF90EF90DF90CF9008950F931F93CF9344
:104D4000DF93EC0188819981009729F02A813B81CA
:104D50002617370788F48B016F5F7F4F0E945A3EFA
:104D6000009761F0998388831B830A832C813D819E
:104D7000232B11F4FC01108281E001C080E0DF915F
:104D8000CF911F910F910895CF93DF93EC0188810C
:104D90009981009711F00E944F39198218821D8263
:104DA0001C821B821A82DF91CF910895EF92FF92AD
:104DB0000F931F93CF93DF93EC017B018A01BA011C
:104DC000BCDF811103C0CE01DFDF07C01D830C8370
:104DD000B701888199810E94503FCE01DF91CF9128
:104DE0001F910F91FF90EF900895CF93DF93EC0107
:104DF000FB018617970751F060817181611571057C
:104E000021F044815581D2DF01C0BEDFCE01DF91A8
:104E1000CF910895FC01808191810C944F39FC0160
:104E2000118210821382128215821482DECFFC015D
:104E3000118210821382128215821482611571050B
:104E400049F0FB0101900020E9F73197AF01461BC3
:104E5000570BACCF0895DC01ED91FC910190F081EE
:104E6000E02D1994DB0114964D915C9115976D918D
:104E70007C91DC01ED91FC910280F381E02D19948D
:104E80006115710579F0FB0101900020E9F7319778
:104E9000AF01461B570BDC01ED91FC910280F381C1
:104EA000E02D199480E090E008950F931F93CF9325
:104EB000DF93EC01E5DF8C0167EA75E0CE01E0DF0E
:104EC000800F911FDF91CF911F910F910895CF9384
:104ED000DF93CDB7DEB76A970FB6F894DEBF0FBE8B
:104EE000CDBF789484B5826084BD84B5816084BD73
:104EF00085B5826085BD85B5816085BD80916E0078
:104F0000816080936E0010928100809181008260A8
:104F100080938100809181008160809381008091E5
:104F200080008160809380008091B10084608093D4
:104F3000B1008091B00081608093B00080919100B9
:104F400082608093910080919100816080939100B4
:104F5000809190008160809390008091A100826098
:104F60008093A1008091A10081608093A100809135
:104F7000A00081608093A0008091210182608093D5
:104F80002101809121018160809321018091200184
:104F900081608093200180917A00846080937A0000
:104FA00080917A00826080937A0080917A0081609B
:104FB00080937A0080917A00806880937A001092C2
:104FC000C10083E192E090932106809320068CE05B
:104FD00092E0909323068093220685E092E09093DE
:104FE0002506809324068EEF91E090931B06809314
:104FF0001A0687EF91E090931D0680931C0680EFC0
:1050000091E090931F0680931E0640E855E260E011
:1050100070E081EE98E00E94820340E855E260E093
:1050200070E080E498E00E94820340E855E260E08E
:1050300070E083EA97E00E94820340E855E260E076
:1050400070E086E097E00E94820361EE78E0CE0196
:1050500001960E941F1CBE016F5F7F4F82EC99E09A
:105060000E94F614CE0101960E94661260E478E078
:10507000CE0101960E941F1CBE016F5F7F4F8CED19
:1050800099E00E94F614CE0101960E94661263EA2E
:1050900077E0CE0101960E941F1CBE016F5F7F4F1B
:1050A00086EF99E00E94F614CE0101960E946612E6
:1050B00066E077E0CE0101960E941F1CBE016F5F83
:1050C0007F4F80E19AE00E94F614CE0101960E9483
:1050D000661280E498E09093C5098093C40983EA3E
:1050E00097E09093C7098093C60986E097E0909374
:1050F000C9098093C80940E855E260E070E080E4A7
:1051000098E00E94820340E855E260E070E0809100
:10511000C6099091C7090E94820340E855E260E009
:1051200070E08091C8099091C9090E94820381E0D2
:105130008093CD0901EE18E01093DF090093DE099A
:1051400040E855E260E070E0C8010E9482031093DD
:10515000F9090093F80940E855E260E070E0C80101
:105160000E9482031093130A0093120A40E855E24A
:1051700060E070E0C8010E9482036CE673E0CE013B
:10518000019655DE43E752E0BE016F5F7F4F82EC30
:1051900099E00E94651BCE0101963CDEB0E2EB2E49
:1051A000B6E0FB2E1AE1C12E16E0D12E0CED19E06F
:1051B00082EDA82E85E0B82E9EEC692E95E0792E22
:1051C0002AEC422E25E0522ED7018D909D907D0134
:1051D00064E773E0CE0101962ADEA401BE016F5F91
:1051E0007F4FC8010E94651BCE01019613DEF601B8
:1051F000819091906F016DE773E0CE01019617DE0B
:10520000A401BE016F5F7F4FC8010E94651BCE01E4
:10521000019600DE69E873E0CE01019608DE40EBFE
:105220005BE0BE016F5F7F4FC8010E94651BCE012E
:105230000196F0DD61E375E0CE010196F8DD4EEDFB
:1052400055E0BE016F5F7F4FC8010E94AB1ACE01CF
:105250000196E0DD69E375E0CE010196E8DD4AEDF7
:1052600055E0BE016F5F7F4FC8010E94AB1ACE01AF
:105270000196D0DD6CE873E0CE010196D8DD46EDF5
:1052800055E0BE016F5F7F4FC8010E94AB1ACE018F
:105290000196C0DDD8011E96BC92AE921D97509625
:1052A0007C926E921F9752965C924E925197065E38
:1052B0001F4FB6E2EB16B6E0FB0609F085CF86E09D
:1052C00090E00E94B738FC0116E0DC01212F1D920E
:1052D0002A95E9F714821582A6E2EA2EA2E0FA2EB8
:1052E000F182E082909319068093180662E973E0D8
:1052F000CE0101969CDD82E190E00E94B73860917A
:1053000018067091190600E02EE0AE014F5F5F4F66
:105310000E94D019CE0101967DDD67E973E0CE01D0
:10532000019685DD82E190E00E94B7386091180611
:105330007091190627E0AE014F5F5F4F0E94D019B0
:10534000CE01019667DD6CE973E0CE0101966FDD59
:1053500082E190E00E94B7386091180670911906BA
:1053600020E0AE014F5F5F4F0E94D019CE01019641
:1053700051DD60EC73E0CE01019659DD82E190E0F1
:105380000E94B7386C01609118067091190601E00F
:105390002EE0AE014F5F5F4F0E94D019D092C90539
:1053A000C092C805CE01019635DD60EC73E0CE01F8
:1053B00001963DDD82E190E00E94B7386C0160917A
:1053C00018067091190627E0AE014F5F5F4F0E94EB
:1053D000D019D092C705C092C605CE0101961ADD3C
:1053E00060EC73E0CE01019622DD82E190E00E9444
:1053F000B7386C01609118067091190620E0AE0173
:105400004F5F5F4F0E94D019D092C505C092C4056E
:10541000CE010196FFDC61EA73E0CE01019607DD63
:1054200084E190E00E94B7386C0160911806709199
:10543000190602E020E0AE014F5F5F4F0E949B190A
:10544000D0921706C0921606CE010196E3DCE091D9
:105450001606F091170689E59BE0938B828B66EA2E
:1054600073E0CE010196E3DC84E190E00E94B7385E
:105470006C01609118067091190620E1AE014F5F32
:105480005F4F0E949B19D0921506C0921406CE0160
:105490000196C0DCE0911406F091150681EF9AE0C8
:1054A000938B828B6BEA73E0CE010196C0DC82E1C4
:1054B00090E00E94B7386C0160911806709119064F
:1054C00003E020E0AE014F5F5F4F0E94D019D09201
:1054D000E305C092E205CE0101969CDC86E090E0F7
:1054E0000E94B738FC01DC01212F1D922A95E9F7B3
:1054F00014821582F182E082909313068093120643
:1055000065EB73E0CE01019692DC82E190E00E94AF
:10551000B738609112067091130600E020E0AE01EA
:105520004F5F5F4F0E94D019CE01019673DC89E274
:1055300090E00E94B7386C016091120670911306DA
:1055400020E042E00E944B1AD092C305C092C205EF
:1055500082ED95E0D60192969C938E93919784E983
:105560009DE090969C938E935F9768EB73E0CE01DD
:1055700001965DDC82E190E00E94B73860911206EE
:10558000709113062AE0AE014F5F5F4F0E94D01961
:10559000CE0101963FDC89E290E00E94B7386C01B1
:1055A000609112067091130620E04CE00E944B1AA5
:1055B000D092C105C092C0058EEC95E0F60192A391
:1055C00081A380E09DE090A3878F6BEB73E0CE0119
:1055D00001962DDC82E190E00E94B73860911206BE
:1055E0007091130601E020E0AE014F5F5F4F0E9413
:1055F000D019CE0101960EDC89E290E00E94B73806
:105600006C01609112067091130621E042E00E9445
:105610004B1AD092BF05C092BE058AEC95E0D60128
:1056200092969C938E9391978CE69CE090969C9397
:105630008E935F976EEB73E0CE010196F8DB84E109
:1056400090E00E94B7386C016091120670911306C9
:105650002AE0AE014F5F5F4F0E94031AD092E5052A
:10566000C092E405CE010196D5DB65EC73E0CE0176
:105670000196DDDB82E190E00E94B738E091E4051D
:10568000F091E5056289738900E024E0AE014F5F87
:105690005F4F0E94D019CE010196BCDB68EE74E02A
:1056A000CE010196C4DB84E190E00E94B7386C0122
:1056B000E091E405F091E5056289738901E020E05D
:1056C000AE014F5F5F4F0E949B19D0921106C092AE
:1056D0001006CE0101969EDBE0911006F0911106B6
:1056E0008CEF97E0938B828B6FED74E0CE01019687
:1056F0009EDB84E190E00E94B7386C01E091E40504
:10570000F091E5056289738902E020E0AE014F5F08
:105710005F4F0E949B19D0920F06C0920E06CE01D9
:10572000019678DBE0910E06F0910F0682ED97E08E
:10573000938B828B68ED74E0CE01019678DB84E177
:1057400090E00E94B7386C01E091E405F091E50526
:105750006289738903E020E0AE014F5F5F4F0E94D2
:105760009B19D0920D06C0920C06CE01019652DB19
:10577000E0910C06F0910D0688EA97E0938B828BFE
:1057800063ED73E0CE01019652DB84E190E00E946C
:10579000B7386C01609112067091130602E020E0A8
:1057A000AE014F5F5F4F0E94031AD0920B06C0926A
:1057B0000A06CE0101962EDB6EED73E0CE01019656
:1057C00036DB82E190E00E94B738E0910A06F09162
:1057D0000B066289738900E024E0AE014F5F5F4FE2
:1057E0000E94D019CE01019615DB6AEE73E0CE015E
:1057F00001961DDB84E190E00E94B7386C01E091D6
:105800000A06F0910B066289738901E020E0AE017F
:105810004F5F5F4F0E949B19D0920906C092080605
:10582000CE010196F7DAE0910806F09109068AEEBA
:1058300092E0938B828B65EF73E0CE010196F7DAED
:1058400084E190E00E94B7386C01E0910A06F09183
:105850000B066289738902E020E0AE014F5F5F4F63
:105860000E949B19D0920706C0920606CE010196AF
:10587000D1DAE0910606F091070684EB92E0938B73
:10588000828B60E074E0CE010196D1DA84E190E091
:105890000E94B7386C01E0910A06F0910B0662890C
:1058A000738903E020E0AE014F5F5F4F0E949B19B8
:1058B000D0920506C0920406CE010196ABDAE091C3
:1058C0000406F09105068EE792E0938B828B69EADD
:1058D00075E0CE010196ABDA82E190E00E94B73824
:1058E0006C01609112067091130620E0AE014F5FCB
:1058F0005F4F0E94D019D092F705C092F605CE01F5
:10590000019688DA86E090E00E94B738FC01DC015D
:10591000212F1D922A95E9F714821582F182E082E7
:1059200090930306809302066BE074E0CE0101962B
:105930007EDA84E190E00E94B7386C016091020643
:105940007091030601E020E0AE014F5F5F4F0E94BF
:105950009B19D0920106C0920006CE0101965ADA38
:10596000E0910006F09101068BE996E0938B828B23
:1059700065E174E0CE0101965ADA82E190E00E947E
:10598000B7386C0160910206709103062BE0AE01FE
:105990004F5F5F4F0E94D019D092BD05C092BC05E9
:1059A000CE01019637DA6DE174E0CE0101963FDA5F
:1059B00084E190E00E94B7386C016091020670911A
:1059C000030602E020E0AE014F5F5F4F0E949B198B
:1059D000D092BB05C092BA05CE0101961BDAE091C8
:1059E000BA05F091BB0586E496E0938B828B61E269
:1059F00074E0CE0101961BDA84E190E00E94B73892
:105A00006C0160910206709103062EE0AE014F5FBB
:105A10005F4F0E949B19D092FF05C092FE05CE01F8
:105A20000196F8D9E091FE05F091FF0582EE95E030
:105A3000938B828B86E090E00E94B738FC01DC01FA
:105A40001D921A95E9F714821582F182E0829093F3
:105A5000FD058093FC0567E274E0CE010196E7D96D
:105A600082E190E00E94B7386091FC057091FD05DD
:105A700000E026E0AE014F5F5F4F0E94D019CE01DB
:105A80000196C8D96FE274E0CE010196D0D982E1C7
:105A900090E00E94B7386091FC057091FD0501E02F
:105AA00020E0AE014F5F5F4F0E94D019CE010196FA
:105AB000B1D989E290E00E94B7388C016091FC0571
:105AC0007091FD0521E044E00E944B1A1093B90546
:105AD0000093B8058EED95E0F80192A381A382E1D1
