:10000000B0C100000C945A230C942F230C940423A9
:100010000C94D9220C94AE220C9483220C94582276
:100020000C942D22CFC10000CDC10000CBC1000037
:10003000C9C10000C7C10000C5C100000C94F71081
:10004000C1C10000BFC10000BDC10000BBC10000B4
:10005000B9C10000B7C10000B5C100000C94E32194
:10006000B1C100000C94F7200C94CE20ABC100006D
:10007000A9C10000A7C10000A5C10000A3C10000E4
:10008000A1C100009FC100009DC100009BC10000F4
:100090000C94A4200C947B2095C100000C94C60FF6
:1000A00091C100008FC100008DC100008BC1000014
:1000B00089C1000087C1000085C1000083C1000024
:1000C00081C100007FC100007DC100000C9451205F
:1000D0000C94282077C100000C94FE1F0C94D51FAF
:1000E00071C100003C213F212E213221382176218F
:1000F000432147214D21512155215B215F2163215E
:10010000762169216D2171214E414E494E49545944
:10011000494E46CDCCCC3D0AD7233C17B7D13877D2
:10012000CC2B329595E6241FB14F0A0000204100E8
:1001300000C84200401C4620BCBE4CCA1B0E5AAE32
:10014000C59D7400407A10F35A00A0724E18090041
:1001500010A5D4E80000E87648170000E40B54022C
:100160000000CA9A3B000000E1F505000080969867
:1001700000000040420F000000A0860100000010B7
:100180002700000000E803000000006400000000F9
:10019000000A00000000000100000000002C76D8DA
:1001A00088DC674F0823DFC1DFAE59E1B1B796E5C0
:1001B000E3E453C63AE651997696E8E6C28426EB24
:1001C000898C9B62ED407C6FFCEFBC9C9F40F2BA37
:1001D000A56FA5F490055A2AF75C936B6CF9676DCF
:1001E000C11BFCE0E40D47FEF520E6B500D0ED9024
:1001F0002E0300943577050080841E080000204EF1
:100200000A000000C80C333333330F986E12831189
:1002100041EF8D2114893BE65516CFFEE6DB18D160
:10022000844B381BF77C1D901DA4BBE42420328432
:10023000725E228100C9F124ECA1E53D2700002176
:1002400000240027002A002D0030003300010100A7
:1002500000040107010A0100002200250028002BEC
:10026000002E003100340002010000050108010BDE
:100270000105050505070508080808020202020A2B
:100280000A08080404040401010101010101010339
:1002900003030303030303040707070C0C0C0C0CF4
:1002A0000C0C0C0202020206060606060606060BE7
:1002B0000B0B0B0B0B0B0B0102102020080810205E
:1002C00040102040800201020108040201010204E2
:1002D00008102040808040201008040201800402A1
:1002E00001804020100804020108040201010204F8
:1002F0000810204080010204081020408000000AFD
:100300000B02090C0D0E0807030401000000000099
:1003100000000000000000000000000000000000DD
:10032000000000000000000000121110000000009A
:1003300000000000000000000000000000000000BD
:10034000000000000020002300260029002C002FC0
:100350000032000001000003010601090100B7346A
:100360009A3411241FBECFEFD1E2DEBFCDBF00E033
:100370000CBF15E0A0E0B2E0ECE2FEE700E00BBF4E
:1003800002C007900D92A038B107D9F72AE0A0E883
:10039000B5E001C01D92A336B207E1F711E0C0EB52
:1003A000D1E000E006C021970109802FFE010E94E4
:1003B000EC3DCF3AD10780E00807A9F70E946727F4
:1003C0000C94053F1DCE82E090E0089583E090E01C
:1003D000089581E090E0089580E090E00895089508
:1003E00082E090E09093BB058093BA05089582E087
:1003F00090E09093B9058093B805089582E090E06D
:100400009093B7058093B605089581E090E09093AE
:10041000BB058093BA05089581E090E09093B905FB
:100420008093B805089581E090E09093B70580939C
:10043000B60508954091A2055091A3056091A405C9
:100440007091A50580919205909193050E94BB182B
:1004500040919E0550919F056091A0057091A10566
:1004600080919005909191050E94BB1840919A054A
:1004700050919B0560919C0570919D0580918E0522
:1004800090918F050C94BB188091B6059091B7059B
:10049000019779F08091B8059091B905019761F0C5
:1004A0008091BA059091BB050197E1F482E090E05C
:1004B00005C080E090E002C081E090E022E030E002
:1004C0003093BD052093BC052AE1289FF001299FA8
:1004D000F00D1124E655F64F62E774E080819181BA
:1004E0000C945527089567E774E08FEA98E00C9420
:1004F000552789E792E00E94A1239CCFE0919205C5
:10050000F091930580E090E0A0E8BFE3828B938BAD
:10051000A48BB58BE0919005F0919105828B938B24
:10052000A48BB58BE0918E05F0918F05828B938B18
:10053000A48BB58BE0918605F0918705828B938B18
:10054000A48BB58BE0918405F0918505828B938B0C
:10055000A48BB58BE0918205F0918305828B938B00
:10056000A48BB58B0C943726E0919205F0919305FE
:1005700080E090E0A0E2B1E4828B938BA48BB58BFA
:10058000E0919005F0919105828B938BA48BB58BB4
:10059000E0918E05F0918F05828B938BA48BB58BA8
:1005A000E0918605F0918705828B938BA48BB58BA8
:1005B000E0918405F0918505828B938BA48BB58B9C
:1005C000E0918205F0918305828B938BA48BB58B90
:1005D0000C943726E0919205F091930580E090E02D
:1005E000A8E4B2E4828B938BA48BB58BE091900549
:1005F000F0919105828B938BA48BB58BE0918E0546
:10060000F0918F05828B938BA48BB58BE09186053F
:10061000F0918705828B938BA48BB58BE091840539
:10062000F0918505828B938BA48BB58BE09182052D
:10063000F0918305828B938BA48BB58B0C9437261A
:100640008091BE05811105C01092C1051092C005B0
:1006500008958091BF050E9477212091C0053091B7
:10066000C105019719F42150310902C02F5F3F4F96
:100670003093C1052093C00508950F931F93CF9326
:100680008C018EE292E0D8018D939C93C0E0F8013A
:10069000248182819381C21790F4FC01EC0FF11D3B
:1006A000EC0FF11D80819181009739F0DC01ED9113
:1006B000FC910280F381E02D1995CF5FE8CF009780
:1006C00029F0CF911F910F910C94FD38CF911F917C
:1006D0000F910895CF93DF93EC01CFDFCE01DF912F
:1006E000CF910C94FD3826E232E0FC013183208367
:1006F000C4CFCF93DF93EC01F6DFCE01DF91CF9132
:100700000C94FD38CF92DF92EF92FF92CF93DF935C
:10071000EC016A017B01E889F98982E08083411557
:10072000514E61057105B1F060E079E08DE390E034
:10073000A70196010E94CA3DDA01C9010197A109EA
:10074000B109B695A795979587959C01211580E1EC
:100750003807A8F0E889F989108260E874E88EE12A
:1007600090E0A70196010E94CA3DDA01C9010197F4
:10077000A109B109B695A795979587959C01EC8538
:10078000FD853083EE85FF852083188EEC89FD89F9
:1007900086E08083EA89FB89808180618083EA89A1
:1007A000FB89808188608083EA89FB8980818068F9
:1007B0008083EA89FB8980818F7D8083DF91CF915F
:1007C000FF90EF90DF90CF900895CF93DF93EC01EF
:1007D0008EE592E099838883CE010C960E940A27C9
:1007E000CE010696DF91CF910C940A27CF93DF9329
:1007F000EC01EBDFCE01DF91CF910C94FD3824E5C5
:1008000032E0FC0131832083E0CFCF93DF93EC0112
:1008100086E392E0998388838A899B89009739F0DF
:10082000DC01ED91FC910280F381E02D1995CE0160
:10083000DF91CF91CACFCF93DF93EC01E6DFCE01FA
:10084000DF91CF910C94FD38CF93DF93CDB7DEB716
:1008500068970FB6F894DEBF0FBECDBFE09182055A
:10086000F091830545A156A167A170A5CE010D9613
:100870000E94382565E874E0CE0101960E94172792
:10088000BE016F5F7F4FCE0107960E940F27BE010A
:10089000635F7F4FCE0107960E94DA17BC01CE013D
:1008A00043960E940F27CE0107960E940A27CE0189
:1008B00001960E940A27CE010D960E940A27809178
:1008C000B6059091B705029779F08091B80590919F
:1008D000B905029761F08091BA059091BB05029726
:1008E000E9F482E090E005C080E090E002C081E0A1
:1008F00090E022E030E03093BD052093BC052AE172
:10090000289FF001299FF00D1124E655F64FBE01F6
:100910006D5E7F4F808191810E94E214CE014396EB
:100920000E940A2768960FB6F894DEBF0FBECDBFAF
:10093000DF91CF910895CF93DF93CDB7DEB768975E
:100940000FB6F894DEBF0FBECDBFE0918405F091E5
:10095000850545A156A167A170A5CE010D960E94FF
:1009600038256EE874E0CE0101960E941727BE017B
:100970006F5F7F4FCE0107960E940F27BE01635F16
:100980007F4FCE0107960E94DA17BC01CE01439635
:100990000E940F27CE0107960E940A27CE010196DA
:1009A0000E940A27CE010D960E940A278091B60563
:1009B0009091B705019779F08091B8059091B905AC
:1009C000019761F08091BA059091BB050197E9F418
:1009D00082E090E005C080E090E002C081E090E01D
:1009E00022E030E03093BD052093BC052AE1289F2A
:1009F000F001299FF00D1124E655F64FBE016D5E02
:100A00007F4F808191810E94E214CE0143960E9423
:100A10000A2768960FB6F894DEBF0FBECDBFDF91F0
:100A2000CF910895CF93DF93CDB7DEB768970FB618
:100A3000F894DEBF0FBECDBFE0918605F09187052B
:100A400045A156A167A170A5CE010D960E9438253B
:100A500065E974E0CE0101960E941727BE016F5F21
:100A60007F4FCE0107960E940F27BE01635F7F4F25
:100A7000CE0107960E94DA17BC01CE0143960E9470
:100A80000F27CE0107960E940A27CE0101960E94E9
:100A90000A27CE010D960E940A278091B6059091F3
:100AA000B705019779F08091B8059091B905019744
:100AB00061F08091BA059091BB050197E9F482E05D
:100AC00090E005C080E090E002C081E090E022E08C
:100AD00030E03093BD052093BC052AE1289FF0014A
:100AE000299FF00D1124E655F64FBE016D5E7F4F34
:100AF000808191810E94E214CE0143960E940A27D0
:100B000068960FB6F894DEBF0FBECDBFDF91CF91D0
:100B10000895CF93DF9300D000D0CDB7DEB7E0913A
:100B20008005F091810582859385892B49F167E2E3
:100B300074E0868197810E94F53E892B09F58091AA
:100B4000B6059091B7050197029718F481E080935C
:100B5000B5098091B8059091B9050197029718F4ED
:100B600081E08093CF098091BA059091BB050197F0
:100B7000029718F481E08093E9096BE974E008C0FA
:100B80001092B5091092CF091092E90967E274E05A
:100B9000CE0101960E941727BE016F5F7F4F8091A3
:100BA0008005909181050E948723CE0101960E94C5
:100BB0000A2726960FB6F894DEBF0FBECDBFDF9191
:100BC000CF910895CF93DF93CDB7DEB768970FB677
:100BD000F894DEBF0FBECDBF10920C068091FC09C9
:100BE0009091FD09892B21F01092FD091092FC09CA
:100BF0006091FC097091FD09CE010D960E940318C9
:100C000063EA74E0CE0101960E941727BE016F5F70
:100C10007F4FCE0107960E940F27BE01635F7F4F73
:100C2000CE0107960E94DA17BC01CE0143960E94BE
:100C30000F27CE0107960E940A27CE0101960E9437
:100C40000A27CE010D960E940A27BE016D5E7F4FD6
:100C5000CE0101960E940F27BE016F5F7F4F8091EA
:100C60008A0590918B050E948723CE0101960E94F0
:100C70000A27CE0143960E940A2768960FB6F89479
:100C8000DEBF0FBECDBFDF91CF910895CF93DF932D
:100C900000D000D0CDB7DEB78091FC099091FD095E
:100CA000892B09F43FC0E0918805F0918905828580
:100CB0009385892B01F16DE174E0868197810E9413
:100CC000F53E892BC1F46AEA74E0CE0101960E94D8
:100CD0001727BE016F5F7F4F80918805909189052E
:100CE0000E948723CE0101960E940A2786E298E09F
:100CF0000E94C82417C06DE174E0CE0101960E94E5
:100D00001727BE016F5F7F4F8091880590918905FD
:100D10000E948723CE0101960E940A2786E298E06E
:100D20000E94A12326960FB6F894DEBF0FBECDBF5A
:100D3000DF91CF9108953F924F925F926F927F9291
:100D40008F929F92AF92BF92CF92DF92EF92FF92DB
:100D50000F931F93CF93DF93CDB7DEB76C970FB68A
:100D6000F894DEBF0FBECDBFE090FC09F090FD0906
:100D700087010F5F1F4FE016F10608F085C0309025
:100D80000B068091A2059091A305A091A405B091B6
:100D9000A505898F9A8FAB8FBC8F80909E05909010
:100DA0009F05A090A005B090A10540909A05509095
:100DB0009B0560909C0570909D052091FA093091EB
:100DC000FB0920173107B0F5C70109962817390725
:100DD00088F5D090F809C090F9099093FB098093A9
:100DE000FA092DE0DC012A9FC0012B9F900D1124F0
:100DF0000E9465388093F8099093F9094D2D5C2D78
:100E00009C0180E090E0E816F90681F0211531059B
:100E100039F06DE0FA01D90101900D926A95E1F780
:100E20000196435F5F4F235F3F4FEDCF8D2D9C2D8C
:100E30000E94FD382091FC093091FD094DE0429F50
:100E4000C001439F900D1124E091F809F091F90938
:100E5000E80FF91F20173107D0F4309789F0898DFA
:100E60009A8DAB8DBC8D80839183A283B383848262
:100E70009582A682B78240865186628673863486C2
:100E80002F5F3F4F3D96E6CF0E151F0520F41093C0
:100E9000FD090093FC096091FC097091FD09CE01E8
:100EA0000D960E94031863EA74E0CE0101960E9439
:100EB0001727BE016F5F7F4FCE0107960E940F2755
:100EC000BE01635F7F4FCE0107960E94DA17BC0117
:100ED000CE0143960E940F27CE0107960E940A2753
:100EE000CE0101960E940A27CE010D960E940A2784
:100EF000BE016D5E7F4FCE0101960E940F27BE019D
:100F00006F5F7F4F80918A0590918B050E948723A8
:100F1000CE0101960E940A27CE0143960E940A271D
:100F20006C960FB6F894DEBF0FBECDBFDF91CF91A8
:100F30001F910F91FF90EF90DF90CF90BF90AF90F7
:100F40009F908F907F906F905F904F903F9008950B
:100F5000CF93DF9300D000D0CDB7DEB783E090E031
:100F60009093B5058093B4056FEA74E0CE010196C5
:100F70000E941727BE016F5F7F4F80918C05909173
:100F80008D050E948723CE0101960E940A270E94A8
:100F9000372626960FB6F894DEBF0FBECDBFDF9181
:100FA000CF910895CF93DF9300D000D0CDB7DEB7B7
:100FB00082E090E09093B5058093B40566EB74E011
:100FC000CE0101960E941727BE016F5F7F4F80916F
:100FD0008C0590918D050E948723CE0101960E9479
:100FE0000A270E94372626960FB6F894DEBF0FBE5A
:100FF000CDBFDF91CF910895CF93DF9300D000D084
:10100000CDB7DEB781E090E09093B5058093B4054D
:101010006FEB74E0CE0101960E941727BE016F5F4F
:101020007F4F80918C0590918D050E948723CE0182
:1010300001960E940A270E94372626960FB6F8943A
:10104000DEBF0FBECDBFDF91CF910895CF92DF926B
:10105000EF92FF920F931F93CF93DF93CDB7DEB73D
:10106000E0970FB6F894DEBF0FBECDBF8091BC05F0
:101070009091BD05069709F4E6C080910C06E091B9
:10108000F809F091F9099DE0899FE00DF11D112407
:10109000048115812681378140855185628573855C
:1010A0008485C080D180E280F380C092A205D09276
:1010B000A305E092A405F092A50500939E05109368
:1010C0009F052093A0053093A10540939A05509366
:1010D0009B0560939C0570939D0580930B06CE0144
:1010E00001960E94382564ED74E0CE0107960E94B7
:1010F000172740919E0550919F056091A005709122
:10110000A105CE010D960E9438256EEC74E0CE014B
:1011100043960E9417274091A2055091A305609124
:10112000A4057091A505CE0149960E94382565EC6D
:1011300074E0CE0185960E941727BE016B5D7F4F3C
:10114000CE014F960E940F27BE01675E7F4FCE01F2
:101150004F960E94DA17BE016D5E7F4F0E94DA172C
:10116000BE01635F7F4F0E94DA17BE01695F7F4F48
:101170000E94DA17BE016F5F7F4F0E94DA17BC0131
:10118000CE018B960E940F27CE014F960E940A2710
:10119000CE0185960E940A27CE0149960E940A2711
:1011A000CE0143960E940A27CE010D960E940A277F
:1011B000CE0107960E940A27CE0101960E940A27B7
:1011C0008091B6059091B705019779F08091B805A7
:1011D0009091B905019761F08091BA059091BB0596
:1011E0000197B9F482E090E005C080E090E002C091
:1011F00081E090E02AE1289FF001299FF00D112461
:10120000E655F64FBE01655D7F4F808191810E945A
:10121000E214CE018B960E940A2786E090E090931C
:10122000BD058093BC0506D980910C068F5F809325
:101230000C0690E02091FC093091FD09821793077C
:1012400011F410920C06E0960FB6F894DEBF0FBEB4
:10125000CDBFDF91CF911F910F91FF90EF90DF9065
:10126000CF900895CF93DF93CDB7DEB768970FB6D1
:10127000F894DEBF0FBECDBF6091C20570E08091D3
:10128000C0059091C1050E94B73D6115710509F433
:10129000CBC01092C1051092C0058091C5059091F8
:1012A000C6058330910541F18430910509F445C0AC
:1012B000029709F0B8C0072E000C880B990B0E940A
:1012C000EE3B2091A2053091A3054091A4055091D9
:1012D000A5050E941E3DAB01BC014093A2055093A1
:1012E000A3056093A4057093A505CE0101960E9405
:1012F000382565EC74E041C0072E000C880B990B73
:101300000E94EE3B20919E0530919F054091A005E3
:101310005091A1050E941E3DAB01BC0140939E056A
:1013200050939F056093A0057093A105CE0101968F
:101330000E9438256BEC74E020C0072E000C880B4F
:10134000990B0E94EE3B20919A0530919B054091AC
:101350009C0550919D050E941E3DAB01BC01409330
:101360009A0550939B0560939C0570939D05CE0153
:1013700001960E94382561ED74E0CE010D960E9421
:101380001727BE01635F7F4FCE0107960E940F278C
:10139000BE016F5F7F4FCE0107960E94DA17BC0136
:1013A000CE0143960E940F27CE0107960E940A277E
:1013B000CE010D960E940A27CE0101960E940A27AF
:1013C0008091B6059091B705019779F08091B805A5
:1013D0009091B905019761F08091BA059091BB0594
:1013E0000197E9F482E090E005C080E090E002C05F
:1013F00081E090E023E030E03093BD052093BC0510
:101400002AE1289FF001299FF00D1124E655F64F9F
:10141000BE016D5E7F4F808191810E94E214CE01FA
:1014200043960E940A2706D868960FB6F894DEBF46
:101430000FBECDBFDF91CF910895CF93DF9300D042
:1014400000D0CDB7DEB78DE19AE00E94A123409194
:10145000AE055091AF056091B0057091B1058091D6
:101460008605909187050E94BB184091AA0550916E
:10147000AB056091AC057091AD05809184059091AC
:1014800085050E94BB184091A6055091A705609163
:10149000A8057091A90580918205909183050E940D
:1014A000BB180E941A021092BD051092BC0567ED90
:1014B00074E0CE0101960E941727BE016F5F7F4F37
:1014C0008091B2059091B3050E948723CE010196C9
:1014D0000E940A2726960FB6F894DEBF0FBECDBF36
:1014E000DF91CF910895CF92DF92EF92FF920F9309
:1014F0001F93CF93DF9300D000D0CDB7DEB783E743
:101500009AE00E94A12386EBC82E85E0D82E04E93C
:1015100015E09AEAE92E99E0F92EF6018191919170
:101520006F010097A9F460EC73E0CE0101960E9470
:101530001727BE016F5F7F4FF801808191810E9464
:101540008723CE0101960E940A27F70114861AC04C
:101550008130910519F462EE74E004C0029791F4B1
:1015600068EE74E0CE0101960E941727BE016F5FFE
:101570007F4FF801808191810E948723CE010196DF
:101580000E940A270E5F1F4FFAE1EF0EF11C85E063
:101590000A39180711F61092BD051092BC056EEEBF
:1015A00074E0CE0101960E941727BE016F5F7F4F46
:1015B0008091B2059091B3050E948723CE010196D8
:1015C0000E940A2726960FB6F894DEBF0FBECDBF45
:1015D000DF91CF911F910F91FF90EF90DF90CF900F
:1015E0000895EF92FF920F931F93CF93DF9300D054
:1015F00000D0CDB7DEB78091BC059091BD050497B2
:1016000009F44AC084E090E09093BD058093BC0546
:1016100069EF74E0CE0101960E941727BE016F5F4B
:101620007F4F8091B2059091B3050E948723CE0130
:1016300001960E940A2786EBE82E85E0F82E0AEA3A
:1016400019E0F701819191917F018130910589F431
:1016500066E075E0F801808191810E9455276EE077
:1016600075E0F801808191810E94552767E175E05E
:1016700004C0029739F460E275E0F801808191813D
:101680000E945527065E1F4FF9E0083F1F07C9F665
:101690008DE19AE00E94C82426960FB6F894DEBF2A
:1016A0000FBECDBFDF91CF911F910F91FF90EF90B3
:1016B0000895DF92EF92FF920F931F93CF93DF93E2
:1016C00000D000D0CDB7DEB78091BC059091BD05AC
:1016D0000597C1F185E090E09093BD058093BC052E
:1016E00068E275E0CE0101960E941727BE016F5F88
:1016F0007F4F8091B2059091B3050E948723CE0160
:1017000001960E940A270AEA19E086EBE82E85E096
:10171000F82EDD24D394F801D486F70111921192AA
:101720007F016CE673E0F801808191810E9455276A
:10173000065E1F4FF9E0083F1F0769F783E79AE04D
:101740000E94C82426960FB6F894DEBF0FBECDBF08
:10175000DF91CF911F910F91FF90EF90DF9008954F
:10176000CF93DF9300D000D0CDB7DEB78091BC051A
:101770009091BD058230910509F45FC018F401977E
:1017800049F0A1C08330910509F46DC0069709F4B2
:1017900096C099C08091B6059091B705019779F0F0
:1017A0008091B8059091B905019761F08091BA05D3
:1017B0009091BB050197B1F482E090E005C080E014
:1017C00090E002C081E090E02AE1289FF001299F8B
:1017D000F00D1124E655F64F67E175E080819181A7
:1017E0000E94552765E375E0CE0101960E941727F8
:1017F000BE016F5F7F4F8091B2059091B3050E944B
:101800008723CE0101960E940A2765E375E0CE0189
:1018100001960E941727BE016F5F7F4F8091C3051D
:101820009091C4050E948723CE0101960E940A2749
:1018300089E792E00E94C82442C06BE375E0CE01C4
:1018400001960E941727BE016F5F7F4F8091B205FE
:101850009091B3050E948723CE0101960E940A272A
:101860006BE375E01BC065E475E0CE0101960E9454
:101870001727BE016F5F7F4F8091B2059091B3052E
:101880000E948723CE0101960E940A278091C505F8
:101890009091C605029798F465E475E0CE01019633
:1018A0000E941727BE016F5F7F4F8091C305909103
:1018B000C4050E948723CE0101960E940A27109238
:1018C000BD051092BC0526960FB6F894DEBF0FBE7C
:1018D000CDBFDF91CF9108950F931F93CF93DF93E7
:1018E000CDB7DEB768970FB6F894DEBF0FBECDBF99
:1018F0008091BC059091BD05039709F476C0409195
:101900009A0550919B0560919C0570919D05CE01B3
:101910000D960E94382561ED74E0CE0101960E947B
:101920001727BE016F5F7F4FCE0107960E940F27DA
:10193000BE01635F7F4FCE0107960E94DA17BC019C
:10194000CE0143960E940F27CE0107960E940A27D8
:10195000CE0101960E940A27CE010D960E940A2709
:101960008091B6059091B705019779F08091B805FF
:101970009091B905019761F08091BA059091BB05EE
:10198000019779F502E010E005C000E010E002C028
:1019900001E010E083E090E09093BD058093BC05EA
:1019A00067E674E0CE0101960E941727BE016F5FC3
:1019B0007F4F8091C3059091C4050E948723CE017B
:1019C00001960E940A278AE1809FF001819FF00D15
:1019D0001124E655F64FBE016D5E7F4F80819181E7
:1019E000F1D7CE0143960E940A2768960FB6F89465
:1019F000DEBF0FBECDBFDF91CF911F910F91089534
:101A00000F931F93CF93DF93CDB7DEB768970FB6D1
:101A1000F894DEBF0FBECDBF8091BC059091BD058F
:101A2000039709F476C040919E0550919F056091FF
:101A3000A0057091A105CE010D960E9438256BEC92
:101A400074E0CE0101960E941727BE016F5F7F4FA1
:101A5000CE0107960E940F27BE01635F7F4FCE0124
:101A600007960E94DA17BC01CE0143960E940F2709
:101A7000CE0107960E940A27CE0101960E940A27EE
:101A8000CE010D960E940A278091B6059091B70568
:101A9000019779F08091B8059091B905019761F0AF
:101AA0008091BA059091BB05019779F502E010E0AD
:101AB00005C000E010E002C001E010E083E090E02B
:101AC0009093BD058093BC0567E674E0CE01019656
:101AD0000E941727BE016F5F7F4F8091C3059091D1
:101AE000C4050E948723CE0101960E940A278AE13D
:101AF000809FF001819FF00D1124E655F64FBE0145
:101B00006D5E7F4F808191815DD7CE0143960E94AB
:101B10000A2768960FB6F894DEBF0FBECDBFDF91DF
:101B2000CF911F910F9108950F931F93CF93DF9340
:101B3000CDB7DEB768970FB6F894DEBF0FBECDBF46
:101B40008091BC059091BD05039709F476C0409142
:101B5000A2055091A3056091A4057091A505CE0141
:101B60000D960E94382565EC74E0CE0101960E9426
:101B70001727BE016F5F7F4FCE0107960E940F2788
:101B8000BE01635F7F4FCE0107960E94DA17BC014A
:101B9000CE0143960E940F27CE0107960E940A2786
:101BA000CE0101960E940A27CE010D960E940A27B7
:101BB0008091B6059091B705019779F08091B805AD
:101BC0009091B905019761F08091BA059091BB059C
:101BD000019779F502E010E005C000E010E002C0D6
:101BE00001E010E083E090E09093BD058093BC0598
:101BF00067E674E0CE0101960E941727BE016F5F71
:101C00007F4F8091C3059091C4050E948723CE0128
:101C100001960E940A278AE1809FF001819FF00DC2
:101C20001124E655F64FBE016D5E7F4F8081918194
:101C3000C9D6CE0143960E940A2768960FB6F8943B
:101C4000DEBF0FBECDBFDF91CF911F910F910895E1
:101C5000CF93DF93CDB7DEB762970FB6F894DEBFB0
:101C60000FBECDBF6091C20570E08091C00590911C
:101C7000C1050E94B73D8091C5059091C60583308E
:101C80009105F9F084309105A9F1029709F06FC030
:101C9000072E000C880B990B0E94EE3B2091A205A9
:101CA0003091A3054091A4055091A5050E941E3DC9
:101CB000AB01BC01CE0107960E9438256FE475E0A8
:101CC00031C0072E000C880B990B0E94EE3B20912F
:101CD0009E0530919F054091A0055091A1050E945D
:101CE0001E3DAB01BC01CE0107960E9438256BE575
:101CF00075E018C0072E000C880B990B0E94EE3B74
:101D000020919A0530919B0540919C0550919D052D
:101D10000E941E3DAB01BC01CE0107960E943825F2
:101D200067E675E0CE0101960E941727BE01695F44
:101D30007F4FCE0101960E94DA17BC01CE010D96AD
:101D40000E940F27BE01635F7F4F8091C305909172
:101D5000C4050E948723CE010D960E940A27CE015A
:101D600001960E940A27CE0107960E940A276296D2
:101D70000FB6F894DEBF0FBECDBFDF91CF910895AF
:101D8000CF93DF93C091AB08D091AC08E881F98183
:101D90000084F185E02DCE011995892BB9F3E881F6
:101DA000F9810284F385E02DCE01DF91CF91199462
:101DB0001F93CF93DF93182FC091AB08D091AC083D
:101DC0008A3041F4E881F9810190F081E02D6DE0E5
:101DD000CE011995E881F9810190F081E02D612F04
:101DE000CE01199521E030E0019711F420E030E0B8
:101DF000C901DF91CF911F91089585ED8093BC00BB
:101E00008091BC0084FDFCCF1092C60608954091DD
:101E10007006262F30E0240F311D21323105DCF40D
:101E20002091C6062430C9F4FC0180E090E08617BA
:101E300058F4309170062191DC01A05BB94FA30FDB
:101E4000B11D2C930196F3CF80917006680F6093BB
:101E5000700680E0089581E0089582E00895089575
:101E600008950895E091CA068091C906E81730F4F4
:101E7000F0E0E05DF94F808190E008958FEF9FEFF3
:101E800008959091CA068091C906981750F4E92FD9
:101E9000F0E0E05DF94F208130E09F5F9093CA064B
:101EA00002C02FEF3FEFC90108958091C90690E06D
:101EB0002091CA06821B91090895CF92DF92EF927A
:101EC000FF920F931F93CF93DF937C01CB018A0185
:101ED00020912F06222389F0EB016B01C40ED51E41
:101EE000CC15DD0561F06991D701ED91FC91019070
:101EF000F081E02DC7011995F3CF642F88DFC80169
:101F0000DF91CF911F910F91FF90EF90DF90CF90D5
:101F10000895CF93DF931F92CDB7DEB769832091E9
:101F20002F062223D1F02091C706203240F021E075
:101F300030E0FC013383228380E090E014C0809184
:101F4000C806E82FF0E0E15FF94F998190838F5F39
:101F50008093C8068093C70604C061E0CE01019655
:101F600056DF81E090E00F90DF91CF9108950895C2
:101F700008950C94FD38CF93DF93EC010E94FF038A
:101F8000CE01DF91CF910C94FD3808951F920F92EE
:101F90000FB60F9211240BB60F922F933F934F93CE
:101FA0005F936F937F938F939F93AF93BF93EF93C1
:101FB000FF938091B900887F803609F49CC068F552
:101FC000883209F45BC090F4803109F454C038F4CD
:101FD000882309F4F6C0883009F44DC0F5C0883173
:101FE00009F44CC0803209F45DC0EEC0803409F4BD
:101FF00068C048F4803309F455C0883309F0E4C060
:1020000080939306D8C0803509F44FC0883509F411
:102010005DC0883409F0D8C0D6C0883909F4C7C07B
:10202000A8F4883709F467C038F4883609F463C027
:10203000803709F460C0C8C0883809F4B8C0803956
:1020400009F45FC0803809F0BFC05BC0803B09F471
:1020500086C038F4803A09F466C0883A09F47FC033
:10206000B3C0803C09F4A7C0883C09F4A4C0883BF5
:1020700009F48AC0A9C08091B60610C09091B50637
:102080008091B406981770F5E091B50681E08E0F47
:102090008093B506F0E0EC56F94F80818093BB0049
:1020A00085EC86C0809393068EC0E091B50681E0F2
:1020B0008E0F8093B5068091BB00F0E0EC56F94F8F
:1020C00080839091B5068091B4066EC0E091B5060C
:1020D00081E08E0F8093B5068091BB00F0E0EC5656
:1020E000F94F80838091C50681116DC081E0809396
:1020F000C40684EA61C083E08093C606109292060B
:10210000CFCF80919206803208F051C0E0919206C4
:1021100081E08E0F809392068091BB00F0E0EE5834
:10212000F94F8083BDCF85EC8093BC001092C6062A
:1021300080919206803230F4E0919206F0E0EE5801
:10214000F94F10826091920670E0E091C006F09124
:10215000C10682E796E019951092920635C084E098
:102160008093C6061092710610927006E091C20626
:10217000F091C306199580917006811105C081E028
:102180008093700610925006E091710681E08E0FE8
:1021900080937106F0E0E05BF94F80818093BB0093
:1021A0009091710680917006981708F479CF85E8B0
:1021B0008093BC0009C085EC8093BC001092C606D9
:1021C00003C01092930619DEFF91EF91BF91AF917A
:1021D0009F918F917F916F915F914F913F912F913F
:1021E0000F900BBE0F900FBE0F901F9018951F926F
:1021F0000F920FB60F9211240BB60F922F933F93AD
:102200004F935F936F937F938F939F93AF93BF93FE
:10221000EF93FF9386E08093B20080915A09882360
:1022200009F47CC080915D0990915E0901969093BC
:102230005E0980935D0920915F09309160098217E2
:10224000930708F46BC010925E0910925D098091AB
:102250006109E0915809F091590937E0839FE00D39
:10226000F11D11248681882321F00190F081E02D59
:10227000199530915A0980915809909159096091A6
:102280005F0970916009DC01FC0120E0321761F008
:102290004681442331F044815581461B570B5583B9
:1022A00044832F5F3796F2CF20916109FC0147E00C
:1022B000249FE00DF11D11244281538155834483F5
:1022C0001092610921E02317D8F41D964C911D97B7
:1022D000442399F040916109FC0157E0459FE00DCE
:1022E000F11D11241B966D917C911C9744815581A1
:1022F0006417750710F4209361092F5F1796E3CFD9
:1023000020916109FC0137E0239FE00DF11D1124AC
:10231000848195819093600980935F09FF91EF918B
:10232000BF91AF919F918F917F916F915F914F91ED
:102330003F912F910F900BBE0F900FBE0F901F90EB
:102340001895CF93FC01C48121E020932F06C09300
:102350000D061092C8061092C7068385682B8CE480
:1023600099E0D7DD9091C706913208F045C0809181
:10237000C6068111FCCF82E08093C60681E080937F
:10238000C5068FEF809393061092B5069093B4061E
:10239000AFE0B6E0E4E9F6E080E0981721F02D9197
:1023A00021938F5FFACF1092B6068091B606CC0FBC
:1023B000C82BC093B6068091C406813061F4109298
:1023C000C4068091B6068093BB008091BC0083FD5B
:1023D000F8CF85EC01C085EE8093BC008091C606E5
:1023E0008230E1F3809193068F3F31F08091930624
:1023F000803211F0809193061092C8061092C706A1
:1024000010922F06CF9108950F931F93CF938C01B5
:10241000C62F97DF6C2F6460C80193DF6C2F6B7F32
:10242000C8018FDF83EC90E00197F1F7CF911F9106
:102430000F9108950F931F93CF938C01C62F607F48
:102440006160E2DF80E1C89FB00111246160C801D2
:10245000DBDF81E090E0CF911F910F9108950F9302
:102460001F93CF938C01C62F607FCEDF80E1C89F82
:10247000B0011124C801CF911F910F91C5CF61E028
:10248000EEDF8BE39FE10197F1F7089520E432E05E
:10249000FC01318320830C94E503CF93DF93EC019F
:1024A000F5DFCE01DF91CF910C94FD382AE432E0C4
:1024B000FC01318320830C94E503CF93DF93EC017F
:1024C000F5DFCE01DF91CF910C94FD380F931F9370
:1024D000CF93DF938C01FC01C085D1852097D9F083
:1024E000FE013297208131814CE0429FC001439F21
:1024F000900D1124C80FD91FCE01F8012085318518
:102500002C978217930721F0CE010E940A27F4CF5F
:1025100002970E94FD38C8014496DF91CF911F9128
:102520000F910C940A278F929F92AF92BF92CF92F5
:10253000DF92EF92FF920F931F93CF93DF93CDB76C
:10254000DEB76A970FB6F894DEBF0FBECDBFDC01D1
:102550001C962C91222309F4FCC18C016C01B4E17E
:10256000CB0ED11CF80180819181DC01ED91FC91B1
:102570000084F185E02D1995892BE9F1F80180811E
:102580009181DC01ED91FC910284F385E02D199598
:10259000F82EF80183858823C9F082819381009702
:1025A00019F06F2D0E942B27D80114968D919C91C4
:1025B0001597009719F06F2D0E942B27F80186813F
:1025C0009781009719F06F2D0E942B27FAE0FF12D8
:1025D00005C081E0D80153968C930DC0BDE0FB1679
:1025E00009F2F9821A8241E050E0BE016F5F7F4F2D
:1025F000C601B2D4B7CFF801A388AA2009F4A9C1B3
:10260000B12CC80144966C01D8011A968C91B81669
:1026100008F0BDC0BCE0BB9E70011124D801189623
:10262000ED91FC911997EE0DFF1D2481358140E05D
:1026300050E0B601CE0101960E94661CD8011896A2
:10264000ED91FC911997EE0DFF1D248135818D814F
:102650009E812817390721F58081918169817A81CE
:10266000009719F061157105A9F46115710551F014
:102670002115310539F0FB01808190E0919581951C
:1026800091090AC0009771F0232B61F0DC018C9155
:1026900090E002C00E94F53E99249394892B19F092
:1026A000912C01C09A2CCE0101960E940A279920F4
:1026B00009F46BC0D8011896ED91FC911997EE0DB5
:1026C000FF1D808491848114910409F158962D9105
:1026D0003C915997448155814F5F5F4FB601CE01C0
:1026E00001960E94661C89819A81009719F00E94C8
:1026F000653603C060E070E0CB01F4016083718354
:1027000082839383CE0101960E940A273EC0828570
:1027100093850097A1F167E775E05ED4D80118961C
:10272000ED91FC911997EE0DFF1D84809580BFEF10
:102730008B1A9B0AF801808D918D8816990628F5D1
:102740000488F589E02D309729F410920E06EEE00A
:10275000F6E002C0E80DF91D2081D8011896ED9130
:10276000FC911997EE0DFF1D8285938529831A82AE
:1027700041E050E0BE016F5F7F4FEED3D8CF0680BF
:10278000F781E02D309709F01995B3943DCFF8010A
:1027900085859685892B09F4D6C067E775E0CE015B
:1027A00043960E94172741E050E063E775E0C601B9
:1027B000D3D3E12CF12C912CD80158968D919C917A
:1027C0005997E816F90608F073C054968D919C91BC
:1027D0005597009729F410920E06EEE0F6E003C03C
:1027E000FC01EE0DFF1D20812C32D1F52F89388D93
:1027F0002115310509F458C0EB89FC8980818823B3
:1028000009F452C0A92CB12C41E050E0BE016D5E2C
:102810007F4FCE010D960E94661C8D859E85009788
:1028200019F00E94653603C060E070E0CB01AA0C8D
:10283000BB1CAA0CBB1CE1E0F0E0EC0FFD1FEA0D95
:10284000FB1D6083718382839383CE010D960E946A
:102850000A2767E775E0CE014396BED3939424C060
:10286000009729F410920E06EEE0F6E003C0FC019A
:10287000EE0DFF1D80811E861D86188A1F861A8A0E
:10288000198A898F1A8EBE01675E7F4FCE010D9621
:10289000A3D349895A896D857E85CE0143965CD341
:1028A000CE010D960E940A27BFEFEB1AFB0A84CFD8
:1028B000E3E09E1244C0D8011D96ED91FC911E9755
:1028C00089819A81AB81BC8180839183A283B38308
:1028D000D8011F96ED91FC9150978D819E81AF811B
:1028E000B88580839183A283B383F801E188F2885D
:1028F00089849A84AB84BC8420E030E0A901C501BE
:10290000B4010E94E83B18163CF0A501940160E078
:1029100070E080E09FE307C0C501B401905820E05B
:1029200030E040E05FE30E941D3D0E94823D0E9436
:10293000EE3BD7016D937D938D939C931397CE01BE
:1029400043960E940A2767E775E0C60145D3F80160
:10295000138A6A960FB6F894DEBF0FBECDBFDF9123
:10296000CF911F910F91FF90EF90DF90CF90BF908C
:10297000AF909F908F900895CF93DF93282F30E0F2
:10298000F901E350FD4F8491F901E954FD4FD491D1
:10299000F901EF58FD4FC491CC2389F081110E94B9
:1029A0002121EC2FF0E0EE0FFF1FE95AFD4FA5911A
:1029B000B4918FB7F894EC91ED2BEC938FBFDF912E
:1029C000CF9108950F931F93CF93DF93EC010E9453
:1029D00032278C0165E775E0CE010E944027800F09
:1029E000911FDF91CF911F910F910895CF93DF93A6
:1029F000EC01FB018081918199838883828193819D
:102A00009B838A83848195819D838C838681978132
:102A10009F838E83808591859987888782858A8721
:102A200083858B8784858C87858596859E878D8712
:102A300087859089988B8F87818992899A8B898BDA
:102A400083898B8B6C5E7F4FCE0144960E94F52666
:102A5000CE01DF91CF910895EF92FF920F931F93D4
:102A6000CF93DF937C01009169090F5F009369099F
:102A700010E0C801880F991F0E946538EC01809111
:102A800067099091680940E001501109242F30E056
:102A90002017310774F4220F331FFC01E20FF31FDC
:102AA00060817181FE01E20FF31F718360834F5FCC
:102AB000EDCF009711F00E94FD38D0936809C093C4
:102AC000670920916909CE01820F911D820F911D26
:102AD000FC013297F182E082DF91CF911F910F913B
:102AE000FF90EF9008950F931F93CF93DF938C0186
:102AF00084E899E0909363098093620981E0809370
:102B000066099FEF90936409909365091092CA0635
:102B10001092C9061092C8061092C7061092C606F7
:102B20008093C5061092C40684E126DF85E124DF88
:102B30008091B9008E7F8093B9008091B9008D7F1C
:102B40008093B90088E48093B80085E48093BC004A
:102B50008FE29FE09093C3068093C20680E39FE0DC
:102B60009093C1068093C0061092890980918E09C6
:102B7000823018F098E09093890980938C0962E381
:102B800070E080E090E00E949F2160918F0984E8CE
:102B900099E0D7DB68EE73E080E090E00E949F212F
:102BA00060E384E899E030DCCBE4D6E4CE01019721
:102BB000F1F760E384E899E027DC2197F1F760E31F
:102BC00084E899E021DC83E592E00197F1F760E287
:102BD00084E899E019DC60918909606284E899E0F1
:102BE0003EDC84E080938A096CE084E899E037DC7D
:102BF00084E899E044DC82E080938B0966E084E815
:102C000099E02DDC62E084E899E029DC8BE39FE128
:102C10000197F1F7809162099091630928E0FC0126
:102C2000238760E08EDB80916209909163090E94A6
:102C3000FB2340E060E080916209909163090E946B
:102C4000B523B80180916209909163090E943227EF
:102C500068EE73E080E090E00E949F21809162091D
:102C6000909163090CDC8FEF80937F09DF91CF9106
:102C70001F910F910895CF92DF92EF92FF920F93E1
:102C80001F93CF93DF937C018B0180915A098F5F53
:102C900080935A09C82ED12C27E0829FC0011124AD
:102CA0000E946538EC01FC01A60181E091E0C91A9F
:102CB000D10820F490E04150510909C011821082DE
:102CC000138212821582148286833796EFCF292FC2
:102CD00030E0E0915809F09159092417350784F440
:102CE00087E0989F90011124DE01A20FB31FE20F2D
:102CF000F31F87E001900D928A95E1F79F5FE7CF80
:102D0000309719F0CF010E94FD38D0935909C09334
:102D1000580980915A0997E0899FC00DD11D11244F
:102D20002797F982E8821B830A831D830C8381E045
:102D30008E8380915F0990916009009719F00817C0
:102D4000190720F41093600900935F09DF91CF9178
:102D50001F910F91FF90EF90DF90CF900895CF9348
:102D6000DF9390E0FC01E954FD4F2491FC01EF5802
:102D7000FD4F84918823C1F090E0880F991FFC01DA
:102D8000E35CFD4FC591D491FC01E95AFD4FA5913B
:102D9000B4919FB7F8948881322F3095832388832C
:102DA000EC91E22BEC939FBFDF91CF9108958F922E
:102DB0009F92AF92BF92CF92DF92EF92FF920F93CA
:102DC0001F93CF93DF939091B7062091B80630916F
:102DD000B906C0E09C1709F471C02D5F3F4FF9019F
:102DE0003397408148132CC00E947721D0E0892B73
:102DF00049F1CE01880F991F880F991F0091BA06DB
:102E00001091BB06080F191F0E94D721F80160839B
:102E1000718382839383E091BE06F091BF06EC0F2D
:102E2000FD1F81E08083CC0FDD1F8091BC06909157
:102E3000BD06C80FD91F88EE93E0998388833EC0F2
:102E4000CF5FC8CF0E94D7217E01EE0CFF1CEE0C95
:102E5000FF1CE091BC06F091BD069E01220F331FBE
:102E6000E20FF31FA091BA06B091BB06AE0DBF1DD5
:102E70000D911D912D913C915B016C01A01AB10A3D
:102E8000C20AD30A4081518160E070E08091BE06A1
:102E90009091BF064A155B056C057D0548F421E05D
:102EA000DC01AC0FBD1F2C9324E630E0318320837E
:102EB000FC01EC0FFD1F1081111102C010E025C0B4
:102EC0000E94D7212091BA063091BB06E20EF31E74
:102ED000F70180809180A280B380DC01CB0188194A
:102EE0009909AA09BB09C297A105B10538F30E9447
:102EF000D721F70160837183828393838091BE061B
:102F00009091BF06C80FD91F1882812FDF91CF91F2
:102F10001F910F91FF90EF90DF90CF90BF90AF90F7
:102F20009F908F900895FC01A089B1898C91A6890A
:102F3000B78982FD0FC09C91818D8F5F8F73228D29
:102F4000821749F0218DDF01A20FB11D5D969C9380
:102F5000818F08958C910895EF92FF920F931F93A4
:102F6000CF93DF936115710511F480E01CC041150A
:102F70005105C1F07B01EC018C819D818A01080F14
:102F8000191FB801CE010E949D26882371F3288164
:102F900039818C819D81B701820F931F0E94FE3E73
:102FA0001D830C8381E0DF91CF911F910F91FF90E2
:102FB000EF900895CF93DF93EC01FB01448155819D
:102FC00060817181C9DF811103C0CE010E94C426D6
:102FD000CE01DF91CF910895CF93DF93EC0161157E
:102FE000710559F0FB0101900020E9F73197AF011D
:102FF000461B570B0E94D62602C00E94C426CE0153
:10300000DF91CF9108950F931F93CF93DF93CDB7A7
:10301000DEB761970FB6F894DEBF0FBECDBF8C014F
:10302000CB01F80111821082138212821582148260
:103030004AE0BE016F5F7F4F0E947236BE016F5F34
:103040007F4FC801C9DF61960FB6F894DEBF0FBE8F
:10305000CDBFDF91CF911F910F910895AF92BF9295
:10306000CF92DF92FF920F931F93CF93DF93CDB751
:10307000DEB72C970FB6F894DEBF0FBECDBF8C0124
:103080005B0167E775E0CE0107960E941727F801FC
:10309000238D348D458D568D6789708D818D928DF0
:1030A0000E94B33D1816A4F5F12CF8016789708DC4
:1030B000818D928D0E94823DCE0101960E946825ED
:1030C000CD80DE80F50184819581C81AD90ACE01B0
:1030D00001960E940A278F2D90E08C159D05C0F463
:1030E000BE01695F7F4FCE0101960E940F2765E701
:1030F00074E0CE0101960E94E323BC01CE01079645
:103100000E94F526CE0101960E940A27F394CDCFA6
:103110006801F6E0CF0ED11CB601C8010C960E94E2
:10312000F526BE01695F7F4FCE0101960E940F27F1
:10313000B501CE0101963EDFBC01C6010E94F52615
:10314000CE0101960E940A2781E0F8018383CE0117
:1031500007960E940A272C960FB6F894DEBF0FBE82
:10316000CDBFDF91CF911F910F91FF90DF90CF9056
:10317000BF90AF9008958F929F92AF92BF92CF92DF
:10318000DF92EF92FF920F931F93CF93DF9300D0C4
:1031900000D0CDB7DEB78C016A017B01FC0145A3ED
:1031A00056A367A370A7CB01BA010E94823D4B01D1
:1031B0005C01072E000C880B990B0E94EE3B9B01D3
:1031C000AC01C701B6010E941D3D20E030E0A9011D
:1031D0000E94E83B811106C0B401CE0101960E9415
:1031E000682506C0B701A601CE0101960E943825C8
:1031F000BE016F5F7F4FC80131DFCE0101960E9493
:103200000A2726960FB6F894DEBF0FBECDBFDF911A
:10321000CF911F910F91FF90EF90DF90CF90BF90D3
:10322000AF909F908F9008956F927F928F929F9210
:10323000AF92BF92CF92DF92EF92FF920F931F93C4
:10324000CF93DF9300D000D0CDB7DEB76C013B0148
:103250005A01122F8EE592E0F6019183808381E07E
:103260008283138267E775E0C60106960E941727DE
:1032700067E775E0C6010C960E941727F30184806A
:1032800083948482912CC401880F991F0E94653811
:103290007C0140E0F1E08F1A9108242F30E0F30127
:1032A000828193812815390574F4220F331FFC01A4
:1032B000E20FF31F80819181F701E20FF31F9183E9
:1032C00080834F5FEACF009711F00E94FD38F30131
:1032D000F382E2822481C701820F911D820F911D2A
:1032E000FC013297D182C082B501CE0101960E94C5
:1032F0000F27BE016F5F7F4FC6010E948723CE015B
:1033000001960E940A27F6011483058326960FB6BC
:10331000F894DEBF0FBECDBFDF91CF911F910F910B
:10332000FF90EF90DF90CF90BF90AF909F908F90E5
:103330007F906F900895CF92DF92EF92FF920F935C
:103340001F93CF93DF9300D000D0CDB7DEB77C01C1
:103350006B01122FBA01CE0101960E940F27212F77
:10336000AE014F5F5F4FB601C7015EDFCE01019630
:103370000E940A2784E592E0F70191838083138AF3
:10338000128A26960FB6F894DEBF0FBECDBFDF912E
:10339000CF911F910F91FF90EF90DF90CF90089504
:1033A000CF92DF92EF92FF920F931F93CF93DF9311
:1033B00000D000D0CDB7DEB77C016B01122FBA016F
:1033C000CE0101960E940F27212FAE014F5F5F4F64
:1033D000B601C70129DFCE0101960E940A2780E4C9
:1033E00092E0F7019183808326960FB6F894DEBFB2
:1033F0000FBECDBFDF91CF911F910F91FF90EF9046
:10340000DF90CF900895CF92DF92EF92FF920F93CB
:103410001F93CF93DF9300D000D0CDB7DEB77C01F0
:103420006B01122FBA01CE0101960E940F27212FA6
:10343000AE014F5F5F4FB601C701F6DECE010196C8
:103440000E940A2786E392E0D7018D939C9386E041
:1034500090E00E946538FC0186E0DF011D928A95AC
:10346000E9F71482158286E292E091838083D70186
:103470005396FC93EE93529726960FB6F894DEBFC0
:103480000FBECDBFDF91CF911F910F91FF90EF90B5
:10349000DF90CF900895CF92DF92EF92FF920F933B
:1034A0001F93CF93DF9300D000D0CDB7DEB77C0160
:1034B0006B01142F022F67E775E0CE0101960E9481
:1034C0001727212FAE014F5F5F4FB601C701ACDE5A
:1034D000CE0101960E940A278AE492E0F7019183C7
:1034E0008083178A108E118E128E138E148E158E75
:1034F000168E80E090E0A0E8BFE3828B938BA48BD4
:10350000B58B15A216A217A210A660E070E0CE013E
:1035100001960E946825BE016F5F7F4FC7019EDD47
:10352000CE0101960E940A27F701168A10A2178E73
:1035300012A211A214A213A226960FB6F894DEBF0F
:103540000FBECDBFDF91CF911F910F91FF90EF90F4
:10355000DF90CF9008957F928F929F92AF92BF920B
:10356000CF92DF92EF92FF920F931F93CF93DF934F
:10357000EC015B016A018A858F5F8A87082F10E062
:103580002CE0829FC001112402960E946538FC0144
:10359000019311937F014F010115110511F4712C55
:1035A00010C067E775E0C4010E941727F401178275
:1035B000168211861086FCE08F0E911C01501109B5
:1035C000EBCF272D30E08A8590E00197088519859B
:1035D0002817390704F52CE0729E40011124080DCC
:1035E000191D8E0C9F1CB801C4010E94F526F8011C
:1035F00086819781F40197838683F8018085918580
:10360000F40191878087F80182859385F40193877F
:1036100082877394D6CF01151105D9F0F80132973E
:10362000208131814CE0429FC001439F900D1124C5
:10363000080F191F98010C50110988859985821768
:10364000930721F0C8010E940A27F4CF02970E9435
:10365000FD38F986E8868A8597014CE0849F200D25
:10366000311D1124C901B5010C970E94F5268885EA
:1036700099852A85FC013CE0239FE00DF11D112472
:103680003C97D186C0862A85FC014CE0249FE00D42
:10369000F11D11243C97178216822A85ECE02E9F9B
:1036A000800D911D1124FC013C9713861286DF9139
:1036B000CF911F910F91FF90EF90DF90CF90BF902F
:1036C000AF909F908F907F9008957F928F929F925E
:1036D000AF92BF92CF92DF92EF92FF920F931F9320
:1036E000CF93DF93EC015B016A018A858F5F8A8744
:1036F000082F10E02CE0829FC001112402960E9446
:103700006538FC01019311937F014F0101151105EB
:1037100011F4712C10C067E775E0C4010E941727EF
:10372000F4011782168211861086FCE08F0E911C20
:1037300001501109EBCF272D30E08A8590E00197E9
:10374000088519852817390704F52CE0729E400179
:103750001124080D191D8E0C9F1CB801C4010E9474
:10376000F526F80186819781F40197838683F80115
:1037700080859185F40191878087F8018285938502
:10378000F401938782877394D6CF01151105D9F080
:10379000F8013297208131814CE0429FC001439F64
:1037A000900D1124080F191F98010C5011098885DC
:1037B00099858217930721F0C8010E940A27F4CF48
:1037C00002970E94FD38F986E8868A8597014CE0C9
:1037D000849F200D311D1124C901B5010C970E9451
:1037E000F526888599852A85FC013CE0239FE00D1C
:1037F000F11D11243C97D782C6822A85FC014CE03A
:10380000249FE00DF11D11243C97118610862A8516
:10381000ECE02E9F800D911D1124FC013C97138636
:103820001286DF91CF911F910F91FF90EF90DF9063
:10383000CF90BF90AF909F908F907F900895EF9220
:10384000FF920F931F93CF93DF9300D000D0CDB79B
:10385000DEB78C017B01FC01138212821582148277
:1038600017821682128616861586108A1786128A85
:10387000118A67E775E044960E941727F801F182E4
:10388000E08240E855E260E070E0C7010E948203F8
:1038900067E775E0CE0101960E941727F8011386AD
:1038A00081E08487128611861086CE0101960E94DF
:1038B0000A2726960FB6F894DEBF0FBECDBFDF9164
:1038C000CF911F910F91FF90EF900895BF92CF92EB
:1038D000DF92EF92FF920F931F93CF93DF937C01C0
:1038E0006B018A01E9012417350720F4812F890132
:1038F000C42FD82F67E775E0C7010E941727D601AC
:1039000014968D919C91159708171907C0F48C1780
:103910009D0708F4EC01D601ED91FC911197EC0F95
:10392000FD1FB08010826D917C91600F711FC701E7
:1039300053DBD601ED91FC91EC0FFD1FB082C70166
:10394000DF91CF911F910F91FF90EF90DF90CF907B
:10395000BF900895FC01538D448D252F30E0842FB6
:1039600090E0821B930B541710F0CF9608950197A7
:103970000895FC01918D828D981761F0828DDF0191
:10398000A80FB11D5D968C91928D9F5F9F73928F52
:1039900090E008958FEF9FEF0895FC01918D828D47
:1039A000981731F0828DE80FF11D858D90E0089514
:1039B0008FEF9FEF0895FC01918D228D892F90E06C
:1039C000805C9F4F821B91098F739927089584ED26
:1039D00096E0F1DF21E0892B09F420E0822F0895A1
:1039E00081E797E0E8DF21E0892B09F420E0822FCE
:1039F00008958EE098E0DFDF21E0892B09F420E0D4
:103A0000822F08958FEA98E0D6DF21E0892B09F410
:103A100020E0822F0895FC01848DDF01A80FB11DE5
:103A2000A35ABF4F2C91848D90E001968F739927F4
:103A3000848FA689B7892C93A089B1898C918370D2
:103A400080648C93938D848D981306C00288F389CB
:103A5000E02D80818F7D80830895EF92FF920F93F8
:103A60001F93CF93DF93EC0181E0888F9B8D8C8D2A
:103A7000981305C0E889F989808185FD25C0F62E57
:103A80000B8D10E00F5F1F4F0F731127E02E8C8DF1
:103A9000E8120BC00FB607FCFACFE889F9898081DC
:103AA00085FFF5CFCE01B7DFF2CF8B8DFE01E80F9A
:103AB000F11DE35AFF4FF0829FB7F8940B8FEA890C
:103AC000FB89808180620AC09FB7F894EE89FF89E4
:103AD0006083E889F98980818370806480839FBFD7
:103AE00081E090E0DF91CF911F910F91FF90EF90D7
:103AF0000895CF93DF93EC01888D8823C1F0EA8984
:103B0000FB89808185FD05C0A889B9898C9186FDD6
:103B10000EC00FB607FCF5CF808185FFF2CFA889D4
:103B2000B9898C9185FFEDCFCE0175DFE8CFDF91AC
:103B3000CF91089580E090E0892B19F063DF811127
:103B400016C080E090E0892B19F053DF811112C07C
:103B500080E090E0892B19F043DF81110EC080E0F6
:103B600090E0892B79F033DF81110AC008950E941B
:103B70000000E7CF0E940000EBCF0E940000EFCFD3
:103B80000C94000008953FB7F8948091D00690916E
:103B9000D106A091D206B091D30626B5A89B05C048
:103BA0002F3F19F00196A11DB11D3FBFBA2FA92FBC
:103BB000982F8827820F911DA11DB11DBC01CD0139
:103BC00042E0660F771F881F991F4A95D1F7089525
:103BD0000895CB0108957F928F929F92AF92BF92EA
:103BE000CF92DF92EF92FF920F931F93CF93DF93C9
:103BF000EC0149015A018B01C12CD12C7601C8146A
:103C0000D904EA04FB0484F5F80171908F018F85D3
:103C100080FF0BC0E881F9810084F185E02D20E16F
:103C200044E060E070E0CE011995EB85FC858D8560
:103C30009E85E817F90738F470828B859C8501967C
:103C40009C878B870BC0672D70E0E881F981028C1F
:103C5000F38DE02DCE011995019649F02FEFC21A90
:103C6000D20AE20AF20ACBCFB401C50102C0B60102
:103C7000C701DF91CF911F910F91FF90EF90DF90DF
:103C8000CF90BF90AF909F908F907F900895CF93EB
:103C9000DF93EC01E881F9810288F389E02D199521
:103CA0008F3F2FEF920731F02D813E812F5F3F4FE5
:103CB0003E832D83DF91CF9108958FEF9FEF08957D
:103CC00060E070E0CB01089580E090E00895CF932C
:103CD000DF93EC0188899989DC01ED91FC910084E6
:103CE000F185E02D1995892BA9F388899989DC0143
:103CF000ED91FC910284F385E02DDF91CF91199431
:103D0000CF93DF93EC0188899989DC01ED91FC91D7
:103D10000084F185E02D1995892BA9F3888999896B
:103D2000DC01ED91FC910484F585E02DDF91CF91CC
:103D300019948F929F92AF92BF92CF92DF92EF929F
:103D4000FF920F931F93CF93DF938C0149015A0188
:103D5000EB01C12CD12C7601D80150968D919C910C
:103D60005197DC01ED91FC910284F385E02D1995CA
:103D70008F3F61F0C814D904EA04FB043CF4899332
:103D8000BFEFCB1ADB0AEB0AFB0AE6CFC701B6018D
:103D9000DF91CF911F910F91FF90EF90DF90CF9027
:103DA000BF90AF909F908F900895DC0150968D91B9
:103DB0009C915197DC01ED91FC910084F185E02DFF
:103DC000199480E090E0089580E090E0089580E00C
:103DD00090E0089508950E94E83E0F931F93CF93BB
:103DE000DF936F3F2FEF720719F480E090E011C06E
:103DF000EB018C016A3031F46DE0F8018089918922
:103E00000E942B276C2FF801808991890E942B2713
:103E1000CE01DF91CF911F910F9108957F928F92E4
:103E20009F92AF92BF92CF92DF92EF92FF920F9349
:103E30001F93CF93DF938C0149015A01EB01C12CF1
:103E4000D12C7601C814D904EA04FB04A4F47990B7
:103E50008AE0781205C06DE0F80180899189FBD76E
:103E6000672DF80180899189F6D7FFEFCF1ADF0A15
:103E7000EF0AFF0AE7CFC501B401DF91CF911F918F
:103E80000F91FF90EF90DF90CF90BF90AF909F90F9
:103E90008F907F900895A6E4B3E01296ED91FC9187
:103EA0001397369720813181820F931F14962D919D
:103EB0003C911597FC01318320830895DC01ED913D
:103EC000FC91369720813181820F931FE4CFCF93ED
:103ED000DF93EC01E0DFCE01DF91CF910C94FD3850
:103EE000DC01ED91FC91369720813181820F931F87
:103EF000EECFAEECB2E01296ED91FC9113973697AF
:103F000020813181820F931F14962D913C9115973A
:103F1000FC01318320830895DC01ED91FC913697FB
:103F200020813181820F931FE4CFCF93DF93EC0187
:103F3000E0DFCE01DF91CF910C94FD38DC01ED91F3
:103F4000FC91369720813181820F931FEECF0C9424
:103F5000FD38089508950C94FD38DC01ED91FC9135
:103F6000369720813181820F931FF5CF0C94FD3855
:103F7000CF93DF93EC010E94B80FCE01DF91CF9178
:103F80000C94FD38DC01ED91FC9136972081318154
:103F9000820F931FEDCFDC01ED91FC9136972081CC
:103FA0003181820F931F0C94B80F1F920F920FB69E
:103FB0000F9211240BB60F922F933F934F935F9361
:103FC0006F937F938F939F93AF93BF93EF93FF93E1
:103FD00084ED96E020DDFF91EF91BF91AF919F912D
:103FE0008F917F916F915F914F913F912F910F90A2
:103FF0000BBE0F900FBE0F901F9018951F920F923F
:104000000FB60F9211240BB60F922F933F934F933D
:104010005F936F937F938F939F93AF93BF93EF9330
:10402000FF9384ED96E00E949317FF91EF91BF916B
:10403000AF919F918F917F916F915F914F913F9140
:104040002F910F900BBE0F900FBE0F901F901895E1
:104050001F920F920FB60F9211240BB60F922F934F
:104060003F934F935F936F937F938F939F93AF9300
:10407000BF93EF93FF9381E797E0CDDCFF91EF9142
:10408000BF91AF919F918F917F916F915F914F9170
:104090003F912F910F900BBE0F900FBE0F901F906E
:1040A00018951F920F920FB60F9211240BB60F9214
:1040B0002F933F934F935F936F937F938F939F9330
:1040C000AF93BF93EF93FF9381E797E00E9493171D
:1040D000FF91EF91BF91AF919F918F917F916F91E0
:1040E0005F914F913F912F910F900BBE0F900FBE9C
:1040F0000F901F9018951F920F920FB60F921124D8
:104100000BB60F922F933F934F935F936F937F93D1
:104110008F939F93AF93BF93EF93FF938EE098E0BD
:104120007ADCFF91EF91BF91AF919F918F917F9139
:104130006F915F914F913F912F910F900BBE0F9018
:104140000FBE0F901F9018951F920F920FB60F92EF
:1041500011240BB60F922F933F934F935F936F935E
:104160007F938F939F93AF93BF93EF93FF938EE0D3
:1041700098E00E949317FF91EF91BF91AF919F91AB
:104180008F917F916F915F914F913F912F910F9000
:104190000BBE0F900FBE0F901F9018951F920F929D
:1041A0000FB60F9211240BB60F922F933F934F939C
:1041B0005F936F937F938F939F93AF93BF93EF938F
:1041C000FF938FEA98E027DCFF91EF91BF91AF91C9
:1041D0009F918F917F916F915F914F913F912F911F
:1041E0000F900BBE0F900FBE0F901F9018951F924F
:1041F0000F920FB60F9211240BB60F922F933F938D
:104200004F935F936F937F938F939F93AF93BF93DE
:10421000EF93FF938FEA98E00E949317FF91EF913D
:10422000BF91AF919F918F917F916F915F914F91CE
:104230003F912F910F900BBE0F900FBE0F901F90CC
:10424000189590E0FC013197E231F10508F04EC07D
:104250008827EE58FF4F8F4F0C94EC3D80918000E3
:104260008F7703C0809180008F7D809380000895B8
:1042700080918000877FF9CF84B58F7702C084B5A5
:104280008F7D84BD08958091B0008F7703C08091A9
:10429000B0008F7D8093B0000895809190008F775B
:1042A00007C0809190008F7D03C080919000877F30
:1042B0008093900008958091A0008F7707C080912F
:1042C000A0008F7D03C08091A000877F8093A00015
:1042D0000895809120018F7707C0809120018F7D04
:1042E00003C080912001877F809320010895CF93A0
:1042F000DF93282F30E0F901E350FD4F8491F9015D
:10430000E954FD4FD491F901EF58FD4FC491CC23EE
:1043100089F0811196DFEC2FF0E0EE0FFF1FED5BCF
:10432000FC4FA591B491EC91ED2381E090E021F454
:1043300080E002C080E090E0DF91CF9108958F92FD
:104340009F92AF92BF92CF92DF92EF92FF926B015A
:104350007C0119DC4B015C01C114D104E104F104BE
:10436000E9F011DCDC01CB0188199909AA09BB0924
:10437000883E9340A105B10578F321E0C21AD10827
:10438000E108F10888EE880E83E0981EA11CB11C9C
:10439000C114D104E104F10421F7DECFFF90EF90C6
:1043A000DF90CF90BF90AF909F908F9008952FB7E0
:1043B000F8946091CC067091CD068091CE069091D4
:1043C000CF062FBF08951F920F920FB60F921124A0
:1043D0002F933F938F939F93AF93BF938091CC067E
:1043E0009091CD06A091CE06B091CF063091CB062C
:1043F00023E0230F2D3720F40196A11DB11D05C028
:1044000026E8230F0296A11DB11D2093CB068093B1
:10441000CC069093CD06A093CE06B093CF068091A4
:10442000D0069091D106A091D206B091D306019604
:10443000A11DB11D8093D0069093D106A093D20602
:10444000B093D306BF91AF919F918F913F912F91E0
:104450000F900FBE0F901F9018951F920F920FB6DE
:104460000F9211240BB60F922F933F934F935F93AC
:104470006F937F938F939F93AF93BF93EF93FF932C
:10448000E0910E02F0910F021995FF91EF91BF910B
:10449000AF919F918F917F916F915F914F913F91DC
:1044A0002F910F900BBE0F900FBE0F901F9018957D
:1044B0001F920F920FB60F9211240BB60F922F93EB
:1044C0003F934F935F936F937F938F939F93AF939C
:1044D000BF93EF93FF93E0910C02F0910D021995B9
:1044E000FF91EF91BF91AF919F918F917F916F91CC
:1044F0005F914F913F912F910F900BBE0F900FBE88
:104500000F901F9018951F920F920FB60F921124C3
:104510000BB60F922F933F934F935F936F937F93BD
:104520008F939F93AF93BF93EF93FF93E09102021A
:10453000F09103021995FF91EF91BF91AF919F9177
:104540008F917F916F915F914F913F912F910F903C
:104550000BBE0F900FBE0F901F9018951F920F92D9
:104560000FB60F9211240BB60F922F933F934F93D8
:104570005F936F937F938F939F93AF93BF93EF93CB
:10458000FF93E0910002F09101021995FF91EF91E4
:10459000BF91AF919F918F917F916F915F914F915B
:1045A0003F912F910F900BBE0F900FBE0F901F9059
:1045B00018951F920F920FB60F9211240BB60F92FF
:1045C0002F933F934F935F936F937F938F939F931B
:1045D000AF93BF93EF93FF93E0910A02F0910B0228
:1045E0001995FF91EF91BF91AF919F918F917F911D
:1045F0006F915F914F913F912F910F900BBE0F9054
:104600000FBE0F901F9018951F920F920FB60F922A
:1046100011240BB60F922F933F934F935F936F9399
:104620007F938F939F93AF93BF93EF93FF93E0910B
:104630000802F09109021995FF91EF91BF91AF9196
:104640009F918F917F916F915F914F913F912F91AA
:104650000F900BBE0F900FBE0F901F9018951F92DA
:104660000F920FB60F9211240BB60F922F933F9318
:104670004F935F936F937F938F939F93AF93BF936A
:10468000EF93FF93E0910602F09107021995FF91D5
:10469000EF91BF91AF919F918F917F916F915F91BA
:1046A0004F913F912F910F900BBE0F900FBE0F9027
:1046B0001F9018951F920F920FB60F9211240BB6F0
:1046C0000F922F933F934F935F936F937F938F93AB
:1046D0009F93AF93BF93EF93FF93E0910402F09108
:1046E00005021995FF91EF91BF91AF919F918F9125
:1046F0007F916F915F914F913F912F910F900BBEE2
:104700000F900FBE0F901F90189508950895EF9287
:10471000FF920F931F93CF93DF93EC017B018C01EA
:104720000A5F1F4FB8010C9660D3B701C8015DD373
:1047300081E08B83DF91CF911F910F91FF90EF90DC
:104740000895AC0120915A09E0915809F091590956
:1047500090E0291749F0608171816417750709F4A9
:1047600016829F5F3796F5CF0895CF93DF93CDB72D
:10477000DEB728970FB6F894DEBF0FBECDBF9C0101
:1047800088E0E4E6F2E0DE01119601900D928A9550
:10479000E1F7F9018085841710F44FEF480FFE010F
:1047A0003196E40FF11DE40FF11D9081690F6068EF
:1047B000C90128960FB6F894DEBF0FBECDBFDF91BA
:1047C000CF910C942F12CF93DF93EC0161157105FB
:1047D00061F0FB0101900020E9F73197AF01461B22
:1047E000570B0E94AC17811102C0CE01CDD2CE0171
:1047F000DF91CF910895FC016681262F22602683E8
:104800006A600C942F12FF920F931F93CF93DF9344
:104810009093810980938009C0E0D1E0E091800904
:10482000F09181098481C817D0F492818381E92FA6
:10483000F82FEC0FF11DEC0FF11D80819181DC014F
:10484000ED91FC910480F581E02D1995019729F0F7
:10485000E0918009F0918109D583CF5FDFCF80910E
:104860007E098F3F41F02481809162099091630914
:10487000211118C01AC020916909A0916709B0914F
:10488000680980E090E0281751F04D915D91E417A0
:10489000F50719F480937F0991E08F5FF4CF9111B0
:1048A000E2CF70C02581211110C010926609FC0171
:1048B00066816D7F668368600E942F12A0918009D7
:1048C000B091810980E091E046C021E02093660923
:1048D00092DFD4E684E6F82EC0E0E0918009F09102
:1048E00081098481C81790F592818381E92FF82F7F
:1048F000EC0FF11DEC0FF11D00811181D801ED913C
:10490000FC910480F581E02DC80119950197E1F033
:10491000F8012581422F50E08D2F0D2E000C990BB0
:104920004817590751F4848190E04F2D0F2C000C4B
:10493000550B8417950724F007C04817590724F42E
:10494000D8011496FC90D22FCF5FC7CFF0926409A4
:10495000D0936509B3CF14962C911497821790F4D5
:1049600012963C91129713962C911397E32FF22FE6
:10497000E80FF11DE80FF11D0190F081E02D938308
:104980008F5FE9CFDF91CF911F910F91FF90089535
:104990000F931F93CF93DF938C0190915A0920912D
:1049A000580930915909D901F90180E041E098177F
:1049B00069F0608171816017710729F44683628113
:1049C0007381758364838F5F3796F1CF60915D0942
:1049D00070915E09F90140E060957095941789F037
:1049E0008681882359F0C081D1810C171D0731F0D1
:1049F000C481D581C60FD71FD583C4834F5F379637
:104A0000EDCF1092610981E08917D8F41D964C9181
:104A10001D97442399F040916109F90157E0459FA2
:104A2000E00DF11D11241B966D917C911C97448122
:104A300055816417750710F4809361098F5F17968D
:104A4000E3CF80916109F90197E0899FE00DF11DA5
:104A50001124848195819093600980935F0910925D
:104A60005E0910925D09DF91CF911F910F9108951A
:104A7000EF92FF920F931F93CF93DF93CDB7DEB7E3
:104A8000A1970FB6F894DEBF0FBECDBF7C01CB015E
:104A9000BA01F701118210821382128215821482E8
:104AA0008E010F5F1F4F22E044E00E944636BC019A
:104AB000C7010E94EC17A1960FB6F894DEBF0FBE97
:104AC000CDBFDF91CF911F910F91FF90EF9008958F
:104AD0000F931F93CF93DF93CDB7DEB762970FB6D7
:104AE000F894DEBF0FBECDBF8C01CB01F80111825F
:104AF000108213821282158214824AE0BE016F5F17
:104B00007F4F0E946836BE016F5F7F4FC8010E94D1
:104B1000EC1762960FB6F894DEBF0FBECDBFDF91E3
:104B2000CF911F910F910895EF92FF920F931F93D2
:104B3000CF93DF93CDB7DEB72C970FB6F894DEBFD7
:104B40000FBECDBF7C0167E775E0CE0107966FD140
:104B5000F70180899189009711F4128501C0182FFF
:104B600000E01017A1F0BE01695F7F4FCE010196F2
:104B700056D169E575E0CE01019625DEBC01CE0176
:104B8000079633D1CE01019645D10F5FEACFF701E9
:104B9000458164818091620990916309E6DDBE01DF
:104BA000695F7F4F80916209909163095BD1CE016B
:104BB000079630D12C960FB6F894DEBF0FBECDBF4E
:104BC000DF91CF911F910F91FF90EF9008951F9368
:104BD000CF93DF9380917F098F3F39F468E775E0C9
:104BE00080916209909163094BD110E0E0918009B6
:104BF000F09181098481181770F592818381E92FE2
:104C0000F82FE10FF11DE10FF11DC081D1818B81E2
:104C10008823F9F08A81811103C0CE0185DF18C095
:104C2000288939898A859B858217930710F4CE01DC
:104C30007BDF4D816C81809162099091630995DDE4
:104C4000BE016A5F7F4F80916209909163090AD12A
:104C50001B821F5FCBCF40916509609164098091F1
:104C6000620990916309DF91CF911F917ECD809170
:104C7000820990918309892BA9F58091620990910D
:104C800063090E943F12E0917E09EF3FF1F48091A9
:104C90007F098F5F80937F092091690930E0082E9A
:104CA000000C990B2817390711F410927F09E09135
:104CB0007F09EE0FFF0B8091670990916809E80F5B
:104CC000F91F808191819FDD0CC0EE0FFF0BE6592B
:104CD000F64F8081918197DD80917E09815080938C
:104CE0007E0975CF0895CF92DF92EF92FF920F93D6
:104CF0001F93CF93DF936C017A018B01C0E0D0E06A
:104D0000CE15DF0581F0D8016D918D01D601ED91B1
:104D1000FC910190F081E02DC6011995892B11F0CD
:104D20002196EECF7E01C701DF91CF911F910F91A8
:104D3000FF90EF90DF90CF9008950F931F93CF9344
:104D4000DF93EC0188819981009729F02A813B81CA
:104D50002617370788F48B016F5F7F4F0E94083E4C
:104D6000009761F0998388831B830A832C813D819E
:104D7000232B11F4FC01108281E001C080E0DF915F
:104D8000CF911F910F910895CF93DF93EC0188810C
:104D90009981009711F00E94FD38198218821D82B6
:104DA0001C821B821A82DF91CF910895EF92FF92AD
:104DB0000F931F93CF93DF93EC017B018A01BA011C
:104DC000BCDF811103C0CE01DFDF07C01D830C8370
:104DD000B701888199810E94FE3ECE01DF91CF917B
:104DE0001F910F91FF90EF900895CF93DF93EC0107
:104DF000FB018617970751F060817181611571057C
:104E000021F044815581D2DF01C0BEDFCE01DF91A8
:104E1000CF910895FC01808191810C94FD38FC01B3
:104E2000118210821382128215821482DECFFC015D
:104E3000118210821382128215821482611571050B
:104E400049F0FB0101900020E9F73197AF01461BC3
:104E5000570BACCF0895DC01ED91FC910190F081EE
:104E6000E02D1994DB0114964D915C9115976D918D
:104E70007C91DC01ED91FC910280F381E02D19948D
:104E80006115710579F0FB0101900020E9F7319778
:104E9000AF01461B570BDC01ED91FC910280F381C1
:104EA000E02D199480E090E008950F931F93CF9325
:104EB000DF93EC01E5DF8C0165E775E0CE01E0DF13
:104EC000800F911FDF91CF911F910F910895CF9384
:104ED000DF93CDB7DEB76A970FB6F894DEBF0FBE8B
:104EE000CDBF789484B5826084BD84B5816084BD73
:104EF00085B5826085BD85B5816085BD80916E0078
:104F0000816080936E0010928100809181008260A8
:104F100080938100809181008160809381008091E5
:104F200080008160809380008091B10084608093D4
:104F3000B1008091B00081608093B00080919100B9
:104F400082608093910080919100816080939100B4
:104F5000809190008160809390008091A100826098
:104F60008093A1008091A10081608093A100809135
:104F7000A00081608093A0008091210182608093D5
:104F80002101809121018160809321018091200184
:104F900081608093200180917A00846080937A0000
:104FA00080917A00826080937A0080917A0081609B
:104FB00080937A0080917A00806880937A001092C2
:104FC000C10083E192E09093EE058093ED058CE0C3
:104FD00092E09093F0058093EF0585E092E0909346
:104FE000F2058093F1058EEF91E09093E8058093B0
:104FF000E70587EF91E09093EA058093E90580EF5C
:1050000091E09093EC058093EB0540E855E260E079
:1050100070E08FEA98E00E94820340E855E260E089
:1050200070E08EE098E00E94820340E855E260E084
:1050300070E081E797E00E94820340E855E260E07B
:1050400070E084ED96E00E9482036FEA78E0CE0182
:1050500001960E941F1CBE016F5F7F4F80E999E09F
:105060000E94F614CE0101960E9466126EE078E06E
:10507000CE0101960E941F1CBE016F5F7F4F8AEA1E
:1050800099E00E94F614CE0101960E94661261E733
:1050900077E0CE0101960E941F1CBE016F5F7F4F1B
:1050A00084EC99E00E94F614CE0101960E946612EB
:1050B00064ED76E0CE0101960E941F1CBE016F5F79
:1050C0007F4F8EED99E00E94F614CE0101960E946A
:1050D00066128EE098E0909393098093920981E79D
:1050E00097E0909395098093940984ED96E09093CE
:1050F00097098093960940E855E260E070E08EE001
:1051000098E00E94820340E855E260E070E0809100
:105110009409909195090E94820340E855E260E06D
:1051200070E080919609909197090E94820381E036
:1051300080939B090FEA18E01093AD090093AC0926
:1051400040E855E260E070E0C8010E9482031093DD
:10515000C7090093C60940E855E260E070E0C80165
:105160000E9482031093E1090093E00940E855E2B0
:1051700060E070E0C8010E9482036CE673E0CE013B
:10518000019655DE43E752E0BE016F5F7F4F80E935
:1051900099E00E94651BCE0101963CDEBDEEEB2E30
:1051A000B5E0FB2E17EEC12E15E0D12E0AEA19E06C
:1051B00082EAA82E85E0B82E9EE9692E95E0792E28
:1051C0002AE9422E25E0522ED7018D909D907D0137
:1051D00064E773E0CE0101962ADEA401BE016F5F91
:1051E0007F4FC8010E94651BCE01019613DEF601B8
:1051F000819091906F016DE773E0CE01019617DE0B
:10520000A401BE016F5F7F4FC8010E94651BCE01E4
:10521000019600DE69E873E0CE01019608DE40EBFE
:105220005BE0BE016F5F7F4FC8010E94651BCE012E
:105230000196F0DD6AE075E0CE010196F8DD4EEAF8
:1052400055E0BE016F5F7F4FC8010E94AB1ACE01CF
:105250000196E0DD62E175E0CE010196E8DD4AEA03
:1052600055E0BE016F5F7F4FC8010E94AB1ACE01AF
:105270000196D0DD6CE873E0CE010196D8DD46EAF8
:1052800055E0BE016F5F7F4FC8010E94AB1ACE018F
:105290000196C0DDD8011E96BC92AE921D97509625
:1052A0007C926E921F9752965C924E925197065E38
:1052B0001F4FB3EFEB16B5E0FB0609F085CF86E094
:1052C00090E00E946538FC0116E0DC01212F1D9260
:1052D0002A95E9F714821582A6E2EA2EA2E0FA2EB8
:1052E000F182E0829093E6058093E50562E973E040
:1052F000CE0101969CDD82E190E00E9465386091CC
:10530000E5057091E60500E02EE0AE014F5F5F4FCE
:105310000E94D019CE0101967DDD67E973E0CE01D0
:10532000019685DD82E190E00E9465386091E50597
:105330007091E60527E0AE014F5F5F4F0E94D019E4
:10534000CE01019667DD6CE973E0CE0101966FDD59
:1053500082E190E00E9465386091E5057091E60574
:1053600020E0AE014F5F5F4F0E94D019CE01019641
:1053700051DD60EC73E0CE01019659DD82E190E0F1
:105380000E9465386C016091E5057091E60501E0C9
:105390002EE0AE014F5F5F4F0E94D019D092990569
:1053A000C0929805CE01019635DD60EC73E0CE0128
:1053B00001963DDD82E190E00E9465386C016091CC
:1053C000E5057091E60527E0AE014F5F5F4F0E9453
:1053D000D019D0929705C0929605CE0101961ADD9C
:1053E00060EC73E0CE01019622DD82E190E00E9444
:1053F00065386C016091E5057091E60520E0AE012D
:105400004F5F5F4F0E94D019D0929505C0929405CE
:10541000CE010196FFDC61EA73E0CE01019607DD63
:1054200084E190E00E9465386C016091E50570911F
:10543000E60502E020E0AE014F5F5F4F0E949B193E
:10544000D092E405C092E305CE010196E3DCE09141
:10545000E305F091E40589E59BE0938B828B66EA96
:1054600073E0CE010196E3DC84E190E00E946538B0
:105470006C016091E5057091E60520E1AE014F5F9A
:105480005F4F0E949B19D092E205C092E105CE01C8
:105490000196C0DCE091E105F091E20581EF9AE030
:1054A000938B828B6BEA73E0CE010196C0DC82E1C4
:1054B00090E00E9465386C016091E5057091E60509
:1054C00003E020E0AE014F5F5F4F0E94D019D09201
:1054D000B305C092B205CE0101969CDC86E090E057
:1054E0000E946538FC01DC01212F1D922A95E9F705
:1054F00014821582F182E0829093E0058093DF05AB
:1055000065EB73E0CE01019692DC82E190E00E94AF
:1055100065386091DF057091E00500E020E0AE01A4
:105520004F5F5F4F0E94D019CE01019673DC89E274
:1055300090E00E9465386C016091DF057091E00594
:1055400020E042E00E944B1AD0929305C09292054F
:1055500082EA95E0D60192969C938E93919784E986
:105560009DE090969C938E935F9768EB73E0CE01DD
:1055700001965DDC82E190E00E9465386091DF0574
:105580007091E0052AE0AE014F5F5F4F0E94D01995
:10559000CE0101963FDC89E290E00E9465386C0103
:1055A0006091DF057091E00520E04CE00E944B1A0D
:1055B000D0929105C09290058EE995E0F60192A3F4
:1055C00081A380E09DE090A3878F6BEB73E0CE0119
:1055D00001962DDC82E190E00E9465386091DF0544
:1055E0007091E00501E020E0AE014F5F5F4F0E9447
:1055F000D019CE0101960EDC89E290E00E94653858
:105600006C016091DF057091E00521E042E00E94AD
:105610004B1AD0928F05C0928E058AE995E0D6018B
:1056200092969C938E9391978CE69CE090969C9397
:105630008E935F976EEB73E0CE010196F8DB84E109
:1056400090E00E9465386C016091DF057091E00583
:105650002AE0AE014F5F5F4F0E94031AD0928D0582
:10566000C0928C05CE010196D5DB65EC73E0CE01CE
:105670000196DDDB82E190E00E946538E0918C05C7
:10568000F0918D056289738900E024E0AE014F5FDF
:105690005F4F0E94D019CE010196BCDB61EC74E033
:1056A000CE010196C4DB84E190E00E9465386C0174
:1056B000E0918C05F0918D056289738901E020E00D
:1056C000AE014F5F5F4F0E949B19D092DE05C092E2
:1056D000DD05CE0101969EDBE091DD05F091DE0552
:1056E0008CEF97E0938B828B68EB74E0CE01019690
:1056F0009EDB84E190E00E9465386C01E0918C05AE
:10570000F0918D056289738902E020E0AE014F5F60
:105710005F4F0E949B19D092DC05C092DB05CE0141
:10572000019678DBE091DB05F091DC0582ED97E0F6
:10573000938B828B61EB74E0CE01019678DB84E180
:1057400090E00E9465386C01E0918C05F0918D0528
:105750006289738903E020E0AE014F5F5F4F0E94D2
:105760009B19D092DA05C092D905CE01019652DB81
:10577000E091D905F091DA0588EA97E0938B828B66
:1057800063ED73E0CE01019652DB84E190E00E946C
:1057900065386C016091DF057091E00502E020E062
:1057A000AE014F5F5F4F0E94031AD092D805C0929E
:1057B000D705CE0101962EDB6EED73E0CE0101968A
:1057C00036DB82E190E00E946538E091D705F091E8
:1057D000D8056289738900E024E0AE014F5F5F4F16
:1057E0000E94D019CE01019615DB6AEE73E0CE015E
:1057F00001961DDB84E190E00E9465386C01E09128
:10580000D705F091D8056289738901E020E0AE01E7
:105810004F5F5F4F0E949B19D092D605C092D5056D
:10582000CE010196F7DAE091D505F091D6058AEE22
:1058300092E0938B828B65EF73E0CE010196F7DAED
:1058400084E190E00E9465386C01E091D705F09109
:10585000D8056289738902E020E0AE014F5F5F4F97
:105860000E949B19D092D405C092D305CE01019617
:10587000D1DAE091D305F091D40584EB92E0938BDB
:10588000828B60E074E0CE010196D1DA84E190E091
:105890000E9465386C01E091D705F091D8056289C6
:1058A000738903E020E0AE014F5F5F4F0E949B19B8
:1058B000D092D205C092D105CE010196ABDAE0912B
:1058C000D105F091D2058EE792E0938B828B67E74A
:1058D00075E0CE010196ABDA82E190E00E94653876
:1058E0006C016091DF057091E00520E0AE014F5F33
:1058F0005F4F0E94D019D092C405C092C305CE015B
:10590000019688DA86E090E00E946538FC01DC01AF
:10591000212F1D922A95E9F714821582F182E082E7
:105920009093D0058093CF056BE074E0CE01019693
:105930007EDA84E190E00E9465386C016091CF05C9
:105940007091D00501E020E0AE014F5F5F4F0E94F3
:105950009B19D092CE05C092CD05CE0101965ADAA0
:10596000E091CD05F091CE058BE996E0938B828B8B
:1059700065E174E0CE0101965ADA82E190E00E947E
:1059800065386C016091CF057091D0052BE0AE01B8
:105990004F5F5F4F0E94D019D0928B05C0928A054D
:1059A000CE01019637DA6DE174E0CE0101963FDA5F
:1059B00084E190E00E9465386C016091CF057091A0
:1059C000D00502E020E0AE014F5F5F4F0E949B19BF
:1059D000D0928905C0928805CE0101961BDAE0912C
:1059E0008805F091890586E496E0938B828B61E2CD
:1059F00074E0CE0101961BDA84E190E00E946538E4
:105A00006C016091CF057091D0052EE0AE014F5F23
:105A10005F4F0E949B19D092CC05C092CB05CE015E
:105A20000196F8D9E091CB05F091CC0582EE95E096
:105A3000938B828B86E090E00E946538FC01DC014C
:105A40001D921A95E9F714821582F182E0829093F3
:105A5000CA058093C90567E274E0CE010196E7D9D3
:105A600082E190E00E9465386091C9057091CA0595
:105A700000E026E0AE014F5F5F4F0E94D019CE01DB
:105A80000196C8D96FE274E0CE010196D0D982E1C7
:105A900090E00E9465386091C9057091CA0501E0E7
:105AA00020E0AE014F5F5F4F0E94D019CE010196FA
:105AB000B1D989E290E00E9465388C016091C905F6
:105AC0007091CA0521E044E00E944B1A10938705AB
:105AD000009386058EEA95E0F80192A381A382E106
