:1000000014C10000F0C60000C3C6000096C6000080
:1000100069C600003CC600000FC60000E2C5000033
:10002000B5C5000033C1000031C100002FC1000080
:100030002DC100002BC1000029C1000027C1000014
:1000400025C1000023C1000021C100001FC1000024
:100050001DC100001BC1000019C100004DC50000FA
:1000600015C10000CCC30000A1C300000FC10000F7
:100070000DC100000BC1000009C1000007C1000054
:1000800005C1000003C1000001C10000FFC0000065
:10009000FDC00000FBC00000F9C00000CFC600009A
:1000A000F5C00000F3C00000F1C00000EFC0000088
:1000B000EDC00000EBC00000E9C00000E7C0000098
:1000C000E5C00000E3C00000E1C00000DFC00000A8
:1000D000DDC00000DBC00000D9C00000D7C00000B8
:1000E000D5C0000050045304420446044C048A0462
:1000F00057045B046104650469046F0473047704A6
:100100008A047D0481048504000020002300260069
:1001100029002C002F00320000010000030106011D
:10012000090100002100240027002A002D003000D2
:10013000330001010000040107010A010000220050
:10014000250028002B002E003100340002010000A1
:10015000050108010B010505050507050808080844
:10016000020202020A0A080804040404010101014F
:10017000010101010303030303030303040707074A
:100180000C0C0C0C0C0C0C0C0202020206060606EF
:10019000060606060B0B0B0B0B0B0B0B01021020BC
:1001A00020080810204010204080020102010804AD
:1001B0000201010204081020408080402010080441
:1001C000020180040201804020100804020108049A
:1001D00002010102040810204080010204081020DE
:1001E000408000000A0B02090C0D0E0807030401F1
:1001F00000000000000000000000000000000000FF
:1002000000000000000000000000000000001211CB
:1002100010000000000000000000000000000000CE
:100220000000000000000000AC0D11241FBECFEF45
:10023000D1E2DEBFCDBF00E00CBF24E0A0EAB2E017
:1002400001C01D92A138B207E1F712E0A0E0B2E0D0
:10025000E6EAF0E200E00BBF02C007900D92A03A80
:10026000B107D9F711E0C5E1D1E000E006C0219760
:100270000109802FFE010E94340EC431D10780E0B5
:100280000807A9F70E94910B0C945110B9CECF9298
:10029000DF92EF92FF920F931F93CF93DF936C0146
:1002A0007A018B01C0E0D0E0CE15DF0581F0D801E6
:1002B0006D918D01D601ED91FC910190F081E02DC1
:1002C000C6011995892B11F02196EECF7E01C70149
:1002D000DF91CF911F910F91FF90EF90DF90CF9022
:1002E0000895FC01538D448D252F30E0842F90E03C
:1002F000821B930B541710F0CF9608950197089521
:10030000FC01918D828D981761F0828DDF01A80F1D
:10031000B11D5D968C91928D9F5F9F73928F90E03F
:1003200008958FEF9FEF0895FC01918D828D9817AE
:1003300031F0828DE80FF11D858D90E008958FEFEB
:100340009FEF0895FC01918D228D892F90E0805CB4
:100350009F4F821B91098F739927089587E693E039
:10036000F1DF21E0892B09F420E0822F0895FC01C0
:10037000848DDF01A80FB11DA35ABF4F2C91848D2E
:1003800090E001968F739927848FA689B7892C9363
:10039000A089B1898C91837080648C93938D848DB6
:1003A000981306C00288F389E02D80818F7D8083B9
:1003B0000895EF92FF920F931F93CF93DF93EC0179
:1003C00081E0888F9B8D8C8D981305C0E889F98911
:1003D000808185FD25C0F62E0B8D10E00F5F1F4F2D
:1003E0000F731127E02E8C8DE8120BC00FB607FC9F
:1003F000FACFE889F989808185FFF5CFCE01B7DF93
:10040000F2CF8B8DFE01E80FF11DE35AFF4FF08212
:100410009FB7F8940B8FEA89FB89808180620AC0BC
:100420009FB7F894EE89FF896083E889F989808114
:100430008370806480839FBF81E090E0DF91CF91E3
:100440001F910F91FF90EF900895CF93DF93EC01F0
:10045000888D8823C1F0EA89FB89808185FD05C0EC
:10046000A889B9898C9186FD0EC00FB607FCF5CF1F
:10047000808185FFF2CFA889B9898C9185FFEDCF66
:10048000CE0175DFE8CFDF91CF91089580E090E055
:10049000892B19F063DF811125C080E090E0892B62
:1004A00041F080E090E0892B21F00E940000811152
:1004B0001CC080E090E0892B41F080E090E0892B27
:1004C00021F00E940000811113C080E090E0892B90
:1004D000A1F080E090E0892B81F00E940000811162
:1004E0000AC008950E940000D8CF0E940000E1CF0A
:1004F0000E940000EACF0C94000008953FB7F894E2
:1005000080910A0390910B03A0910C03B0910D030D
:1005100026B5A89B05C02F3F19F00196A11DB11D5E
:100520003FBFBA2FA92F982F8827820F911DA11D99
:10053000B11DBC01CD0142E0660F771F881F991FD6
:100540004A95D1F70895089585ED8093BC00809178
:10055000BC0084FDFCCF1092430308954091E20259
:10056000262F30E0240F311D21323105DCF420919B
:1005700043032430C9F4FC0180E090E0861758F46E
:100580003091E2022191DC01AE53BD4FA30FB11DAA
:100590002C930196F3CF8091E202680F6093E20200
:1005A00080E0089581E0089582E008950895089517
:1005B000E0911C0380911B03E81730F4F0E0EE5546
:1005C000FD4F808190E008958FEF9FEF0895909107
:1005D0001C0380911B03981750F4E92FF0E0EE55AF
:1005E000FD4F208130E09F5F90931C0302C02FEFEE
:1005F0003FEFC901089580911B0390E020911C03F7
:10060000821B91090895CF92DF92EF92FF920F9390
:100610001F93CF93DF937C01CB018A012091660366
:10062000222389F0EB016B01C40ED51ECC15DD052C
:1006300061F06991D701ED91FC910190F081E02D7D
:10064000C7011995F3CF642F89DFC801DF91CF91DE
:100650001F910F91FF90EF90DF90CF900895CF936F
:10066000DF931F92CDB7DEB7698320916603222303
:10067000D1F020916403203240F021E030E0FC0111
:100680003383228380E090E014C080916503E82FDB
:10069000F0E0EC5BFC4F998190838F5F8093650362
:1006A0008093640304C061E0CE01019657DF81E0CE
:1006B00090E00F90DF91CF910895089580E090E051
:1006C00008950E943D1041E0B0D581E090E008958A
:1006D0000F931F93CF93DF93EC018881998100974B
:1006E00029F02A813B812617370788F48B016F5F39
:1006F0007F4F0E945D0F009761F0998388831B8371
:100700000A832C813D81232B11F4FC01108281E0AE
:1007100001C080E0DF91CF911F910F910895CF9399
:10072000DF93EC0188819981009711F00E94D40E2B
:10073000198218821D821C821B821A82DF91CF913E
:100740000895EF92FF920F931F93CF93DF93EC01E5
:100750007B018A01BA01BCDF811103C0CE01DFDF5A
:1007600007C01D830C83B701888199810E944A10BC
:10077000CE01DF91CF911F910F91FF90EF900895DF
:100780006115710579F0FB0101900020E9F73197BF
:10079000AF01461B570BDC01ED91FC910280F38108
:1007A000E02D199480E090E0089508951F920F9233
:1007B0000FB60F9211240BB60F922F933F934F93C6
:1007C0005F936F937F938F939F93AF93BF93EF93B9
:1007D000FF9387E693E0CBDDFF91EF91BF91AF915F
:1007E0009F918F917F916F915F914F913F912F9149
:1007F0000F900BBE0F900FBE0F901F9018951F9279
:100800000F920FB60F9211240BB60F922F938F9366
:100810009F93EF93FF93E0917703F09178038081AA
:10082000E0917D03F0917E0382FD12C09081809162
:1008300080038F5F8F7320918103821751F0E091C5
:100840008003F0E0E959FC4F958F8093800301C04D
:100850008081FF91EF919F918F912F910F900BBE0F
:100860000F900FBE0F901F90189590E0FC013197EC
:10087000E231F10508F04EC08827EE58FF4F8F4F48
:100880000C94340E809180008F7703C0809180009B
:100890008F7D80938000089580918000877FF9CFBD
:1008A00084B58F7702C084B58F7D84BD0895809113
:1008B000B0008F7703C08091B0008F7D8093B0002F
:1008C0000895809190008F7707C0809190008F7D70
:1008D00003C080919000877F80939000089580915D
:1008E000A0008F7707C08091A0008F7D03C080910A
:1008F000A000877F8093A0000895809120018F77CA
:1009000007C0809120018F7D03C080912001877FE7
:10091000809320010895CF93DF93282F30E0F901D1
:10092000EE51FE4F8491F901E456FE4FD491F90146
:10093000EA5AFE4FC491CC2389F0811196DFEC2F47
:10094000F0E0EE0FFF1FE85FFE4FA591B491EC9130
:10095000ED2381E090E021F480E002C080E090E0AF
:10096000DF91CF9108958F929F92AF92BF92CF92D5
:10097000DF92EF92FF92CF93DF93CDB7DEB7A197CF
:100980000FB6F894DEBF0FBECDBF84E0C4DF209168
:10099000A0023091A102892B19F02F5F3F4F02C0B6
:1009A000215031093093A1022093A002C090A002EF
:1009B000D090A1020D2C000CEE08FF08F7FE24C019
:1009C0006DE287E693E0F5DC22273327A9012C1995
:1009D0003D094E095F0919A2CE0181967C019AE07A
:1009E000892E912CA12CB12CCA01B901A501940129
:1009F0000E94120E605DF70162937F01211531059F
:100A00004105510589F71AC0A701960119A2CE0127
:100A100081967C018AE0882E912CA12CB12CCA01F0
:100A2000B901A50194010E94120E605DF701629365
:100A30007F01211531054105510589F7B70187E689
:100A400093E09EDE68E672E087E693E099DEA19689
:100A50000FB6F894DEBF0FBECDBFDF91CF91FF90F0
:100A6000EF90DF90CF90BF90AF909F908F900895C0
:100A70008F929F92AF92BF92CF92DF92EF92FF92AE
:100A80006B017C013BDD4B015C01C114D104E1042D
:100A9000F104E9F033DDDC01CB0188199909AA09D9
:100AA000BB09883E9340A105B10578F321E0C21A45
:100AB000D108E108F10888EE880E83E0981EA11C99
:100AC000B11CC114D104E104F10421F7DECFFF9081
:100AD000EF90DF90CF90BF90AF909F908F90089550
:100AE0002FB7F89460910603709107038091080373
:100AF000909109032FBF08951F920F920FB60F9286
:100B000011242F933F938F939F93AF93BF93809123
:100B1000060390910703A0910803B0910903309157
:100B2000050323E0230F2D3720F40196A11DB11DED
:100B300005C026E8230F0296A11DB11D20930503D1
:100B40008093060390930703A0930803B0930903CF
:100B500080910A0390910B03A0910C03B0910D03B7
:100B60000196A11DB11D80930A0390930B03A093DE
:100B70000C03B0930D03BF91AF919F918F913F9163
:100B80002F910F900FBE0F901F9018951F920F92EC
:100B90000FB60F9211240BB60F922F933F934F93E2
:100BA0005F936F937F938F939F93AF93BF93EF93D5
:100BB000FF93E0910E02F0910F021995FF91EF91D2
:100BC000BF91AF919F918F917F916F915F914F9165
:100BD0003F912F910F900BBE0F900FBE0F901F9063
:100BE00018951F920F920FB60F9211240BB60F9209
:100BF0002F933F934F935F936F937F938F939F9325
:100C0000AF93BF93EF93FF93E0910C02F0910D022D
:100C10001995FF91EF91BF91AF919F918F917F9126
:100C20006F915F914F913F912F910F900BBE0F905D
:100C30000FBE0F901F9018951F920F920FB60F9234
:100C400011240BB60F922F933F934F935F936F93A3
:100C50007F938F939F93AF93BF93EF93FF93E09115
:100C60000202F09103021995FF91EF91BF91AF91AC
:100C70009F918F917F916F915F914F913F912F91B4
:100C80000F900BBE0F900FBE0F901F9018951F92E4
:100C90000F920FB60F9211240BB60F922F933F9322
:100CA0004F935F936F937F938F939F93AF93BF9374
:100CB000EF93FF93E0910002F09101021995FF91EB
:100CC000EF91BF91AF919F918F917F916F915F91C4
:100CD0004F913F912F910F900BBE0F900FBE0F9031
:100CE0001F9018951F920F920FB60F9211240BB6FA
:100CF0000F922F933F934F935F936F937F938F93B5
:100D00009F93AF93BF93EF93FF93E0910A02F0910B
:100D10000B021995FF91EF91BF91AF919F918F9128
:100D20007F916F915F914F913F912F910F900BBEEB
:100D30000F900FBE0F901F9018951F920F920FB635
:100D40000F9211240BB60F922F933F934F935F9303
:100D50006F937F938F939F93AF93BF93EF93FF9383
:100D6000E0910802F09109021995FF91EF91BF916E
:100D7000AF919F918F917F916F915F914F913F9133
:100D80002F910F900BBE0F900FBE0F901F901895D4
:100D90001F920F920FB60F9211240BB60F922F9342
:100DA0003F934F935F936F937F938F939F93AF93F3
:100DB000BF93EF93FF93E0910602F091070219951C
:100DC000FF91EF91BF91AF919F918F917F916F9123
:100DD0005F914F913F912F910F900BBE0F900FBEDF
:100DE0000F901F9018951F920F920FB60F9211241B
:100DF0000BB60F922F933F934F935F936F937F9315
:100E00008F939F93AF93BF93EF93FF93E09104026F
:100E1000F09105021995FF91EF91BF91AF919F91CC
:100E20008F917F916F915F914F913F912F910F9093
:100E30000BBE0F900FBE0F901F9018951F920F9230
:100E40000FB60F9211240BB60F922F933F934F932F
:100E50005F936F937F938F939F93AF93BF93EF9322
:100E6000FF938091B900887F803609F49CC068F5B3
:100E7000883209F45BC090F4803109F454C038F42E
:100E8000882309F4F6C0883009F44DC0F5C08831D4
:100E900009F44CC0803209F45DC0EEC0803409F41E
:100EA00068C048F4803309F455C0883309F0E4C0C1
:100EB00080934103D8C0803509F44FC0883509F4C8
:100EC0005DC0883409F0D8C0D6C0883909F4C7C0DD
:100ED000A8F4883709F467C038F4883609F463C089
:100EE000803709F460C0C8C0883809F4B8C08039B8
:100EF00009F45FC0803809F0BFC05BC0803B09F4D3
:100F000086C038F4803A09F466C0883A09F47FC094
:100F1000B3C0803C09F4A7C0883C09F4A4C0883B56
:100F200009F48AC0A9C080911E0310C090914003AB
:100F300080913F03981770F5E091400381E08E0F98
:100F400080934003F0E0E15EFC4F80818093BB0022
:100F500085EC86C0809341038EC0E091400381E020
:100F60008E0F809340038091BB00F0E0E15EFC4F68
:100F700080839091400380913F036EC0E0914003D5
:100F800081E08E0F809340038091BB00F0E0E15E32
:100F9000FC4F80838091420381116DC081E080937A
:100FA0001D0384EA61C083E080934303109204032D
:100FB000CFCF80910403803208F051C0E091040348
:100FC00081E08E0F809304038091BB00F0E0EC5130
:100FD000FD4F8083BDCF85EC8093BC00109243030E
:100FE00080910403803230F4E0910403F0E0EC518E
:100FF000FD4F10826091040370E0E0911703F091BF
:10100000180384EE92E019951092040335C084E031
:10101000809343031092E3021092E202E0911903DD
:10102000F0911A0319958091E202811105C081E0C7
:101030008093E2021092C202E091E30281E08E0FFF
:101040008093E302F0E0EE53FD4F80818093BB007C
:101050009091E3028091E202981708F479CF85E835
:101060008093BC0009C085EC8093BC0010924303C0
:1010700003C01092410368DAFF91EF91BF91AF91E5
:101080009F918F917F916F915F914F913F912F91A0
:101090000F900BBE0F900FBE0F901F901895CF931F
:1010A000FC01C48121E020936603C0937004109278
:1010B0006503109264038385682B81E794E0CFDA9F
:1010C00090916403913208F045C0809143038111EF
:1010D000FCCF82E08093430381E0809342038FEF53
:1010E000809341031092400390933F03A4E4B3E044
:1010F000EFE1F3E080E0981721F02D9121938F5FCD
:10110000FACF10921E0380911E03CC0FC82BC09300
:101110001E0380911D03813061F410921D038091A4
:101120001E038093BB008091BC0083FDF8CF85EC4B
:1011300001C085EE8093BC00809143038230E1F3CF
:10114000809141038F3F31F080914103803211F053
:10115000809141031092650310926403109266031C
:10116000CF9108950F931F93CF938C01C62F97DFD4
:101170006C2F6460C80193DF6C2F6B7FC8018FDF19
:1011800083EC90E00197F1F7CF911F910F910895B3
:10119000CF93DF93282F30E0F901EE51FE4F849179
:1011A000F901E456FE4FD491F901EA5AFE4FC49179
:1011B000CC2381F0811159DBEC2FF0E0EE0FFF1F03
:1011C000E45CFE4FA591B4918FB7F894EC91ED2BB0
:1011D000EC938FBFDF91CF910895E7E6F3E0A0890C
:1011E000B18982E08C93A485B5851C92A685B785CC
:1011F00080E18C93108EA489B58986E08C93A289B6
:10120000B3898C9180618C93A289B3898C91886019
:101210008C93A289B3898C9180688C930288F3891E
:10122000E02D80818F7D808308950F931F93CF934E
:10123000DF938C01C62FD42F607F642B93DF80E176
:10124000C89FB00111246D2BC801DF91CF911F9170
:101250000F9188CFCF93DF93CDB7DEB728970FB626
:10126000F894DEBF0FBECDBF9C0188E0E1E2F2E062
:10127000DE01119601900D928A95E1F7F9018085C2
:10128000841710F44FEF480FFE013196E40FF11D63
:10129000E40FF11D9081690F606840E0C901289654
:1012A0000FB6F894DEBF0FBECDBFDF91CF91BDCF9B
:1012B000DB0114964D915C9115976D917C91DC0149
:1012C000ED91FC910280F381E02D1994CF92DF9291
:1012D000EF92FF920F931F93CF93DF93CDB7DEB7BB
:1012E0002C970FB6F894DEBF0FBECDBF8C011886C9
:1012F0001F821A8619861C861B8640E050E06AE62B
:1013000072E0CE0107961DDAF80180899189009775
:1013100011F4C28401C0C82ED12CCD1409F43AC0F6
:101320001A8219821C821B821E821D826F8178851F
:101330006115710529F04B855C85CE01019601DAB6
:10134000ED80FE80FFEFEF1AFF0AB701CE01019694
:10135000BFD9882309F440C029813A818D819E81BB
:101360006EE972E0820F931F95D6FE82ED8269814D
:101370007A816115710531F04D815E81CE0107964C
:10138000E0D903C0CE010796CAD989819A810CD5CC
:10139000D394C3CFF8014581648180914C0490912E
:1013A0004D0458DFBE01695F7F4F80914C049091DE
:1013B0004D047EDF8F819885F7D42C960FB6F89474
:1013C000DEBF0FBECDBFDF91CF911F910F91FF9078
:1013D000EF90DF90CF900895CE010196A0D9C7CFAE
:1013E000EF92FF920F931F93CF93DF93EC017B015A
:1013F00090934D0480934C0481E0809350049FEFC0
:1014000090934E0490934F0410921C0310921B0370
:101410001092650310926403109243038093420379
:1014200010921D0384E1B4DE85E1B2DE8091B90043
:101430008E7F8093B9008091B9008D7F8093B90031
:1014400088E48093B80085E48093BC0086ED92E048
:1014500090931A038093190387ED92E090931803F9
:10146000809317031D828A85823010F098E09D8357
:10147000888762E370E080E090E0FADA6B85CE0165
:101480000EDE68EE73E080E090E0F2DA60E3CE0119
:1014900069DE0BE416E4C8010197F1F760E3CE01C1
:1014A00061DEC8010197F1F760E3CE015BDE83E501
:1014B00092E00197F1F760E2CE0154DE6D81606247
:1014C00040E0CE01B2DE84E08E8340E06CE0CE01ED
:1014D000ACDE40E061E0CE01A8DE0BE31FE1C80115
:1014E0000197F1F782E08F8340E066E0CE019DDE58
:1014F00040E062E0CE0199DEC8010197F1F78091EA
:101500004C0490914D0428E0FC01238760E0C7DD86
:1015100080914C0490914D04FC016681262F22603D
:1015200026836A6040E081DE40E060E080914C0408
:1015300090914D048FDEB70180914C0490914D0441
:10154000B7DE68EE73E080E090E092DA40E061E0C0
:1015500080914C0490914D0468DEC8010197F1F729
:101560008FEF80936904DF91CF911F910F91FF90CE
:10157000EF900895CF93DF9390E0FC01E456FE4F87
:101580002491FC01EA5AFE4F84918823C1F090E037
:10159000880F991FFC01EE5DFE4FC591D491FC01AF
:1015A000E45CFE4FA591B4919FB7F8948881322FE7
:1015B000309583238883EC91E22BEC939FBFDF91DE
:1015C000CF910895CF93DF93BC0187E693E0D8D8FD
:1015D000EC0168E672E087E693E0D2D88C0F9D1F9D
:1015E000DF91CF910895AF92BF92CF92DF92EF92A9
:1015F000FF920F931F93CF93DF9390910E0320914F
:101600000F0330911003C0E09C1799F12D5F3F4FFD
:10161000F9013397408148132AC07DD9D0E0892B46
:1016200051F1CE01880F991F880F991F0091110366
:1016300010911203080F191F53DAF80160837183A8
:1016400082839383E0911503F0911603EC0FFD1F45
:1016500081E08083CC0FDD1F8091130390911403F0
:10166000C80FD91F88EE93E09983888302C0CF5FAB
:10167000CBCF10E04AC034DAE0901103F0901203AF
:101680009E01220F331F220F331FE20EF31EE09143
:101690001303F09114039E01220F331FE20FF31F77
:1016A000D7010D911D912D913C915B016C01A01A08
:1016B000B10AC20AD30A4081518160E070E0809192
:1016C0001503909116034A155B056C057D0548F4DA
:1016D00021E0DC01AC0FBD1F2C9328EC30E03183FE
:1016E0002083FC01EC0FFD1F1081112311F2F8D9AA
:1016F000D7016D937D938D939C93139780911503E0
:1017000090911603C80FD91F1882812FDF91CF91B6
:101710001F910F91FF90EF90DF90CF90BF90AF900F
:101720000895CF93DF9300D000D0CDB7DEB7789483
:1017300084B5826084BD84B5816084BD85B58260D6
:1017400085BD85B5816085BD80916E008160809387
:101750006E001092810080918100826080938100F0
:101760008091810081608093810080918000816000
:10177000809380008091B10084608093B10080915B
:10178000B00081608093B00080919100826080936E
:1017900091008091910081608093910080919000F0
:1017A0008160809390008091A10082608093A1006D
:1017B0008091A10081608093A1008091A000816050
:1017C0008093A0008091210182608093210180910B
:1017D00021018160809321018091200181608093AB
:1017E000200180917A00846080937A0080917A0051
:1017F000826080937A0080917A00816080937A0081
:1018000080917A00806880937A001092C1001092D3
:1018100048041092490410924A0410924B0410920A
:10182000060410920704109208041092090458D973
:101830006B017C014B015C0188EB880E8BE0981EEC
:10184000A11CB11C4DD96C157D058E059F0528F096
:1018500086169706A806B906A8F787E693E0909340
:10186000470480934604B9DC3BD960930604709327
:101870000704809308049093090469E572E080915D
:101880004604909147040E94C0032AD96B017C0151
:101890004B015C019AE0890E911CA11CB11C20D95E
:1018A0006C157D058E059F0528F086169706A806FF
:1018B000B906A8F781E080931A0485E05BDE84E036
:1018C00059DE83E057DE89DC80910F03909110038D
:1018D000009709F069D28091130390911403009747
:1018E00009F062D28091150390911603009709F0D8
:1018F0005BD28091110390911203009709F054D2AA
:101900008BE080930E0381E290E0B6D1FC019C0154
:101910002F5D3F4F1282118233962E173F07D1F76A
:101920009093100380930F0386E190E0A5D19093EC
:101930001403809313038BE090E09ED190931603E1
:10194000809315038CE290E097D1909312038093DB
:101950001103F12C48EEC42E43E0D42EEE24E39480
:1019600080910E03F81698F50F2D10E0F801E05F56
:10197000FD4F8081E0910F03F091100393E0F99EF9
:10198000E00DF11D11248083F5DDC801880F991F3A
:10199000E0911303F0911403E80FF91FD182C08284
:1019A000E0911503F0911603E00FF11FE082000FA4
:1019B000111F000F111FE0911103F0911203E00FAE
:1019C000F11F1082118212821382F394C9CF1A82FE
:1019D00019821C821B821E821D8240E150E06BE650
:1019E00072E0CE0101960E94A103BE016F5F7F4F9E
:1019F00080916E0490916F04F3DC89819A81D4D137
:101A0000809169048F3F41F46CE772E080914C044F
:101A100090914D040E94C003F12CE0916A04F09172
:101A20006B048481F81690F592818381E92FF82F59
:101A3000EF0DF11DEF0DF11D00811181F801838182
:101A4000882311F18281811103C0C8013FDC1AC0D3
:101A5000F80120893189828593858217930710F4D4
:101A6000C80134DCF8014581648180914C04909177
:101A70004D04F0DBB8016A5F7F4F80914C04909178
:101A80004D0416DCF8011382F394C7CF40914F0444
:101A900060914E0480914C0490914D04DBDB83EB0C
:101AA00094E0909303028093020280916A00837F06
:101AB000886080936A00ED9A8FE195DD882319F0A4
:101AC00084E892E07FDD81E28EDD882319F080E9F1
:101AD00092E078DD83E287DD882319F086E892E0E2
:101AE00071DD85E280DD882319F088E892E06ADD07
:101AF00087E279DD882319F08AE892E063DD89E2E4
:101B000072DD882319F08CE892E05CDD8BE26BDDFE
:101B1000882319F08FE892E055DD8DE264DD88239B
:101B200019F082E992E04EDD8FE25DDD882319F045
:101B300085E992E047DD81E356DD882319F088E9E5
:101B400092E040DD83E34FDD882319F08BE992E0DA
:101B500039DD0E944602B0CFE7E6F3E0138212823D
:101B600088EE93E0A0E0B0E084839583A683B783FA
:101B70002DE232E03183208325EC30E03587248765
:101B800024EC30E03787268720EC30E0318B208B47
:101B900021EC30E0338B228B22EC30E0358B248B30
:101BA00026EC30E0378B268B118E128E138E148E1E
:101BB000E1E7F4E01382128284839583A683B783DE
:101BC0008FE392E091838083E4E0F4E01682178251
:101BD0001086118612861386148615861686178639
:101BE000108A118A128A138A148A158AECE4F4E0A6
:101BF00017828FEF848F858F8CE090E03DD0FC01C1
:101C00001382128281E592E09183808387E284834C
:101C100080E1818782E082871386F0936F04E093EE
:101C20006E040895A1E21A2EAA1BBB1BFD010DC074
:101C3000AA1FBB1FEE1FFF1FA217B307E407F5077C
:101C400020F0A21BB30BE40BF50B661F771F881F58
:101C5000991F1A9469F760957095809590959B01EE
:101C6000AC01BD01CF010895EE0FFF1F881F8BBF90
:101C70000790F691E02D19940F931F93CF93DF9364
:101C80008230910510F482E090E0E0917F04F091C1
:101C9000800420E030E0A0E0B0E0309719F140810E
:101CA00051810281138148175907C8F0841795079D
:101CB00069F4109731F012960C93129713961C93B7
:101CC00027C000937F041093800422C021153105A2
:101CD00019F04217530718F49A01BD01EF01DF0113
:101CE000F801DBCF21153105F9F0281B390B243021
:101CF000310580F48A819B816115710521F0FB011A
:101D00009383828304C09093800480937F04FE01B8
:101D1000329644C0FE01E20FF31F8193919322504B
:101D20003109398328833AC020917D0430917E04A3
:101D3000232B41F420911D0230911E0230937E042A
:101D400020937D0420911B0230911C022115310546
:101D500041F42DB73EB740911F0250912002241B41
:101D6000350BE0917D04F0917E04E217F307A0F4B7
:101D70002E1B3F0B2817390778F0AC014E5F5F4FE1
:101D80002417350748F04E0F5F1F50937E04409391
:101D90007D048193919302C0E0E0F0E0CF01DF91F8
:101DA000CF911F910F910895CF93DF93009709F47E
:101DB00081C0FC01329713821282A0917F04B091FE
:101DC0008004109781F420813181820F931F20912C
:101DD0007D0430917E042817390751F5F0937E0475
:101DE000E0937D0467C0ED0120E030E0CE17DF070F
:101DF00040F44A815B819E0141155105F1F0EA01F1
:101E0000F5CFD383C28340815181840F951FC817BA
:101E1000D90759F488819981840F951F029691837F
:101E200080838A819B81938382832115310529F4E4
:101E3000F0938004E0937F043DC0E901FB83EA83D3
:101E400049915991C40FD51FEC17FD0761F48081AA
:101E50009181840F951F0296E9019983888382817D
:101E600093819B838A83E0E0F0E012968D919C91B0
:101E70001397009719F0FD01DC01F7CF8D919C912C
:101E800011979D012E5F3F4F820F931F20917D047C
:101E900030917E042817390769F4309729F410929D
:101EA000800410927F0402C013821282B0937E04D9
:101EB000A0937D04DF91CF9108956F927F928F92CE
:101EC0009F92AF92BF92CF92DF92EF92FF920F93C9
:101ED0001F93CF93DF93009781F4CB01DF91CF91D4
:101EE0001F910F91FF90EF90DF90CF90BF90AF9038
:101EF0009F908F907F906F90BFCEFC01E60FF71FF1
:101F00009C0122503109E217F30708F4A5C0EC0147
:101F1000D9010D911C91119706171707A8F00530EC
:101F2000110508F497C0C80104978617970708F4AD
:101F300091C002501109061B170B019311936D9369
:101F40007C93CF0131DF86C05B01A01AB10A4C013E
:101F5000800E911EA0917F04B0918004612C712CA1
:101F6000E12CF12C109709F446C08D919C911197AA
:101F7000A815B905B1F56C0142E0C40ED11CCA1414
:101F8000DB0478F14C018A189B08640142E0C40E1E
:101F9000D11C1296BC9012971396AC91B5E0CB165B
:101FA000D10440F0B282A38391828082D9016D93E3
:101FB0007C9309C00E5F1F4F800F911FF901918321
:101FC0008083EB2DFA2FE114F10431F0D701139641
:101FD000FC93EE9312973EC0F0938004E0937F044D
:101FE00039C06816790608F43C017D0112960D90FF
:101FF000BC91A02DB7CF80917D0490917E0488166E
:102000009906E1F466167706C8F480911B02909158
:102010001C02009741F48DB79EB740911F0250916A
:102020002002841B950BE817F907B0F4F0937E04A7
:10203000E0937D04F901718360830CC0CB011CDE49
:102040007C01009749F0A801BE011BD0CE01ACDE97
:10205000C70104C0CE0102C080E090E0DF91CF91C3
:102060001F910F91FF90EF90DF90CF90BF90AF90B6
:102070009F908F907F906F90089581E090E0F8940A
:1020800010C0FB01DC0102C001900D924150504094
:10209000D8F70895FB01DC0101900D920020E1F7D3
:0620A0000895F894FFCF43
:1020A600A302A302A302A302A302A302A302A30202
:1020B6001F21232527292B2D2F3133000081048052
:1020C60000000040001400540000000000D9014741
:1020D6000171012502A20180019401000000002F78
:1020E6000303035E03D503FB02E702D802000000E8
:1020F60000630347015E035D03564D4450565F314E
:102106007C315F564D4450560D0A0044454C5441AF
:1021160020434F4E54524F4C4C4552004E6F206D4B
:10212600656E75004800580059005A005550004C1D
:102136004500524900444F00454E004241002000F0
:020000023000CC
:10E000000D9489F10D94B2F10D94B2F10D94B2F129
:10E010000D94B2F10D94B2F10D94B2F10D94B2F1F0
:10E020000D94B2F10D94B2F10D94B2F10D94B2F1E0
:10E030000D94B2F10D94B2F10D94B2F10D94B2F1D0
:10E040000D94B2F10D94B2F10D94B2F10D94B2F1C0
:10E050000D94B2F10D94B2F10D94B2F10D94B2F1B0
:10E060000D94B2F10D94B2F10D94B2F10D94B2F1A0
:10E070000D94B2F10D94B2F10D94B2F10D94B2F190
:10E080000D94B2F10D94B2F10D94B2F10D94B2F180
:10E090000D94B2F10D94B2F10D94B2F10D94B2F170
:10E0A0000D94B2F10D94B2F10D94B2F10D94B2F160
:10E0B0000D94B2F10D94B2F10D94B2F10D94B2F150
:10E0C0000D94B2F10D94B2F10D94B2F10D94B2F140
:10E0D0000D94B2F10D94B2F10D94B2F10D94B2F130
:10E0E0000D94B2F141546D656761323536300041AF
:10E0F000726475696E6F206578706C6F72657220DE
:10E1000073746B3530305632206279204D4C530099
:10E11000426F6F746C6F616465723E004875683F52
:10E1200000436F6D70696C6564206F6E203D200048
:10E130004350552054797065202020203D20005FF9
:10E140005F4156525F415243485F5F3D2000415658
:10E1500052204C696243205665723D20004743437C
:10E160002056657273696F6E203D20004350552024
:10E1700049442020202020203D20004C6F7720663D
:10E18000757365202020203D20004869676820665F
:10E190007573652020203D200045787420667573D6
:10E1A00065202020203D20004C6F636B2066757336
:10E1B000652020203D20004D617220203720323024
:10E1C000313300312E362E3800342E332E350056A2
:10E1D00023202020414444522020206F7020636F70
:10E1E00064652020202020696E73747275637469E1
:10E1F0006F6E2061646472202020496E74657272B3
:10E20000757074006E6F20766563746F7200726A49
:10E210006D702020006A6D70200057686174207056
:10E220006F72743A00506F7274206E6F7420737541
:10E2300070706F72746564004D7573742062652030
:10E2400061206C6574746572002000577269747483
:10E25000696E672045450052656164696E672045B7
:10E26000450045452065727220636E743D00504F35
:10E27000525400303D5A65726F2061646472003FF1
:10E280003D43505520737461747300403D454550C3
:10E29000524F4D207465737400423D426C696E6B41
:10E2A000204C454400453D44756D70204545505215
:10E2B0004F4D00463D44756D7020464C415348001B
:10E2C000483D48656C70004C3D4C69737420492F83
:10E2D0004F20506F72747300513D51756974005234
:10E2E0003D44756D702052414D00563D73686F7707
:10E2F00020696E7465727275707420566563746FF0
:10E30000727300593D506F727420626C696E6B00BD
:10E310002A0011241FBECFEFD1E2DEBFCDBF01E046
:10E320000CBF12E0A0E0B2E0EEE1FDEF03E00BBFB6
:10E3300002C007900D92A030B107D9F712E0A0E01B
:10E34000B2E001C01D92AE30B107E1F70F9460F367
:10E350000D948DFE01E20EBF0FEF0DBF11241FBE05
:10E360000D9460F30D9400F020E030E040ED57E0B4
:10E3700005C0FA013197F1F72F5F3F4F2817390792
:10E38000C0F308959C01260F311DC901A0E0B0E043
:10E390002F5F3F4FABBFFC018791882361F08093D3
:10E3A000C6008091C00086FFFCCF8091C0008064D1
:10E3B0008093C000EACF08958DE08093C6008091DD
:10E3C000C00086FFFCCF8091C00080648093C000B5
:10E3D0008AE08093C6008091C00086FFFCCF8091C8
:10E3E000C00080648093C00008950F94C2F10F9420
:10E3F000DCF10895FC019081992359F09093C600B7
:10E400008091C00086FFFCCF8091C0008064809323
:10E41000C0003196992379F70895282F982F929567
:10E420009F70892F805D8A3308F0895F8093C600D2
:10E430008091C00086FFFCCF8091C00080648093F3
:10E44000C000822F8F70982F905D9A3308F0995FEB
:10E450009093C6008091C00086FFFCCF8091C000E1
:10E4600080648093C00008959C01FB01853691056E
:10E470001CF46330710594F0C90164E670E00F94F8
:10E480002EFE605D7F4F6093C6008091C00086FFC6
:10E49000FCCF8091C00080648093C0002B30310598
:10E4A00014F43297B4F0C90164E670E00F942EFEC4
:10E4B0006AE070E00F942EFE605D7F4F6093C600AF
:10E4C0008091C00086FFFCCF8091C0008064809363
:10E4D000C000C9016AE070E00F942EFEC0968093E0
:10E4E000C6008091C00086FFFCCF8091C000806490
:10E4F0008093C00008951F93182F8EE692EE60E07F
:10E500000F94C2F11093C6008091C00086FFFCCF2B
:10E510008091C00080648093C0000F94DCF11F9153
:10E5200008952F923F924F925F926F927F928F92B7
:10E530009F92AF92BF92CF92DF92EF92FF920F9392
:10E540001F93DF93CF93CDB7DEB762970FB6F894E2
:10E55000DEBF0FBECDBF382E622ECA01DB015C01CB
:10E560006D01772420E2222E2E010894411C511CBB
:10E570008BC081E0A81680E0B80681E0C80680E084
:10E58000D80628F0C601AA27BB270F940DF2BB2797
:10E59000AD2D9C2D8B2D0F940DF28A2D0F940DF225
:10E5A0002092C6008091C00086FFFCCF8091C00001
:10E5B00080648093C0009DE29093C6008091C0006B
:10E5C00086FFFCCF8091C00080648093C0002092C1
:10E5D000C6008091C00086FFFCCF8091C00080649F
:10E5E0008093C00019828601750188249924A1E0D6
:10E5F0003A1651F03A1620F0B2E03B1661F409C029
:10E600000BBFF701779007C0C7010F9477FE782EF4
:10E6100002C0F7017080872D0F940DF22092C60082
:10E620008091C00086FFFCCF8091C0008064809301
:10E63000C000872D8052F401EF70F0708F3520F408
:10E64000E40DF51D708204C0E40DF51D8EE280839B
:10E650000894E11CF11C011D111D0894811C911CE2
:10E6600090E18916910409F0C2CF80E190E0A0E02A
:10E67000B0E0A80EB91ECA1EDB1E198AC2010F9493
:10E68000FAF10F94DCF16A94662009F072CF629679
:10E690000FB6F894DEBF0FBECDBFCF91DF911F91B3
:10E6A0000F91FF90EF90DF90CF90BF90AF909F9031
:10E6B0008F907F906F905F904F903F902F90089534
:10E6C0002F923F924F925F926F927F928F929F9282
:10E6D000AF92BF92CF92DF92EF92FF920F931F9370
:10E6E000DF93CF93CDB7DEB7CD53D1400FB6F894BB
:10E6F000DEBF0FBECDBF01E20EBF0FEF0DBF94B75F
:10E70000F894A89514BE80916000886180936000A1
:10E7100010926000789493FF05C0E0910002F091A0
:10E7200001021995279A2F9A8091C00082608093E8
:10E73000C00080E18093C40088E18093C1000000A4
:10E74000EE24FF24870144E0A42EB12CCC24DD2448
:10E7500024C0C5010197F1F70894E11CF11C011DCB
:10E76000111D21E2E2162EE4F20620E0020720E06D
:10E77000120718F031E0C32ED12CC801B70127ECE5
:10E780003BE140E050E00F9441FE611571058105C9
:10E79000910519F485B1805885B98091C00087FD35
:10E7A00003C0C114D104A9F2A6014F5F5F4FC25E3E
:10E7B000DE4F59834883CE51D140C25EDE4F8881FF
:10E7C0009981CE51D140019711F00D9410FEC05D9A
:10E7D000DE4F19821882C053D14060E0C15DDE4F28
:10E7E0001882CF52D14088249924C35DDE4F19820C
:10E7F0001882CD52D140C05EDE4F188219821A8233
:10E800001B82C052D140CE5CDE4F188219821A8220
:10E810001B82C253D140EE24FF2487010BBFF701B6
:10E8200007911691C45CDE4F19830883CC53D14005
:10E830000D940BFEC25EDE4F28813981CE51D1404E
:10E840002130310509F52091C600C25EDE4F1982E4
:10E850001882CE51D14022C02F5F3F4F4F4F5F4FA4
:10E86000213082E138078AE7480780E0580780F0C6
:10E87000C45CDE4FE881F981CC53D140EF5FFF4F9C
:10E8800019F0EE27FF27099420E030E040E050E047
:10E890008091C00087FFE0CF2091C600C35DDE4FAE
:10E8A00048815981CD52D1404F5F5F4FC35DDE4FEC
:10E8B00059834883CD52D140213209F063C64A3092
:10E8C000510508F05FC60894811C911C53E0851621
:10E8D000910409F059C600E010E018C081E280936D
:10E8E000C6008091C00086FFFCCF8091C00080648C
:10E8F0008093C0002F5F3F4F2931310579F70F9486
:10E90000DCF10F5F1F4F0530110519F020E030E0FA
:10E91000E5CF10920A0210920B0210920C02109294
:10E920000D02109206021092070210920802109235
:10E930000902109202021092030210920402109235
:10E9400005028FEE90EE60E00F94F5F180E191EE1C
:10E9500060E00F94C2F18091C00087FFFCCF9091DE
:10E96000C600903608F09F759032B8F09093C600BC
:10E970008091C00086FFFCCF8091C00080648093AE
:10E98000C000A0E2A093C6008091C00086FFFCCF2B
:10E990008091C00080648093C000983409F4D7C18E
:10E9A0009934B8F4923409F459C1933458F490333B
:10E9B00019F1903308F4E3C59F33A1F1903409F0C5
:10E9C000DEC5BDC0953409F470C1963409F0D7C5D1
:10E9D00098C1923509F42BC2933538F49C3409F46C
:10E9E000F5C1913509F0CBC518C2963509F445C279
:10E9F000993509F0C4C567C483E792EE62E00F94CD
:10EA0000F5F110920602109207021092080210927D
:10EA1000090210920A0210920B0210920C0210923C
:10EA20000D0213C18FE792EE62E00F94F5F18FEEC5
:10EA300090EE60E00F94F5F181E291EE60E00F94CA
:10EA4000C2F187EB91EE60E00F94F5F180E391EE77
:10EA500060E00F94C2F184EE90EE60E00F94F5F167
:10EA60008FE391EE60E00F94C2F186E090E061E008
:10EA700070E00F9434F20F94DCF18DE591EE60E0DC
:10EA80000F94C2F189EC91EE60E00F94F5F18EE401
:10EA900091EE60E00F94C2F183EC91EE60E00F9490
:10EAA000F5F18CE691EE60E00F94C2F18EE10F94E7
:10EAB0000DF288E90F940DF281E00F940DF20F949E
:10EAC000DCF18BE791EE60E00F94C2F119E0E0E039
:10EAD000F0E010935700E4918E2F0F940DF20F94F5
:10EAE000DCF18AE891EE60E00F94C2F1E3E0F0E03F
:10EAF00010935700E4918E2F0F940DF20F94DCF1D8
:10EB000089E991EE60E00F94C2F1E2E0F0E0109349
:10EB10005700E4918E2F0F940DF20F94DCF188EAE8
:10EB200091EE60E00F94C2F1E1E0F0E01093570045
:10EB30001491812F0F940DF20F94DCF107CF8BE825
:10EB400092EE62E00F94F5F18BE492EE60E00F94A8
:10EB5000F5F10F94DCF100E010E019C0C8016F2D51
:10EB60000F947FFEFF2031F489E492EE60E00F9471
:10EB7000C2F10BC0F092C6008091C00086FFFCCFAE
:10EB80008091C00080648093C0000F5F1F4FC80158
:10EB900081519F41A0E0B0E0ABBFFC01F790BAE229
:10EBA000FB1621F0E2E000301E07C1F60F94DCF105
:10EBB0000F94DCF187E592EE60E00F94F5F10F948D
:10EBC000DCF1CC24DD2400E010E01EC0C8010F946D
:10EBD00077FEF82E882331F489E492EE60E00F94FA
:10EBE000C2F10BC08093C6008091C00086FFFCCFAD
:10EBF0008091C00080648093C000FE1419F00894D6
:10EC0000C11CD11C0F5F1F4FC80181519F41A0E063
:10EC1000B0E0ABBFFC01E790FAE2EF1621F022E092
:10EC20000030120799F60F94DCF10F94DCF182E6C4
:10EC300092EE60E00F94C2F1C60161E070E00F94C3
:10EC400034F20F94DCF10F94DCF110920202109276
:10EC50000302109204021092050278CE89E992EE26
:10EC600062E00F94F5F1279A2F9A16C02F9880E052
:10EC700090E0E0EDF7E03197F1F7019684369105E9
:10EC8000C1F72F9A80E090E0E0EDF7E03197F1F7DF
:10EC9000019684369105C1F78091C00087FFE6CFC9
:10ECA0008091C00087FFFCCF64C485EA92EE62E0E9
:10ECB0000F94F5F140910202509103026091040219
:10ECC0007091050281E020E10F9491F2809102029F
:10ECD00090910302A0910402B091050280509F4FD1
:10ECE000AF4FBF4F8093020290930302A0930402A0
:10ECF000B093050280509041A040B04008F426CE69
:10ED0000A4CF83EB92EE62E00F94F5F140910602FE
:10ED100050910702609108027091090280E020E1A1
:10ED20000F9491F28091060290910702A09108023F
:10ED3000B091090280509F4FAF4FBF4F80930602A2
:10ED400090930702A0930802B0930902FFCD80ECD4
:10ED500092EE62E00F94F5F183E792EE60E00F949B
:10ED6000F5F18FE792EE60E00F94F5F18BE892EE0B
:10ED700060E00F94F5F189E992EE60E00F94F5F10F
:10ED800085EA92EE60E00F94F5F183EB92EE60E09D
:10ED90000F94F5F180EC92EE60E00F94F5F187ECC2
:10EDA00092EE60E00F94F5F188ED92EE60E00F9442
:10EDB000F5F18FED92EE60E00F94F5F18AEE92EEB0
:10EDC00060E00F94F5F183E093EEBDCD87EC92EE19
:10EDD00062E00F94F5F181E40F947BF282E40F94EA
:10EDE0007BF283E40F947BF284E40F947BF285E45E
:10EDF0000F947BF286E40F947BF287E40F947BF20E
:10EE000088E40F947BF28AE40F947BF28BE40F94F6
:10EE10007BF28CE40F947BF299CD88ED92EE62E068
:10EE20000F94F5F1772473948824992409C48FED05
:10EE300092EE62E00F94F5F140910A0250910B02BC
:10EE400060910C0270910D0282E020E10F9491F22A
:10EE500080910A0290910B02A0910C02B0910D02D8
:10EE600080509F4FAF4FBF4F80930A0290930B0289
:10EE7000A0930C02B0930D0269CD8AEE92EE62E08F
:10EE80000F94F5F184EE90EE60E00F94F5F18FECC5
:10EE900091EE60E00F94F5F1662477244301CC5D98
:10EEA000DE4F19821882C452D140D401C301B695F5
:10EEB000A79597958795CA5DDE4F88839983AA8326
:10EEC000BB83C652D140CC5DDE4FA881B981C4520C
:10EED000D1401196CC5DDE4FB983A883C452D14096
:10EEE000CD0162E070E00F9434F2B0E2B093C6005E
:10EEF0008091C00086FFFCCF8091C0008064809329
:10EF0000C000EDE2E093C6008091C00086FFFCCF18
:10EF10008091C00080648093C000F0E2F093C6004E
:10EF20008091C00086FFFCCF8091C00080648093F8
:10EF3000C000CA5DDE4FE880F9800A811B81C6529D
:10EF4000D140BB27A12F902F8F2D0F940DF2CA5DBA
:10EF5000DE4F8881C652D1400F940DF2B0E2FB2EF5
:10EF6000F092C6008091C00086FFFCCF8091C00067
:10EF700080648093C0000DE30093C6008091C000C0
:10EF800086FFFCCF8091C00080648093C00010E2B7
:10EF90001093C6008091C00086FFFCCF8091C00016
:10EFA00080648093C0008BBEF3012791C65DDE4F65
:10EFB0002883CA52D140A22EBB24CC24DD2408943D
:10EFC000611C711C811C911C8BBEF3018791282E42
:10EFD0003324442455240894611C711C811C911C09
:10EFE0008BBEF3013791C55DDE4F3883CB52D140E4
:10EFF0000894611C711C811C911C8BBEF30147910C
:10F00000C45DDE4F4883CC52D140ADEFEA2EAFEF66
:10F01000FA2EAFEF0A2FAFEF1A2F6E0C7F1C801E57
:10F02000911E142D032DF22CEE24EA0CFB1C0C1D5A
:10F030001D1D0F940DF220E22093C6008091C000A8
:10F0400086FFFCCF8091C00080648093C000C65DC5
:10F05000DE4F8881CA52D1400F940DF230E23093D6
:10F06000C6008091C00086FFFCCF8091C000806404
:10F070008093C000C45DDE4F8881CC52D1400F9494
:10F080000DF240E24093C6008091C00086FFFCCFA5
:10F090008091C00080648093C000C55DDE4F888190
:10F0A000CB52D1400F940DF250E25093C6008091A4
:10F0B000C00086FFFCCF8091C00080648093C000B8
:10F0C0008FEFE8168FEFF80680E0080780E018075A
:10F0D00031F484E092EE60E00F94C2F1DFC0D80119
:10F0E000C7018070907CA070B0708050904CA040A0
:10F0F000B040D1F52FEF3FE340E050E0E222F322B1
:10F1000004231523CA5DDE4FA880B980CA80DB8046
:10F11000C652D140AE0CBF1CC01ED11EAA0CBB1CD7
:10F12000CC1CDD1C8EE092EE60E00F94C2F1BB2798
:10F13000A12F902F8F2D0F940DF28E2D0F940DF285
:10F1400030E23093C6008091C00086FFFCCF8091F2
:10F15000C00080648093C0004EE34093C60080915D
:10F16000C00086FFFCCF87C08EE09EEFA0E0B0E03D
:10F17000E822F9220A231B239CE0E91694E9F90608
:10F1800090E0090790E0190709F088C0C45DDE4FE0
:10F19000A881CC52D140EA2EFF2400E010E0102FCD
:10F1A0000F2DFE2CEE24C55DDE4FB881CB52D14031
:10F1B000EB0EF11C011D111DD601C501817090706F
:10F1C000A070B070DC0199278827E80EF91E0A1F8D
:10F1D0001B1F20EF30E040E050E0A222B322C42207
:10F1E000D52241E1AA0CBB1CCC1CDD1C4A95D1F7F1
:10F1F000EA0CFB1C0C1D1D1D81E090E0A0E0B0E0BE
:10F20000282239224A225B2235E1220C331C441C7D
:10F21000551C3A95D1F7E20CF31C041D151D57013E
:10F220006801AA0CBB1CCC1CDD1C85E192EE60E0E1
:10F230000F94C2F1C801AA27BB270F940DF2BB2778
:10F24000A12F902F8F2D0F940DF28E2D0F940DF274
:10F2500090E29093C6008091C00086FFFCCF809121
:10F26000C00080648093C000AEE3A093C60080918C
:10F27000C00086FFFCCF8091C00080648093C000F6
:10F28000C601AA27BB270F940DF2BB27AD2D9C2DDD
:10F290008B2D0F940DF28A2D0F940DF20F94DCF14B
:10F2A000CC5DDE4FE881F981C452D140F99709F471
:10F2B0004DCBF4E0EF2EF12C012D112D6E0C7F1CA7
:10F2C000801E911EF2CD83E093EE62E00F94F5F183
:10F2D0008AE192EE60E00F94C2F18091C00087FF56
:10F2E000FCCF1091C6001F751093C6008091C0001E
:10F2F00086FFFCCF8091C00080648093C0000F9493
:10F30000DCF1812F81548A3108F036C1163409F4BA
:10F3100095C0173490F4133409F44EC0143430F40B
:10F320001134F1F0123409F01DC130C0143409F465
:10F3300059C0153409F016C16BC01A3409F4C4C0A1
:10F340001B3438F4173409F48FC0183409F00AC19B
:10F35000A1C01B3409F4D2C01C3409F003C1E8C0B9
:10F360008FEF81B90DC082B1809582B980E090E0C5
:10F37000E0EDF7E03197F1F70196883C9105C1F790
:10F380008091C00087FFEFCF12B8EFC08FEF84B934
:10F390000DC085B1809585B980E090E0E0EDF7E0A3
:10F3A0003197F1F70196883C9105C1F78091C00033
:10F3B00087FFEFCF15B8D9C08FEF87B90DC088B1DF
:10F3C000809588B980E090E0E0EDF7E03197F1F7C3
:10F3D0000196883C9105C1F78091C00087FFEFCF6F
:10F3E00018B8C3C08FEF8AB90DC08BB180958BB9A7
:10F3F00080E090E0E0EDF7E03197F1F70196883C8E
:10F400009105C1F78091C00087FFEFCF1BB8ADC059
:10F410008FEF8DB90DC08EB180958EB980E090E0F0
:10F42000E0EDF7E03197F1F70196883C9105C1F7DF
:10F430008091C00087FFEFCF1EB897C08FEF80BBD1
:10F440000DC081B3809581BB80E090E0E0EDF7E0F6
:10F450003197F1F70196883C9105C1F78091C00082
:10F4600087FFEFCF11BA81C08FEF83BB0DC084B38C
:10F47000809584BB80E090E0E0EDF7E03197F1F714
:10F480000196883C9105C1F78091C00087FFEFCFBE
:10F4900014BA6BC08FEF809301010FC080910201FD
:10F4A00080958093020180E090E0E0EDF7E03197F5
:10F4B000F1F70196883C9105C1F78091C00087FF64
:10F4C000EDCF1092020151C08FEF809304010FC065
:10F4D0008091050180958093050180E090E0E0ED4A
:10F4E000F7E03197F1F70196883C9105C1F78091DB
:10F4F000C00087FFEDCF1092050137C08FEF8093DA
:10F5000007010FC08091080180958093080180E079
:10F5100090E0E0EDF7E03197F1F70196883C910536
:10F52000C1F78091C00087FFEDCF109208011DC088
:10F530008FEF80930A010FC080910B01809580931B
:10F540000B0180E090E0E0EDF7E03197F1F70196F4
:10F55000883C9105C1F78091C00087FFEDCF1092E4
:10F560000B0103C085E292EEEEC98091C00087FFD7
:10F57000FCCF8091C600EAC988E392EEE4C98CE131
:10F5800091EEE1C988249924933011F1943028F444
:10F59000913089F09230B8F408C0953061F195301F
:10F5A000F0F0963009F048C043C02B3109F042C951
:10F5B00091E06BE13FC96227C15DDE4F2883CF52E6
:10F5C000D14092E037C9B22FA0E0622793E032C960
:10F5D000822F90E0A82BB92B622794E02BC92E3004
:10F5E00009F039C3622795E0C05DDE4F19821882A9
:10F5F000C053D1401FC9E1E0F0E0EC0FFD1FC05D3A
:10F60000DE4F08811981C053D140E00FF11F2083E4
:10F610000F5F1F4FC05DDE4F19830883C053D14079
:10F6200062270A171B0709F005C9D80196E002C92D
:10F63000261709F010C303C0973009F0FBC87724E0
:10F640009981933109F412C19431C8F4963009F4C8
:10F65000D8C0973050F4923009F406C1933009F4C1
:10F660006DC0913009F059C253C0913109F477C08F
:10F67000923108F0BBC0903109F04FC2F5C098310B
:10F6800009F487C0993150F4953109F4EFC09531F0
:10F6900008F4C6C1963109F040C2C2C19A3109F4DA
:10F6A0006CC09A3108F491C09B3109F45BC09D3164
:10F6B00009F033C29D81903359F48F81882311F46E
:10F6C0009EE11CC0813011F091E018C098E916C08D
:10F6D000892F807591F0903539F4E0E0F0E089E011
:10F6E0008093570094910AC0983539F4E3E0F0E034
:10F6F00089E080935700949101C090E01A821B82A8
:10F700008D818C831D829E831F8227E030E009C299
:10F710001A8288E08B8381E48C8386E58D8382E581
:10F720008E8389E48F8383E5888780E589878FE5E9
:10F730008A8782E38B872BE030E0F3C18A818139AD
:10F7400041F0823941F0803911F48FE005C080E04A
:10F7500003C082E001C08AE01A828B8344C0772410
:10F76000739482C08D81882311F48EE12CC0813086
:10F7700011F081E028C088E926C01A82E1E0F0E0BB
:10F7800089E08093570084918B831C8224E030E0D1
:10F79000C8C18B81803589F48C81883039F4E2E0EE
:10F7A000F0E089E08093570084910DC0E0E0F0E044
:10F7B00089E080935700849106C0E3E0F0E089E09F
:10F7C0008093570084911A82DFCF8D81836C99E0FA
:10F7D000E1E0F0E0082E90935700E89507B600FCB2
:10F7E000FDCF1A821B8223E030E09BC180EC8A832C
:10F7F000CE5CDE4F188219821A821B82C253D1401E
:10F800008EC18A8190E0A0E0B0E0582F44273327D2
:10F8100022278B8190E0A0E0B0E0DC0199278827C7
:10F82000282B392B4A2B5B2B8D8190E0A0E0B0E098
:10F83000282B392B4A2B5B2B8C8190E0A0E0B0E089
:10F84000BA2FA92F982F8827282B392B4A2B5B2BCF
:10F85000220F331F441F551FC05EDE4F288339839C
:10F860004A835B83C052D1401A8259C13A81C95C34
:10F87000DE4F3883C753D140CA5CDE4F1882C6536F
:10F88000D1408B81C82EDD24CA5CDE4F488159816E
:10F89000C653D140C42AD52A933109F082C0CE5C28
:10F8A000DE4F88819981AA81BB81C253D1408050AB
:10F8B000904CA340B04030F583E0CE5CDE4FE88052
:10F8C000F9800A811B81C253D140F70100935B008C
:10F8D00080935700E89507B600FCFDCFCE5CDE4F65
:10F8E000088119812A813B81C253D14000501F4FAA
:10F8F0002F4F3F4FCE5CDE4F088319832A833B8313
:10F90000C253D140C05EDE4F488159816A817B81FC
:10F91000C052D140DE011B9631E08C9111962C91A2
:10F9200011971296C75CDE4F2883C953D140C85C3B
:10F93000DE4F1882C853D14090E0C85CDE4FE881AA
:10F94000F981C853D1408E2B9F2B0C01FA01609393
:10F950005B0030935700E89511244E5F5F4F6F4F67
:10F960007F4F0EEFE02E0FEFF02ECE0CDF1CC114F8
:10F97000D10499F685E0C05EDE4F088119812A81A5
:10F980003B81C052D140F80120935B008093570027
:10F99000E89507B600FCFDCF81E180935700E8951C
:10F9A00035C0C05EDE4F88819981AA81BB81C0527B
:10F9B000D140B695A795979587957C018601ABE0D8
:10F9C000AA2EB12CAC0EBD1E0BC0D5016D915D01F0
:10F9D000C7010F947FFE0894E11CF11C01501040F8
:10F9E0000115110591F7A60160E070E0440F551F65
:10F9F000661F771FC05EDE4FE880F9800A811B8199
:10FA0000C052D1404E0D5F1D601F711F1A82C05E33
:10FA1000DE4F488359836A837B83C052D1407FC0C5
:10FA2000FA80C55CDE4FF882CB53D140C65CDE4F16
:10FA30001882CA53D1408B81C82EDD24C65CDE4FAC
:10FA400008811981CA53D140C02AD12A1A828981DA
:10FA5000BE016D5F7F4F843121F59601C05EDE4FA0
:10FA6000E880F9800A811B81C052D1400BBFF701A9
:10FA700087919691DB018C9311969C936E5F7F4FDB
:10FA8000D801C7010296A11DB11DC05EDE4F88835B
:10FA90009983AA83BB83C052D14022503040F1F6F3
:10FAA00036C0C05EDE4F288139814A815B81C052F9
:10FAB000D1400894C108D108760100E010E0089414
:10FAC000C11CD11C0894E11CF11C011D111DE20E8A
:10FAD000F31E041F151F21BDBB27A52F942F832FB5
:10FAE00082BD2F5F3F4F4F4F5F4FF89A80B5DB01CC
:10FAF0008D93BD012E153F054007510761F7C05E8C
:10FB0000DE4F288339834A835B83C052D1409601FC
:10FB10002D5F3F4FFB01108204C080EC8A8322E0FE
:10FB200030E08BE18093C6008091C00086FFFCCF5F
:10FB30008091C00080648093C000C15DDE4FF88179
:10FB4000CF52D140F093C6008091C00086FFFCCF19
:10FB50008091C00080648093C000432F3093C60022
:10FB60008091C00086FFFCCF8091C00080648093AC
:10FB7000C000922F2093C6008091C00086FFFCCF6A
:10FB80008091C00080648093C0008EE08093C600A6
:10FB90008091C00086FFFCCF8091C000806480937C
:10FBA000C00065E1C15DDE4FE880CF52D1406E25D7
:10FBB00069276427FE01319610C090819093C6009A
:10FBC0008091C00086FFFCCF31968091C000806498
:10FBD0008093C0006927215030402115310569F715
:10FBE0006093C6008091C00086FFFCCF8091C0006A
:10FBF00080648093C00085B1805885B9772081F4F6
:10FC0000C15DDE4F0881CF52D1400F5FC15DDE4F35
:10FC10000883CF52D14090E0A0E0B0E00D941AF4F8
:10FC200027982F9880E090E020ED37E0F901319798
:10FC3000F1F7019684369105C9F700008091C00064
:10FC40008D7F8093C00081E180935700E895EE2777
:10FC5000FF270994FFCF90E00D941AF497FB092E2B
:10FC600007260AD077FD04D02ED006D000201AF443
:10FC7000709561957F4F0895F6F7909581959F4F08
:10FC80000895A1E21A2EAA1BBB1BFD010DC0AA1FDD
:10FC9000BB1FEE1FFF1FA217B307E407F50720F0F5
:10FCA000A21BB30BE40BF50B661F771F881F991F70
:10FCB0001A9469F760957095809590959B01AC01B9
:10FCC000BD01CF010895AA1BBB1B51E107C0AA1FAC
:10FCD000BB1FA617B70710F0A61BB70B881F991FED
:10FCE0005A95A9F780959095BC01CD010895F99991
:10FCF000FECF92BD81BDF89A992780B50895262F31
:10FD0000F999FECF1FBA92BD81BD20BD0FB6F89400
:0EFD1000FA9AF99A0FBE01960895F894FFCF63
:040000033000E000E9
:00000001FF