:1000000014C10000F0C60000C3C6000096C6000080
:1000100069C600003CC600000FC60000E2C5000033
:10002000B5C5000033C1000031C100002FC1000080
:100030002DC100002BC1000029C1000027C1000014
:1000400025C1000023C1000021C100001FC1000024
:100050001DC100001BC1000019C100004DC50000FA
:1000600015C10000CCC30000A1C300000FC10000F7
:100070000DC100000BC1000009C1000007C1000054
:1000800005C1000003C1000001C10000FFC0000065
:10009000FDC00000FBC00000F9C00000CFC600009A
:1000A000F5C00000F3C00000F1C00000EFC0000088
:1000B000EDC00000EBC00000E9C00000E7C0000098
:1000C000E5C00000E3C00000E1C00000DFC00000A8
:1000D000DDC00000DBC00000D9C00000D7C00000B8
:1000E000D5C0000050045304420446044C048A0462
:1000F00057045B046104650469046F0473047704A6
:100100008A047D0481048504000020002300260069
:1001100029002C002F00320000010000030106011D
:10012000090100002100240027002A002D003000D2
:10013000330001010000040107010A010000220050
:10014000250028002B002E003100340002010000A1
:10015000050108010B010505050507050808080844
:10016000020202020A0A080804040404010101014F
:10017000010101010303030303030303040707074A
:100180000C0C0C0C0C0C0C0C0202020206060606EF
:10019000060606060B0B0B0B0B0B0B0B01021020BC
:1001A00020080810204010204080020102010804AD
:1001B0000201010204081020408080402010080441
:1001C000020180040201804020100804020108049A
:1001D00002010102040810204080010204081020DE
:1001E000408000000A0B02090C0D0E0807030401F1
:1001F00000000000000000000000000000000000FF
:1002000000000000000000000000000000001211CB
:1002100010000000000000000000000000000000CE
:100220000000000000000000AC0D11241FBECFEF45
:10023000D1E2DEBFCDBF00E00CBF24E0A0EAB2E017
:1002400001C01D92A138B207E1F712E0A0E0B2E0D0
:10025000E6EAF0E200E00BBF02C007900D92A03A80
:10026000B107D9F711E0C5E1D1E000E006C0219760
:100270000109802FFE010E94340EC431D10780E0B5
:100280000807A9F70E94910B0C945110B9CECF9298
:10029000DF92EF92FF920F931F93CF93DF936C0146
:1002A0007A018B01C0E0D0E0CE15DF0581F0D801E6
:1002B0006D918D01D601ED91FC910190F081E02DC1
:1002C000C6011995892B11F02196EECF7E01C70149
:1002D000DF91CF911F910F91FF90EF90DF90CF9022
:1002E0000895FC01538D448D252F30E0842F90E03C
:1002F000821B930B541710F0CF9608950197089521
:10030000FC01918D828D981761F0828DDF01A80F1D
:10031000B11D5D968C91928D9F5F9F73928F90E03F
:1003200008958FEF9FEF0895FC01918D828D9817AE
:1003300031F0828DE80FF11D858D90E008958FEFEB
:100340009FEF0895FC01918D228D892F90E0805CB4
:100350009F4F821B91098F739927089587E693E039
:10036000F1DF21E0892B09F420E0822F0895FC01C0
:10037000848DDF01A80FB11DA35ABF4F2C91848D2E
:1003800090E001968F739927848FA689B7892C9363
:10039000A089B1898C91837080648C93938D848DB6
:1003A000981306C00288F389E02D80818F7D8083B9
:1003B0000895EF92FF920F931F93CF93DF93EC0179
:1003C00081E0888F9B8D8C8D981305C0E889F98911
:1003D000808185FD25C0F62E0B8D10E00F5F1F4F2D
:1003E0000F731127E02E8C8DE8120BC00FB607FC9F
:1003F000FACFE889F989808185FFF5CFCE01B7DF93
:10040000F2CF8B8DFE01E80FF11DE35AFF4FF08212
:100410009FB7F8940B8FEA89FB89808180620AC0BC
:100420009FB7F894EE89FF896083E889F989808114
:100430008370806480839FBF81E090E0DF91CF91E3
:100440001F910F91FF90EF900895CF93DF93EC01F0
:10045000888D8823C1F0EA89FB89808185FD05C0EC
:10046000A889B9898C9186FD0EC00FB607FCF5CF1F
:10047000808185FFF2CFA889B9898C9185FFEDCF66
:10048000CE0175DFE8CFDF91CF91089580E090E055
:10049000892B19F063DF811125C080E090E0892B62
:1004A00041F080E090E0892B21F00E940000811152
:1004B0001CC080E090E0892B41F080E090E0892B27
:1004C00021F00E940000811113C080E090E0892B90
:1004D000A1F080E090E0892B81F00E940000811162
:1004E0000AC008950E940000D8CF0E940000E1CF0A
:1004F0000E940000EACF0C94000008953FB7F894E2
:1005000080910A0390910B03A0910C03B0910D030D
:1005100026B5A89B05C02F3F19F00196A11DB11D5E
:100520003FBFBA2FA92F982F8827820F911DA11D99
:10053000B11DBC01CD0142E0660F771F881F991FD6
:100540004A95D1F70895089585ED8093BC00809178
:10055000BC0084FDFCCF1092430308954091E20259
:10056000262F30E0240F311D21323105DCF420919B
:1005700043032430C9F4FC0180E090E0861758F46E
:100580003091E2022191DC01AE53BD4FA30FB11DAA
:100590002C930196F3CF8091E202680F6093E20200
:1005A00080E0089581E0089582E008950895089517
:1005B000E0911C0380911B03E81730F4F0E0EE5546
:1005C000FD4F808190E008958FEF9FEF0895909107
:1005D0001C0380911B03981750F4E92FF0E0EE55AF
:1005E000FD4F208130E09F5F90931C0302C02FEFEE
:1005F0003FEFC901089580911B0390E020911C03F7
:10060000821B91090895CF92DF92EF92FF920F9390
:100610001F93CF93DF937C01CB018A012091660366
:10062000222389F0EB016B01C40ED51ECC15DD052C
:1006300061F06991D701ED91FC910190F081E02D7D
:10064000C7011995F3CF642F89DFC801DF91CF91DE
:100650001F910F91FF90EF90DF90CF900895CF936F
:10066000DF931F92CDB7DEB7698320916603222303
:10067000D1F020916403203240F021E030E0FC0111
:100680003383228380E090E014C080916503E82FDB
:10069000F0E0EC5BFC4F998190838F5F8093650362
:1006A0008093640304C061E0CE01019657DF81E0CE
:1006B00090E00F90DF91CF910895089580E090E051
:1006C00008950E943D1041E0B0D581E090E008958A
:1006D0000F931F93CF93DF93EC018881998100974B
:1006E00029F02A813B812617370788F48B016F5F39
:1006F0007F4F0E945D0F009761F0998388831B8371
:100700000A832C813D81232B11F4FC01108281E0AE
:1007100001C080E0DF91CF911F910F910895CF9399
:10072000DF93EC0188819981009711F00E94D40E2B
:10073000198218821D821C821B821A82DF91CF913E
:100740000895EF92FF920F931F93CF93DF93EC01E5
:100750007B018A01BA01BCDF811103C0CE01DFDF5A
:1007600007C01D830C83B701888199810E944A10BC
:10077000CE01DF91CF911F910F91FF90EF900895DF
:100780006115710579F0FB0101900020E9F73197BF
:10079000AF01461B570BDC01ED91FC910280F38108
:1007A000E02D199480E090E0089508951F920F9233
:1007B0000FB60F9211240BB60F922F933F934F93C6
:1007C0005F936F937F938F939F93AF93BF93EF93B9
:1007D000FF9387E693E0CBDDFF91EF91BF91AF915F
:1007E0009F918F917F916F915F914F913F912F9149
:1007F0000F900BBE0F900FBE0F901F9018951F9279
:100800000F920FB60F9211240BB60F922F938F9366
:100810009F93EF93FF93E0917703F09178038081AA
:10082000E0917D03F0917E0382FD12C09081809162
:1008300080038F5F8F7320918103821751F0E091C5
:100840008003F0E0E959FC4F958F8093800301C04D
:100850008081FF91EF919F918F912F910F900BBE0F
:100860000F900FBE0F901F90189590E0FC013197EC
:10087000E231F10508F04EC08827EE58FF4F8F4F48
:100880000C94340E809180008F7703C0809180009B
:100890008F7D80938000089580918000877FF9CFBD
:1008A00084B58F7702C084B58F7D84BD0895809113
:1008B000B0008F7703C08091B0008F7D8093B0002F
:1008C0000895809190008F7707C0809190008F7D70
:1008D00003C080919000877F80939000089580915D
:1008E000A0008F7707C08091A0008F7D03C080910A
:1008F000A000877F8093A0000895809120018F77CA
:1009000007C0809120018F7D03C080912001877FE7
:10091000809320010895CF93DF93282F30E0F901D1
:10092000EE51FE4F8491F901E456FE4FD491F90146
:10093000EA5AFE4FC491CC2389F0811196DFEC2F47
:10094000F0E0EE0FFF1FE85FFE4FA591B491EC9130
:10095000ED2381E090E021F480E002C080E090E0AF
:10096000DF91CF9108958F929F92AF92BF92CF92D5
:10097000DF92EF92FF92CF93DF93CDB7DEB7A197CF
:100980000FB6F894DEBF0FBECDBF84E0C4DF209168
:10099000A0023091A102892B19F02F5F3F4F02C0B6
:1009A000215031093093A1022093A002C090A002EF
:1009B000D090A1020D2C000CEE08FF08F7FE24C019
:1009C0006DE287E693E0F5DC22273327A9012C1995
:1009D0003D094E095F0919A2CE0181967C019AE07A
:1009E000892E912CA12CB12CCA01B901A501940129
:1009F0000E94120E605DF70162937F01211531059F
:100A00004105510589F71AC0A701960119A2CE0127
:100A100081967C018AE0882E912CA12CB12CCA01F0
:100A2000B901A50194010E94120E605DF701629365
:100A30007F01211531054105510589F7B70187E689
:100A400093E09EDE68E672E087E693E099DEA19689
:100A50000FB6F894DEBF0FBECDBFDF91CF91FF90F0
:100A6000EF90DF90CF90BF90AF909F908F900895C0
:100A70008F929F92AF92BF92CF92DF92EF92FF92AE
:100A80006B017C013BDD4B015C01C114D104E1042D
:100A9000F104E9F033DDDC01CB0188199909AA09D9
:100AA000BB09883E9340A105B10578F321E0C21A45
:100AB000D108E108F10888EE880E83E0981EA11C99
:100AC000B11CC114D104E104F10421F7DECFFF9081
:100AD000EF90DF90CF90BF90AF909F908F90089550
:100AE0002FB7F89460910603709107038091080373
:100AF000909109032FBF08951F920F920FB60F9286
:100B000011242F933F938F939F93AF93BF93809123
:100B1000060390910703A0910803B0910903309157
:100B2000050323E0230F2D3720F40196A11DB11DED
:100B300005C026E8230F0296A11DB11D20930503D1
:100B40008093060390930703A0930803B0930903CF
:100B500080910A0390910B03A0910C03B0910D03B7
:100B60000196A11DB11D80930A0390930B03A093DE
:100B70000C03B0930D03BF91AF919F918F913F9163
:100B80002F910F900FBE0F901F9018951F920F92EC
:100B90000FB60F9211240BB60F922F933F934F93E2
:100BA0005F936F937F938F939F93AF93BF93EF93D5
:100BB000FF93E0910E02F0910F021995FF91EF91D2
:100BC000BF91AF919F918F917F916F915F914F9165
:100BD0003F912F910F900BBE0F900FBE0F901F9063
:100BE00018951F920F920FB60F9211240BB60F9209
:100BF0002F933F934F935F936F937F938F939F9325
:100C0000AF93BF93EF93FF93E0910C02F0910D022D
:100C10001995FF91EF91BF91AF919F918F917F9126
:100C20006F915F914F913F912F910F900BBE0F905D
:100C30000FBE0F901F9018951F920F920FB60F9234
:100C400011240BB60F922F933F934F935F936F93A3
:100C50007F938F939F93AF93BF93EF93FF93E09115
:100C60000202F09103021995FF91EF91BF91AF91AC
:100C70009F918F917F916F915F914F913F912F91B4
:100C80000F900BBE0F900FBE0F901F9018951F92E4
:100C90000F920FB60F9211240BB60F922F933F9322
:100CA0004F935F936F937F938F939F93AF93BF9374
:100CB000EF93FF93E0910002F09101021995FF91EB
:100CC000EF91BF91AF919F918F917F916F915F91C4
:100CD0004F913F912F910F900BBE0F900FBE0F9031
:100CE0001F9018951F920F920FB60F9211240BB6FA
:100CF0000F922F933F934F935F936F937F938F93B5
:100D00009F93AF93BF93EF93FF93E0910A02F0910B
:100D10000B021995FF91EF91BF91AF919F918F9128
:100D20007F916F915F914F913F912F910F900BBEEB
:100D30000F900FBE0F901F9018951F920F920FB635
:100D40000F9211240BB60F922F933F934F935F9303
:100D50006F937F938F939F93AF93BF93EF93FF9383
:100D6000E0910802F09109021995FF91EF91BF916E
:100D7000AF919F918F917F916F915F914F913F9133
:100D80002F910F900BBE0F900FBE0F901F901895D4
:100D90001F920F920FB60F9211240BB60F922F9342
:100DA0003F934F935F936F937F938F939F93AF93F3
:100DB000BF93EF93FF93E0910602F091070219951C
:100DC000FF91EF91BF91AF919F918F917F916F9123
:100DD0005F914F913F912F910F900BBE0F900FBEDF
:100DE0000F901F9018951F920F920FB60F9211241B
:100DF0000BB60F922F933F934F935F936F937F9315
:100E00008F939F93AF93BF93EF93FF93E09104026F
:100E1000F09105021995FF91EF91BF91AF919F91CC
:100E20008F917F916F915F914F913F912F910F9093
:100E30000BBE0F900FBE0F901F9018951F920F9230
:100E40000FB60F9211240BB60F922F933F934F932F
:100E50005F936F937F938F939F93AF93BF93EF9322
:100E6000FF938091B900887F803609F49CC068F5B3
:100E7000883209F45BC090F4803109F454C038F42E
:100E8000882309F4F6C0883009F44DC0F5C08831D4
:100E900009F44CC0803209F45DC0EEC0803409F41E
:100EA00068C048F4803309F455C0883309F0E4C0C1
:100EB00080934103D8C0803509F44FC0883509F4C8
:100EC0005DC0883409F0D8C0D6C0883909F4C7C0DD
:100ED000A8F4883709F467C038F4883609F463C089
:100EE000803709F460C0C8C0883809F4B8C08039B8
:100EF00009F45FC0803809F0BFC05BC0803B09F4D3
:100F000086C038F4803A09F466C0883A09F47FC094
:100F1000B3C0803C09F4A7C0883C09F4A4C0883B56
:100F200009F48AC0A9C080911E0310C090914003AB
:100F300080913F03981770F5E091400381E08E0F98
:100F400080934003F0E0E15EFC4F80818093BB0022
:100F500085EC86C0809341038EC0E091400381E020
:100F60008E0F809340038091BB00F0E0E15EFC4F68
:100F700080839091400380913F036EC0E0914003D5
:100F800081E08E0F809340038091BB00F0E0E15E32
:100F9000FC4F80838091420381116DC081E080937A
:100FA0001D0384EA61C083E080934303109204032D
:100FB000CFCF80910403803208F051C0E091040348
:100FC00081E08E0F809304038091BB00F0E0EC5130
:100FD000FD4F8083BDCF85EC8093BC00109243030E
:100FE00080910403803230F4E0910403F0E0EC518E
:100FF000FD4F10826091040370E0E0911703F091BF
:10100000180384EE92E019951092040335C084E031
:10101000809343031092E3021092E202E0911903DD
:10102000F0911A0319958091E202811105C081E0C7
:101030008093E2021092C202E091E30281E08E0FFF
:101040008093E302F0E0EE53FD4F80818093BB007C
:101050009091E3028091E202981708F479CF85E835
:101060008093BC0009C085EC8093BC0010924303C0
:1010700003C01092410368DAFF91EF91BF91AF91E5
:101080009F918F917F916F915F914F913F912F91A0
:101090000F900BBE0F900FBE0F901F901895CF931F
:1010A000FC01C48121E020936603C0937004109278
:1010B0006503109264038385682B81E794E0CFDA9F
:1010C00090916403913208F045C0809143038111EF
:1010D000FCCF82E08093430381E0809342038FEF53
:1010E000809341031092400390933F03A4E4B3E044
:1010F000EFE1F3E080E0981721F02D9121938F5FCD
:10110000FACF10921E0380911E03CC0FC82BC09300
:101110001E0380911D03813061F410921D038091A4
:101120001E038093BB008091BC0083FDF8CF85EC4B
:1011300001C085EE8093BC00809143038230E1F3CF
:10114000809141038F3F31F080914103803211F053
:10115000809141031092650310926403109266031C
:10116000CF9108950F931F93CF938C01C62F97DFD4
:101170006C2F6460C80193DF6C2F6B7FC8018FDF19
:1011800083EC90E00197F1F7CF911F910F910895B3
:10119000CF93DF93282F30E0F901EE51FE4F849179
:1011A000F901E456FE4FD491F901EA5AFE4FC49179
:1011B000CC2381F0811159DBEC2FF0E0EE0FFF1F03
:1011C000E45CFE4FA591B4918FB7F894EC91ED2BB0
:1011D000EC938FBFDF91CF910895E7E6F3E0A0890C
:1011E000B18982E08C93A485B5851C92A685B785CC
:1011F00080E18C93108EA489B58986E08C93A289B6
:10120000B3898C9180618C93A289B3898C91886019
:101210008C93A289B3898C9180688C930288F3891E
:10122000E02D80818F7D808308950F931F93CF934E
:10123000DF938C01C62FD42F607F642B93DF80E176
:10124000C89FB00111246D2BC801DF91CF911F9170
:101250000F9188CFCF93DF93CDB7DEB728970FB626
:10126000F894DEBF0FBECDBF9C0188E0E1E2F2E062
:10127000DE01119601900D928A95E1F7F9018085C2
:10128000841710F44FEF480FFE013196E40FF11D63
:10129000E40FF11D9081690F606840E0C901289654
:1012A0000FB6F894DEBF0FBECDBFDF91CF91BDCF9B
:1012B000DB0114964D915C9115976D917C91DC0149
:1012C000ED91FC910280F381E02D1994CF92DF9291
:1012D000EF92FF920F931F93CF93DF93CDB7DEB7BB
:1012E0002C970FB6F894DEBF0FBECDBF8C011886C9
:1012F0001F821A8619861C861B8640E050E06AE62B
:1013000072E0CE0107961DDAF80180899189009775
:1013100011F4C28401C0C82ED12CCD1409F43AC0F6
:101320001A8219821C821B821E821D826F8178851F
:101330006115710529F04B855C85CE01019601DAB6
:10134000ED80FE80FFEFEF1AFF0AB701CE01019694
:10135000BFD9882309F440C029813A818D819E81BB
:101360006EE972E0820F931F95D6FE82ED8269814D
:101370007A816115710531F04D815E81CE0107964C
:10138000E0D903C0CE010796CAD989819A810CD5CC
:10139000D394C3CFF8014581648180914C0490912E
:1013A0004D0458DFBE01695F7F4F80914C049091DE
:1013B0004D047EDF8F819885F7D42C960FB6F89474
:1013C000DEBF0FBECDBFDF91CF911F910F91FF9078
:1013D000EF90DF90CF900895CE010196A0D9C7CFAE
:1013E000EF92FF920F931F93CF93DF93EC017B015A
:1013F00090934D0480934C0481E0809350049FEFC0
:1014000090934E0490934F0410921C0310921B0370
:101410001092650310926403109243038093420379
:1014200010921D0384E1B4DE85E1B2DE8091B90043
:101430008E7F8093B9008091B9008D7F8093B90031
:1014400088E48093B80085E48093BC0086ED92E048
:1014500090931A038093190387ED92E090931803F9
:10146000809317031D828A85823010F098E09D8357
:10147000888762E370E080E090E0FADA6B85CE0165
:101480000EDE68EE73E080E090E0F2DA60E3CE0119
:1014900069DE0BE416E4C8010197F1F760E3CE01C1
:1014A00061DEC8010197F1F760E3CE015BDE83E501
:1014B00092E00197F1F760E2CE0154DE6D81606247
:1014C00040E0CE01B2DE84E08E8340E06CE0CE01ED
:1014D000ACDE40E061E0CE01A8DE0BE31FE1C80115
:1014E0000197F1F782E08F8340E066E0CE019DDE58
:1014F00040E062E0CE0199DEC8010197F1F78091EA
:101500004C0490914D0428E0FC01238760E0C7DD86
:1015100080914C0490914D04FC016681262F22603D
:1015200026836A6040E081DE40E060E080914C0408
:1015300090914D048FDEB70180914C0490914D0441
:10154000B7DE68EE73E080E090E092DA40E061E0C0
:1015500080914C0490914D0468DEC8010197F1F729
:101560008FEF80936904DF91CF911F910F91FF90CE
:10157000EF900895CF93DF9390E0FC01E456FE4F87
:101580002491FC01EA5AFE4F84918823C1F090E037
:10159000880F991FFC01EE5DFE4FC591D491FC01AF
:1015A000E45CFE4FA591B4919FB7F8948881322FE7
:1015B000309583238883EC91E22BEC939FBFDF91DE
:1015C000CF910895CF93DF93BC0187E693E0D8D8FD
:1015D000EC0168E672E087E693E0D2D88C0F9D1F9D
:1015E000DF91CF910895AF92BF92CF92DF92EF92A9
:1015F000FF920F931F93CF93DF9390910E0320914F
:101600000F0330911003C0E09C1799F12D5F3F4FFD
:10161000F9013397408148132AC07DD9D0E0892B46
:1016200051F1CE01880F991F880F991F0091110366
:1016300010911203080F191F53DAF80160837183A8
:1016400082839383E0911503F0911603EC0FFD1F45
:1016500081E08083CC0FDD1F8091130390911403F0
:10166000C80FD91F88EE93E09983888302C0CF5FAB
:10167000CBCF10E04AC034DAE0901103F0901203AF
:101680009E01220F331F220F331FE20EF31EE09143
:101690001303F09114039E01220F331FE20FF31F77
:1016A000D7010D911D912D913C915B016C01A01A08
:1016B000B10AC20AD30A4081518160E070E0809192
:1016C0001503909116034A155B056C057D0548F4DA
:1016D00021E0DC01AC0FBD1F2C9328EC30E03183FE
:1016E0002083FC01EC0FFD1F1081112311F2F8D9AA
:1016F000D7016D937D938D939C93139780911503E0
:1017000090911603C80FD91F1882812FDF91CF91B6
:101710001F910F91FF90EF90DF90CF90BF90AF900F
:101720000895CF93DF9300D000D0CDB7DEB7789483
:1017300084B5826084BD84B5816084BD85B58260D6
:1017400085BD85B5816085BD80916E008160809387
:101750006E001092810080918100826080938100F0
:101760008091810081608093810080918000816000
:10177000809380008091B10084608093B10080915B
:10178000B00081608093B00080919100826080936E
:1017900091008091910081608093910080919000F0
:1017A0008160809390008091A10082608093A1006D
:1017B0008091A10081608093A1008091A000816050
:1017C0008093A0008091210182608093210180910B
:1017D00021018160809321018091200181608093AB
:1017E000200180917A00846080937A0080917A0051
:1017F000826080937A0080917A00816080937A0081
:1018000080917A00806880937A001092C1001092D3
:1018100048041092490410924A0410924B0410920A
:10182000060410920704109208041092090458D973
:101830006B017C014B015C0188EB880E8BE0981EEC
:10184000A11CB11C4DD96C157D058E059F0528F096
:1018500086169706A806B906A8F787E693E0909340
:10186000470480934604B9DC3BD960930604709327
:101870000704809308049093090469E572E080915D
:101880004604909147040E94C0032AD96B017C0151
:101890004B015C019AE0890E911CA11CB11C20D95E
:1018A0006C157D058E059F0528F086169706A806FF
:1018B000B906A8F781E080931A0485E05BDE84E036
:1018C00059DE83E057DE89DC80910F03909110038D
:1018D000009709F069D28091130390911403009747
:1018E00009F062D28091150390911603009709F0D8
:1018F0005BD28091110390911203009709F054D2AA
:101900008BE080930E0381E290E0B6D1FC019C0154
:101910002F5D3F4F1282118233962E173F07D1F76A
:101920009093100380930F0386E190E0A5D19093EC
:101930001403809313038BE090E09ED190931603E1
:10194000809315038CE290E097D1909312038093DB
:101950001103F12C48EEC42E43E0D42EEE24E39480
:1019600080910E03F81698F50F2D10E0F801E05F56
:10197000FD4F8081E0910F03F091100393E0F99EF9
:10198000E00DF11D11248083F5DDC801880F991F3A
:10199000E0911303F0911403E80FF91FD182C08284
:1019A000E0911503F0911603E00FF11FE082000FA4
:1019B000111F000F111FE0911103F0911203E00FAE
:1019C000F11F1082118212821382F394C9CF1A82FE
:1019D00019821C821B821E821D8240E150E06BE650
:1019E00072E0CE0101960E94A103BE016F5F7F4F9E
:1019F00080916E0490916F04F3DC89819A81D4D137
:101A0000809169048F3F41F46CE772E080914C044F
:101A100090914D040E94C003F12CE0916A04F09172
:101A20006B048481F81690F592818381E92FF82F59
:101A3000EF0DF11DEF0DF11D00811181F801838182
:101A4000882311F18281811103C0C8013FDC1AC0D3
:101A5000F80120893189828593858217930710F4D4
:101A6000C80134DCF8014581648180914C04909177
:101A70004D04F0DBB8016A5F7F4F80914C04909178
:101A80004D0416DCF8011382F394C7CF40914F0444
:101A900060914E0480914C0490914D04DBDB83EB0C
:101AA00094E0909303028093020280916A00837F06
:101AB000886080936A00ED9A8FE195DD882319F0A4
:101AC00084E892E07FDD81E28EDD882319F080E9F1
:101AD00092E078DD83E287DD882319F086E892E0E2
:101AE00071DD85E280DD882319F088E892E06ADD07
:101AF00087E279DD882319F08AE892E063DD89E2E4
:101B000072DD882319F08CE892E05CDD8BE26BDDFE
:101B1000882319F08FE892E055DD8DE264DD88239B
:101B200019F082E992E04EDD8FE25DDD882319F045
:101B300085E992E047DD81E356DD882319F088E9E5
:101B400092E040DD83E34FDD882319F08BE992E0DA
:101B500039DD0E944602B0CFE7E6F3E0138212823D
:101B600088EE93E0A0E0B0E084839583A683B783FA
:101B70002DE232E03183208325EC30E03587248765
:101B800024EC30E03787268720EC30E0318B208B47
:101B900021EC30E0338B228B22EC30E0358B248B30
:101BA00026EC30E0378B268B118E128E138E148E1E
:101BB000E1E7F4E01382128284839583A683B783DE
:101BC0008FE392E091838083E4E0F4E01682178251
:101BD0001086118612861386148615861686178639
:101BE000108A118A128A138A148A158AECE4F4E0A6
:101BF00017828FEF848F858F8CE090E03DD0FC01C1
:101C00001382128281E592E09183808387E284834C
:101C100080E1818782E082871386F0936F04E093EE
:101C20006E040895A1E21A2EAA1BBB1BFD010DC074
:101C3000AA1FBB1FEE1FFF1FA217B307E407F5077C
:101C400020F0A21BB30BE40BF50B661F771F881F58
:101C5000991F1A9469F760957095809590959B01EE
:101C6000AC01BD01CF010895EE0FFF1F881F8BBF90
:101C70000790F691E02D19940F931F93CF93DF9364
:101C80008230910510F482E090E0E0917F04F091C1
:101C9000800420E030E0A0E0B0E0309719F140810E
:101CA00051810281138148175907C8F0841795079D
:101CB00069F4109731F012960C93129713961C93B7
:101CC00027C000937F041093800422C021153105A2
:101CD00019F04217530718F49A01BD01EF01DF0113
:101CE000F801DBCF21153105F9F0281B390B243021
:101CF000310580F48A819B816115710521F0FB011A
:101D00009383828304C09093800480937F04FE01B8
:101D1000329644C0FE01E20FF31F8193919322504B
:101D20003109398328833AC020917D0430917E04A3
:101D3000232B41F420911D0230911E0230937E042A
:101D400020937D0420911B0230911C022115310546
:101D500041F42DB73EB740911F0250912002241B41
:101D6000350BE0917D04F0917E04E217F307A0F4B7
:101D70002E1B3F0B2817390778F0AC014E5F5F4FE1
:101D80002417350748F04E0F5F1F50937E04409391
:101D90007D048193919302C0E0E0F0E0CF01DF91F8
:101DA000CF911F910F910895CF93DF93009709F47E
:101DB00081C0FC01329713821282A0917F04B091FE
:101DC0008004109781F420813181820F931F20912C
:101DD0007D0430917E042817390751F5F0937E0475
:101DE000E0937D0467C0ED0120E030E0CE17DF070F
:101DF00040F44A815B819E0141155105F1F0EA01F1
:101E0000F5CFD383C28340815181840F951FC817BA
:101E1000D90759F488819981840F951F029691837F
:101E200080838A819B81938382832115310529F4E4
:101E3000F0938004E0937F043DC0E901FB83EA83D3
:101E400049915991C40FD51FEC17FD0761F48081AA
:101E50009181840F951F0296E9019983888382817D
:101E600093819B838A83E0E0F0E012968D919C91B0
:101E70001397009719F0FD01DC01F7CF8D919C912C
:101E800011979D012E5F3F4F820F931F20917D047C
:101E900030917E042817390769F4309729F410929D
:101EA000800410927F0402C013821282B0937E04D9
:101EB000A0937D04DF91CF9108956F927F928F92CE
:101EC0009F92AF92BF92CF92DF92EF92FF920F93C9
:101ED0001F93CF93DF93009781F4CB01DF91CF91D4
:101EE0001F910F91FF90EF90DF90CF90BF90AF9038
:101EF0009F908F907F906F90BFCEFC01E60FF71FF1
:101F00009C0122503109E217F30708F4A5C0EC0147
:101F1000D9010D911C91119706171707A8F00530EC
:101F2000110508F497C0C80104978617970708F4AD
:101F300091C002501109061B170B019311936D9369
:101F40007C93CF0131DF86C05B01A01AB10A4C013E
:101F5000800E911EA0917F04B0918004612C712CA1
:101F6000E12CF12C109709F446C08D919C911197AA
:101F7000A815B905B1F56C0142E0C40ED11CCA1414
:101F8000DB0478F14C018A189B08640142E0C40E1E
:101F9000D11C1296BC9012971396AC91B5E0CB165B
:101FA000D10440F0B282A38391828082D9016D93E3
:101FB0007C9309C00E5F1F4F800F911FF901918321
:101FC0008083EB2DFA2FE114F10431F0D701139641
:101FD000FC93EE9312973EC0F0938004E0937F044D
:101FE00039C06816790608F43C017D0112960D90FF
:101FF000BC91A02DB7CF80917D0490917E0488166E
:102000009906E1F466167706C8F480911B02909158
:102010001C02009741F48DB79EB740911F0250916A
:102020002002841B950BE817F907B0F4F0937E04A7
:10203000E0937D04F901718360830CC0CB011CDE49
:102040007C01009749F0A801BE011BD0CE01ACDE97
:10205000C70104C0CE0102C080E090E0DF91CF91C3
:102060001F910F91FF90EF90DF90CF90BF90AF90B6
:102070009F908F907F906F90089581E090E0F8940A
:1020800010C0FB01DC0102C001900D924150504094
:10209000D8F70895FB01DC0101900D920020E1F7D3
:0620A0000895F894FFCF43
:1020A600A302A302A302A302A302A302A302A30202
:1020B6001F21232527292B2D2F3133000081048052
:1020C60000000040001400540000000000D9014741
:1020D6000171012502A20180019401000000002F78
:1020E6000303035E03D503FB02E702D802000000E8
:1020F60000630347015E035D03564D4450565F314E
:102106007C315F564D4450560D0A0044454C5441AF
:1021160020434F4E54524F4C4C4552004E6F206D4B
:10212600656E75004800580059005A005550004C1D
:102136004500524900444F00454E004241002000F0
:00000001FF
